{"contracts/TetriSeedGame.sol":{"TetriSeedGame":{"abi":[{"inputs":[],"stateMutability":"nonpayable","type":"constructor"},{"anonymous":false,"inputs":[{"indexed":false,"internalType":"uint8[5]","name":"oldDistribution","type":"uint8[5]"},{"indexed":false,"internalType":"uint8[5]","name":"newDistribution","type":"uint8[5]"}],"name":"DistributionUpdated","type":"event"},{"anonymous":false,"inputs":[{"indexed":false,"internalType":"uint256","name":"oldFee","type":"uint256"},{"indexed":false,"internalType":"uint256","name":"newFee","type":"uint256"}],"name":"EntryFeeUpdated","type":"event"},{"anonymous":false,"inputs":[{"indexed":true,"internalType":"address","name":"player","type":"address"},{"indexed":false,"internalType":"uint256","name":"amount","type":"uint256"},{"indexed":false,"internalType":"uint256","name":"timestamp","type":"uint256"}],"name":"EthDeposited","type":"event"},{"anonymous":false,"inputs":[{"indexed":true,"internalType":"address","name":"recipient","type":"address"},{"indexed":false,"internalType":"uint256","name":"amount","type":"uint256"},{"indexed":false,"internalType":"uint256","name":"timestamp","type":"uint256"}],"name":"EthWithdrawn","type":"event"},{"anonymous":false,"inputs":[{"indexed":true,"internalType":"address","name":"player","type":"address"},{"indexed":false,"internalType":"uint256","name":"fee","type":"uint256"},{"indexed":false,"internalType":"uint256","name":"timestamp","type":"uint256"}],"name":"GameEntered","type":"event"},{"anonymous":false,"inputs":[{"indexed":false,"internalType":"uint256","name":"amount","type":"uint256"},{"indexed":false,"internalType":"uint256","name":"timestamp","type":"uint256"}],"name":"OwnerWithdrawal","type":"event"},{"anonymous":false,"inputs":[{"indexed":true,"internalType":"address","name":"previousOwner","type":"address"},{"indexed":true,"internalType":"address","name":"newOwner","type":"address"}],"name":"OwnershipTransferred","type":"event"},{"anonymous":false,"inputs":[{"indexed":true,"internalType":"address","name":"winner","type":"address"},{"indexed":false,"internalType":"uint256","name":"amount","type":"uint256"},{"indexed":false,"internalType":"uint8","name":"rank","type":"uint8"},{"indexed":true,"internalType":"uint256","name":"season","type":"uint256"}],"name":"PrizeAwarded","type":"event"},{"anonymous":false,"inputs":[{"indexed":false,"internalType":"address[5]","name":"winners","type":"address[5]"},{"indexed":false,"internalType":"uint256[5]","name":"amounts","type":"uint256[5]"},{"indexed":false,"internalType":"uint256","name":"totalDistributed","type":"uint256"}],"name":"PrizesDistributed","type":"event"},{"anonymous":false,"inputs":[{"indexed":true,"internalType":"uint256","name":"season","type":"uint256"},{"indexed":false,"internalType":"uint256","name":"totalPrize","type":"uint256"}],"name":"SeasonEnded","type":"event"},{"inputs":[],"name":"SEASON_DURATION","outputs":[{"internalType":"uint256","name":"","type":"uint256"}],"stateMutability":"view","type":"function"},{"inputs":[],"name":"currentSeason","outputs":[{"internalType":"uint256","name":"","type":"uint256"}],"stateMutability":"view","type":"function"},{"inputs":[],"name":"depositEth","outputs":[],"stateMutability":"payable","type":"function"},{"inputs":[{"internalType":"address[5]","name":"winners","type":"address[5]"}],"name":"endSeason","outputs":[],"stateMutability":"nonpayable","type":"function"},{"inputs":[],"name":"enterGame","outputs":[],"stateMutability":"payable","type":"function"},{"inputs":[],"name":"entryFee","outputs":[{"internalType":"uint256","name":"","type":"uint256"}],"stateMutability":"view","type":"function"},{"inputs":[],"name":"getCurrentSeasonEndTime","outputs":[{"internalType":"uint256","name":"","type":"uint256"}],"stateMutability":"view","type":"function"},{"inputs":[],"name":"getPrizeDistribution","outputs":[{"internalType":"uint8[5]","name":"","type":"uint8[5]"}],"stateMutability":"view","type":"function"},{"inputs":[],"name":"owner","outputs":[{"internalType":"address","name":"","type":"address"}],"stateMutability":"view","type":"function"},{"inputs":[{"internalType":"uint256","name":"amount","type":"uint256"}],"name":"ownerWithdraw","outputs":[],"stateMutability":"nonpayable","type":"function"},{"inputs":[{"internalType":"address","name":"","type":"address"}],"name":"playerBalances","outputs":[{"internalType":"uint256","name":"","type":"uint256"}],"stateMutability":"view","type":"function"},{"inputs":[{"internalType":"uint256","name":"","type":"uint256"}],"name":"prizeDistribution","outputs":[{"internalType":"uint8","name":"","type":"uint8"}],"stateMutability":"view","type":"function"},{"inputs":[],"name":"renounceOwnership","outputs":[],"stateMutability":"nonpayable","type":"function"},{"inputs":[],"name":"seasonStartTime","outputs":[{"internalType":"uint256","name":"","type":"uint256"}],"stateMutability":"view","type":"function"},{"inputs":[{"internalType":"uint8[5]","name":"newPercentages","type":"uint8[5]"}],"name":"setDistribution","outputs":[],"stateMutability":"nonpayable","type":"function"},{"inputs":[{"internalType":"uint256","name":"newFee","type":"uint256"}],"name":"setEntryFee","outputs":[],"stateMutability":"nonpayable","type":"function"},{"inputs":[{"internalType":"address","name":"newOwner","type":"address"}],"name":"transferOwnership","outputs":[],"stateMutability":"nonpayable","type":"function"},{"inputs":[],"name":"weeklyPrizePool","outputs":[{"internalType":"uint256","name":"","type":"uint256"}],"stateMutability":"view","type":"function"},{"stateMutability":"payable","type":"receive"}],"evm":{"bytecode":{"linkReferences":{},"object":"60806040523480156200001157600080fd5b506200001d33620000c2565b60018055655af3107a40006002556040805160a08101825260328152601e6020820152600a9181019190915260056060820181905260808201819052620000679160039162000112565b5042600060076200007c6201518084620001ef565b6200008990600462000206565b62000095919062000222565b9050620000a6816201518062000239565b620000b2908362000253565b6005555050600160065562000269565b600080546001600160a01b038381166001600160a01b0319831681178455604051919092169283917f8be0079c531659141344cd1fd0a4f28419497f9722a3daafe3b4186f6b6457e09190a35050565b6001830191839082156200019a5791602002820160005b838211156200016957835183826101000a81548160ff021916908360ff160217905550926020019260010160208160000104928301926001030262000129565b8015620001985782816101000a81549060ff021916905560010160208160000104928301926001030262000169565b505b50620001a8929150620001ac565b5090565b5b80821115620001a85760008155600101620001ad565b634e487b7160e01b600052601260045260246000fd5b634e487b7160e01b600052601160045260246000fd5b600082620002015762000201620001c3565b500490565b808201808211156200021c576200021c620001d9565b92915050565b600082620002345762000234620001c3565b500690565b80820281158282048414176200021c576200021c620001d9565b818103818111156200021c576200021c620001d9565b61149880620002796000396000f3fe60806040526004361061010d5760003560e01c80638d66756411610095578063cbd3f96211610064578063cbd3f962146102e5578063dc185e3514610307578063eb770d0c1461031e578063f2fde38b1461033e578063fa5b1a7f1461035e57600080fd5b80638d667564146102725780638da5cb5b14610292578063ab2a79f9146102ba578063bcb39621146102cf57600080fd5b806354c237b7116100dc57806354c237b7146101d2578063715018a6146102045780637971999a146102195780637b38314c1461022f5780638104ae4d1461025c57600080fd5b8063072ea61c14610177578063218bd577146101a057806333f707d1146101aa578063439370b1146101ca57600080fd5b36610172573360009081526007602052604081208054349290610131908490611245565b90915550506040805134815242602082015233917f3f7db3ccdc06492eb9fcca5fe34fcee7f7ddcca331e5053cb3534067b9a53232910160405180910390a2005b600080fd5b34801561018357600080fd5b5061018d60025481565b6040519081526020015b60405180910390f35b6101a861037e565b005b3480156101b657600080fd5b506101a86101c536600461125e565b6105b9565b6101a8610757565b3480156101de57600080fd5b506101f26101ed36600461125e565b61080a565b60405160ff9091168152602001610197565b34801561021057600080fd5b506101a8610834565b34801561022557600080fd5b5061018d60045481565b34801561023b57600080fd5b5061018d61024a366004611277565b60076020526000908152604090205481565b34801561026857600080fd5b5061018d60055481565b34801561027e57600080fd5b506101a861028d3660046112b8565b610846565b34801561029e57600080fd5b506000546040516001600160a01b039091168152602001610197565b3480156102c657600080fd5b5061018d61099a565b3480156102db57600080fd5b5061018d60065481565b3480156102f157600080fd5b506102fa6109b2565b6040516101979190611300565b34801561031357600080fd5b5061018d62093a8081565b34801561032a57600080fd5b506101a861033936600461125e565b610a0a565b34801561034a57600080fd5b506101a8610359366004611277565b610ab3565b34801561036a57600080fd5b506101a86103793660046112b8565b610b29565b610386611063565b62093a806005546103979190611245565b42106103e257600062093a80600554426103b1919061130e565b6103bb9190611337565b90506103ca62093a808261134b565b600560008282546103db9190611245565b9091555050505b600254336000908152600760205260409020541061042757600254336000908152600760205260408120805490919061041c90849061130e565b9091555061051a9050565b6002543410156104765760405162461bcd60e51b8152602060048201526015602482015274125b9cdd59999a58da595b9d08115512081cd95b9d605a1b60448201526064015b60405180910390fd5b60025434111561051a576002546000903390610492903461130e565b604051600081818185875af1925050503d80600081146104ce576040519150601f19603f3d011682016040523d82523d6000602084013e6104d3565b606091505b50509050806105185760405162461bcd60e51b8152602060048201526011602482015270115512081c99599d5b990819985a5b1959607a1b604482015260640161046d565b505b6002546004600082825461052e9190611245565b90915550506002546040805191825242602083015233917f3f7db3ccdc06492eb9fcca5fe34fcee7f7ddcca331e5053cb3534067b9a53232910160405180910390a26002546040805191825242602083015233917f9a1a3c45c9a593fe515b398aac3639ed6ac33d78b8c7eeb8f81241e8ecf65ee991015b60405180910390a26105b760018055565b565b6105c16110bc565b6105c9611063565b60045481111561061b5760405162461bcd60e51b815260206004820152601e60248201527f416d6f756e74206578636565647320617661696c61626c652066756e64730000604482015260640161046d565b806004600082825461062d919061130e565b9091555050600080546040516001600160a01b039091169083908381818185875af1925050503d806000811461067f576040519150601f19603f3d011682016040523d82523d6000602084013e610684565b606091505b50509050806106cb5760405162461bcd60e51b8152602060048201526013602482015272115512081d1c985b9cd9995c8819985a5b1959606a1b604482015260640161046d565b600054604080518481524260208201526001600160a01b03909216917f7b4c04a6b3225fb798a519b1a97ce524a26a8b1e23aa2285e7a70768cab85f24910160405180910390a2604080518381524260208201527f1dcb27f9812d159cc6ea3f1338ec78646f39b830096254199c14e2228950c1c8910160405180910390a15061075460018055565b50565b61075f611063565b600034116107af5760405162461bcd60e51b815260206004820181905260248201527f416d6f756e74206d7573742062652067726561746572207468616e207a65726f604482015260640161046d565b33600090815260076020526040812080543492906107ce908490611245565b90915550506040805134815242602082015233917f3f7db3ccdc06492eb9fcca5fe34fcee7f7ddcca331e5053cb3534067b9a5323291016105a6565b6003816005811061081a57600080fd5b60209182820401919006915054906101000a900460ff1681565b61083c6110bc565b6105b76000611116565b61084e6110bc565b6000805b60058160ff1610156108a757828160ff166005811061087357610873611362565b602002016020810190610886919061138e565b6108939060ff16836113a9565b91508061089f816113cb565b915050610852565b508061ffff166064146108fc5760405162461bcd60e51b815260206004820152601e60248201527f50657263656e7461676573206d7573742061646420757020746f203130300000604482015260640161046d565b6040805160a08101918290526000916003906005908285855b825461010083900a900460ff168152602060019283018181049485019490930390920291018084116109155790505050505050905082600390600561095b929190611166565b507fd8398b26cff3564d354793d25b095bd15773387cdf28c90d94a1ad524bdaeb7b818460405161098d9291906113ea565b60405180910390a1505050565b600062093a806005546109ad9190611245565b905090565b6109ba6111fc565b6040805160a081019182905290600390600590826000855b825461010083900a900460ff168152602060019283018181049485019490930390920291018084116109d25790505050505050905090565b610a126110bc565b60008111610a6e5760405162461bcd60e51b815260206004820152602360248201527f456e74727920666565206d7573742062652067726561746572207468616e207a60448201526265726f60e81b606482015260840161046d565b600280549082905560408051828152602081018490527f6a75d918a59da9597a749b7c707f23cfa76552074b43c68a24a21db1c45841f1910160405180910390a15050565b610abb6110bc565b6001600160a01b038116610b205760405162461bcd60e51b815260206004820152602660248201527f4f776e61626c653a206e6577206f776e657220697320746865207a65726f206160448201526564647265737360d01b606482015260840161046d565b61075481611116565b610b316110bc565b610b39611063565b600060045411610b8b5760405162461bcd60e51b815260206004820152601760248201527f4e6f207072697a657320746f2064697374726962757465000000000000000000604482015260640161046d565b60005b60058160ff161015610d035760008260ff831660058110610bb157610bb1611362565b602002016020810190610bc49190611277565b6001600160a01b031603610c135760405162461bcd60e51b8152602060048201526016602482015275496e76616c69642077696e6e6572206164647265737360501b604482015260640161046d565b6000610c20826001611435565b90505b60058160ff161015610cf057828160ff1660058110610c4457610c44611362565b602002016020810190610c579190611277565b6001600160a01b0316838360ff1660058110610c7557610c75611362565b602002016020810190610c889190611277565b6001600160a01b031603610cde5760405162461bcd60e51b815260206004820152601860248201527f4475706c69636174652077696e6e657220616464726573730000000000000000604482015260640161046d565b80610ce8816113cb565b915050610c23565b5080610cfb816113cb565b915050610b8e565b50600454610d0f6111fc565b6000805b60048160ff161015610db257606460038260ff1660058110610d3757610d37611362565b602081049190910154610d5691601f166101000a900460ff168661134b565b610d609190611337565b838260ff1660058110610d7557610d75611362565b60200201528260ff821660058110610d8f57610d8f611362565b6020020151610d9e9083611245565b915080610daa816113cb565b915050610d13565b50610dbd818461130e565b608083015260005b60058160ff161015610fa1576000838260ff1660058110610de857610de8611362565b60200201511115610f8f57828160ff1660058110610e0857610e08611362565b602002015160076000878460ff1660058110610e2657610e26611362565b602002016020810190610e399190611277565b6001600160a01b03166001600160a01b031681526020019081526020016000206000828254610e689190611245565b9091555085905060ff821660058110610e8357610e83611362565b602002016020810190610e969190611277565b6001600160a01b03167f7b4c04a6b3225fb798a519b1a97ce524a26a8b1e23aa2285e7a70768cab85f24848360ff1660058110610ed557610ed5611362565b602002015142604051610ef2929190918252602082015260400190565b60405180910390a2600654858260ff1660058110610f1257610f12611362565b602002016020810190610f259190611277565b6001600160a01b03167f975b964c87063cc8a663bda95acafcc123cbd152264733e49de21a70e9c1bb22858460ff1660058110610f6457610f64611362565b6020020151610f74856001611435565b6040805192835260ff90911660208301520160405180910390a35b80610f99816113cb565b915050610dc5565b5060048054600091829055600680549192600192610fc0908490611245565b9091555050426005819055600090600790610fdf906201518090611337565b610fea906004611245565b610ff4919061144e565b9050611003816201518061134b565b600554611010919061130e565b6005556006546110229060019061130e565b6040518381527fd84108459ae28f4111f3c851dee576040e08f18d76d1dc82f0094abe275b11529060200160405180910390a2505050505061075460018055565b6002600154036110b55760405162461bcd60e51b815260206004820152601f60248201527f5265656e7472616e637947756172643a207265656e7472616e742063616c6c00604482015260640161046d565b6002600155565b6000546001600160a01b031633146105b75760405162461bcd60e51b815260206004820181905260248201527f4f776e61626c653a2063616c6c6572206973206e6f7420746865206f776e6572604482015260640161046d565b600080546001600160a01b038381166001600160a01b0319831681178455604051919092169283917f8be0079c531659141344cd1fd0a4f28419497f9722a3daafe3b4186f6b6457e09190a35050565b6001830191839082156111ec5791602002820160005b838211156111bd57833560ff1683826101000a81548160ff021916908360ff160217905550926020019260010160208160000104928301926001030261117c565b80156111ea5782816101000a81549060ff02191690556001016020816000010492830192600103026111bd565b505b506111f892915061121a565b5090565b6040518060a001604052806005906020820280368337509192915050565b5b808211156111f8576000815560010161121b565b634e487b7160e01b600052601160045260246000fd5b808201808211156112585761125861122f565b92915050565b60006020828403121561127057600080fd5b5035919050565b60006020828403121561128957600080fd5b81356001600160a01b03811681146112a057600080fd5b9392505050565b8060a0810183101561125857600080fd5b600060a082840312156112ca57600080fd5b6112a083836112a7565b8060005b60058110156112fa57815160ff168452602093840193909101906001016112d8565b50505050565b60a0810161125882846112d4565b818103818111156112585761125861122f565b634e487b7160e01b600052601260045260246000fd5b60008261134657611346611321565b500490565b80820281158282048414176112585761125861122f565b634e487b7160e01b600052603260045260246000fd5b803560ff8116811461138957600080fd5b919050565b6000602082840312156113a057600080fd5b6112a082611378565b61ffff8181168382160190808211156113c4576113c461122f565b5092915050565b600060ff821660ff81036113e1576113e161122f565b60010192915050565b61014081016113f982856112d4565b60a082018360005b600581101561142b5760ff61141583611378565b1683526020928301929190910190600101611401565b5050509392505050565b60ff81811683821601908111156112585761125861122f565b60008261145d5761145d611321565b50069056fea2646970667358221220914b4f0560606a9ff2f8f842aa198d80060b46f20973f51bca4e5a570c4f019364736f6c63430008130033","opcodes":"PUSH1 0x80 PUSH1 0x40 MSTORE CALLVALUE DUP1 ISZERO PUSH3 0x11 JUMPI PUSH1 0x0 DUP1 REVERT JUMPDEST POP PUSH3 0x1D CALLER PUSH3 0xC2 JUMP JUMPDEST PUSH1 0x1 DUP1 SSTORE PUSH6 0x5AF3107A4000 PUSH1 0x2 SSTORE PUSH1 0x40 DUP1 MLOAD PUSH1 0xA0 DUP2 ADD DUP3 MSTORE PUSH1 0x32 DUP2 MSTORE PUSH1 0x1E PUSH1 0x20 DUP3 ADD MSTORE PUSH1 0xA SWAP2 DUP2 ADD SWAP2 SWAP1 SWAP2 MSTORE PUSH1 0x5 PUSH1 0x60 DUP3 ADD DUP2 SWAP1 MSTORE PUSH1 0x80 DUP3 ADD DUP2 SWAP1 MSTORE PUSH3 0x67 SWAP2 PUSH1 0x3 SWAP2 PUSH3 0x112 JUMP JUMPDEST POP TIMESTAMP PUSH1 0x0 PUSH1 0x7 PUSH3 0x7C PUSH3 0x15180 DUP5 PUSH3 0x1EF JUMP JUMPDEST PUSH3 0x89 SWAP1 PUSH1 0x4 PUSH3 0x206 JUMP JUMPDEST PUSH3 0x95 SWAP2 SWAP1 PUSH3 0x222 JUMP JUMPDEST SWAP1 POP PUSH3 0xA6 DUP2 PUSH3 0x15180 PUSH3 0x239 JUMP JUMPDEST PUSH3 0xB2 SWAP1 DUP4 PUSH3 0x253 JUMP JUMPDEST PUSH1 0x5 SSTORE POP POP PUSH1 0x1 PUSH1 0x6 SSTORE PUSH3 0x269 JUMP JUMPDEST PUSH1 0x0 DUP1 SLOAD PUSH1 0x1 PUSH1 0x1 PUSH1 0xA0 SHL SUB DUP4 DUP2 AND PUSH1 0x1 PUSH1 0x1 PUSH1 0xA0 SHL SUB NOT DUP4 AND DUP2 OR DUP5 SSTORE PUSH1 0x40 MLOAD SWAP2 SWAP1 SWAP3 AND SWAP3 DUP4 SWAP2 PUSH32 0x8BE0079C531659141344CD1FD0A4F28419497F9722A3DAAFE3B4186F6B6457E0 SWAP2 SWAP1 LOG3 POP POP JUMP JUMPDEST PUSH1 0x1 DUP4 ADD SWAP2 DUP4 SWAP1 DUP3 ISZERO PUSH3 0x19A JUMPI SWAP2 PUSH1 0x20 MUL DUP3 ADD PUSH1 0x0 JUMPDEST DUP4 DUP3 GT ISZERO PUSH3 0x169 JUMPI DUP4 MLOAD DUP4 DUP3 PUSH2 0x100 EXP DUP2 SLOAD DUP2 PUSH1 0xFF MUL NOT AND SWAP1 DUP4 PUSH1 0xFF AND MUL OR SWAP1 SSTORE POP SWAP3 PUSH1 0x20 ADD SWAP3 PUSH1 0x1 ADD PUSH1 0x20 DUP2 PUSH1 0x0 ADD DIV SWAP3 DUP4 ADD SWAP3 PUSH1 0x1 SUB MUL PUSH3 0x129 JUMP JUMPDEST DUP1 ISZERO PUSH3 0x198 JUMPI DUP3 DUP2 PUSH2 0x100 EXP DUP2 SLOAD SWAP1 PUSH1 0xFF MUL NOT AND SWAP1 SSTORE PUSH1 0x1 ADD PUSH1 0x20 DUP2 PUSH1 0x0 ADD DIV SWAP3 DUP4 ADD SWAP3 PUSH1 0x1 SUB MUL PUSH3 0x169 JUMP JUMPDEST POP JUMPDEST POP PUSH3 0x1A8 SWAP3 SWAP2 POP PUSH3 0x1AC JUMP JUMPDEST POP SWAP1 JUMP JUMPDEST JUMPDEST DUP1 DUP3 GT ISZERO PUSH3 0x1A8 JUMPI PUSH1 0x0 DUP2 SSTORE PUSH1 0x1 ADD PUSH3 0x1AD JUMP JUMPDEST PUSH4 0x4E487B71 PUSH1 0xE0 SHL PUSH1 0x0 MSTORE PUSH1 0x12 PUSH1 0x4 MSTORE PUSH1 0x24 PUSH1 0x0 REVERT JUMPDEST PUSH4 0x4E487B71 PUSH1 0xE0 SHL PUSH1 0x0 MSTORE PUSH1 0x11 PUSH1 0x4 MSTORE PUSH1 0x24 PUSH1 0x0 REVERT JUMPDEST PUSH1 0x0 DUP3 PUSH3 0x201 JUMPI PUSH3 0x201 PUSH3 0x1C3 JUMP JUMPDEST POP DIV SWAP1 JUMP JUMPDEST DUP1 DUP3 ADD DUP1 DUP3 GT ISZERO PUSH3 0x21C JUMPI PUSH3 0x21C PUSH3 0x1D9 JUMP JUMPDEST SWAP3 SWAP2 POP POP JUMP JUMPDEST PUSH1 0x0 DUP3 PUSH3 0x234 JUMPI PUSH3 0x234 PUSH3 0x1C3 JUMP JUMPDEST POP MOD SWAP1 JUMP JUMPDEST DUP1 DUP3 MUL DUP2 ISZERO DUP3 DUP3 DIV DUP5 EQ OR PUSH3 0x21C JUMPI PUSH3 0x21C PUSH3 0x1D9 JUMP JUMPDEST DUP2 DUP2 SUB DUP2 DUP2 GT ISZERO PUSH3 0x21C JUMPI PUSH3 0x21C PUSH3 0x1D9 JUMP JUMPDEST PUSH2 0x1498 DUP1 PUSH3 0x279 PUSH1 0x0 CODECOPY PUSH1 0x0 RETURN INVALID PUSH1 0x80 PUSH1 0x40 MSTORE PUSH1 0x4 CALLDATASIZE LT PUSH2 0x10D JUMPI PUSH1 0x0 CALLDATALOAD PUSH1 0xE0 SHR DUP1 PUSH4 0x8D667564 GT PUSH2 0x95 JUMPI DUP1 PUSH4 0xCBD3F962 GT PUSH2 0x64 JUMPI DUP1 PUSH4 0xCBD3F962 EQ PUSH2 0x2E5 JUMPI DUP1 PUSH4 0xDC185E35 EQ PUSH2 0x307 JUMPI DUP1 PUSH4 0xEB770D0C EQ PUSH2 0x31E JUMPI DUP1 PUSH4 0xF2FDE38B EQ PUSH2 0x33E JUMPI DUP1 PUSH4 0xFA5B1A7F EQ PUSH2 0x35E JUMPI PUSH1 0x0 DUP1 REVERT JUMPDEST DUP1 PUSH4 0x8D667564 EQ PUSH2 0x272 JUMPI DUP1 PUSH4 0x8DA5CB5B EQ PUSH2 0x292 JUMPI DUP1 PUSH4 0xAB2A79F9 EQ PUSH2 0x2BA JUMPI DUP1 PUSH4 0xBCB39621 EQ PUSH2 0x2CF JUMPI PUSH1 0x0 DUP1 REVERT JUMPDEST DUP1 PUSH4 0x54C237B7 GT PUSH2 0xDC JUMPI DUP1 PUSH4 0x54C237B7 EQ PUSH2 0x1D2 JUMPI DUP1 PUSH4 0x715018A6 EQ PUSH2 0x204 JUMPI DUP1 PUSH4 0x7971999A EQ PUSH2 0x219 JUMPI DUP1 PUSH4 0x7B38314C EQ PUSH2 0x22F JUMPI DUP1 PUSH4 0x8104AE4D EQ PUSH2 0x25C JUMPI PUSH1 0x0 DUP1 REVERT JUMPDEST DUP1 PUSH4 0x72EA61C EQ PUSH2 0x177 JUMPI DUP1 PUSH4 0x218BD577 EQ PUSH2 0x1A0 JUMPI DUP1 PUSH4 0x33F707D1 EQ PUSH2 0x1AA JUMPI DUP1 PUSH4 0x439370B1 EQ PUSH2 0x1CA JUMPI PUSH1 0x0 DUP1 REVERT JUMPDEST CALLDATASIZE PUSH2 0x172 JUMPI CALLER PUSH1 0x0 SWAP1 DUP2 MSTORE PUSH1 0x7 PUSH1 0x20 MSTORE PUSH1 0x40 DUP2 KECCAK256 DUP1 SLOAD CALLVALUE SWAP3 SWAP1 PUSH2 0x131 SWAP1 DUP5 SWAP1 PUSH2 0x1245 JUMP JUMPDEST SWAP1 SWAP2 SSTORE POP POP PUSH1 0x40 DUP1 MLOAD CALLVALUE DUP2 MSTORE TIMESTAMP PUSH1 0x20 DUP3 ADD MSTORE CALLER SWAP2 PUSH32 0x3F7DB3CCDC06492EB9FCCA5FE34FCEE7F7DDCCA331E5053CB3534067B9A53232 SWAP2 ADD PUSH1 0x40 MLOAD DUP1 SWAP2 SUB SWAP1 LOG2 STOP JUMPDEST PUSH1 0x0 DUP1 REVERT JUMPDEST CALLVALUE DUP1 ISZERO PUSH2 0x183 JUMPI PUSH1 0x0 DUP1 REVERT JUMPDEST POP PUSH2 0x18D PUSH1 0x2 SLOAD DUP2 JUMP JUMPDEST PUSH1 0x40 MLOAD SWAP1 DUP2 MSTORE PUSH1 0x20 ADD JUMPDEST PUSH1 0x40 MLOAD DUP1 SWAP2 SUB SWAP1 RETURN JUMPDEST PUSH2 0x1A8 PUSH2 0x37E JUMP JUMPDEST STOP JUMPDEST CALLVALUE DUP1 ISZERO PUSH2 0x1B6 JUMPI PUSH1 0x0 DUP1 REVERT JUMPDEST POP PUSH2 0x1A8 PUSH2 0x1C5 CALLDATASIZE PUSH1 0x4 PUSH2 0x125E JUMP JUMPDEST PUSH2 0x5B9 JUMP JUMPDEST PUSH2 0x1A8 PUSH2 0x757 JUMP JUMPDEST CALLVALUE DUP1 ISZERO PUSH2 0x1DE JUMPI PUSH1 0x0 DUP1 REVERT JUMPDEST POP PUSH2 0x1F2 PUSH2 0x1ED CALLDATASIZE PUSH1 0x4 PUSH2 0x125E JUMP JUMPDEST PUSH2 0x80A JUMP JUMPDEST PUSH1 0x40 MLOAD PUSH1 0xFF SWAP1 SWAP2 AND DUP2 MSTORE PUSH1 0x20 ADD PUSH2 0x197 JUMP JUMPDEST CALLVALUE DUP1 ISZERO PUSH2 0x210 JUMPI PUSH1 0x0 DUP1 REVERT JUMPDEST POP PUSH2 0x1A8 PUSH2 0x834 JUMP JUMPDEST CALLVALUE DUP1 ISZERO PUSH2 0x225 JUMPI PUSH1 0x0 DUP1 REVERT JUMPDEST POP PUSH2 0x18D PUSH1 0x4 SLOAD DUP2 JUMP JUMPDEST CALLVALUE DUP1 ISZERO PUSH2 0x23B JUMPI PUSH1 0x0 DUP1 REVERT JUMPDEST POP PUSH2 0x18D PUSH2 0x24A CALLDATASIZE PUSH1 0x4 PUSH2 0x1277 JUMP JUMPDEST PUSH1 0x7 PUSH1 0x20 MSTORE PUSH1 0x0 SWAP1 DUP2 MSTORE PUSH1 0x40 SWAP1 KECCAK256 SLOAD DUP2 JUMP JUMPDEST CALLVALUE DUP1 ISZERO PUSH2 0x268 JUMPI PUSH1 0x0 DUP1 REVERT JUMPDEST POP PUSH2 0x18D PUSH1 0x5 SLOAD DUP2 JUMP JUMPDEST CALLVALUE DUP1 ISZERO PUSH2 0x27E JUMPI PUSH1 0x0 DUP1 REVERT JUMPDEST POP PUSH2 0x1A8 PUSH2 0x28D CALLDATASIZE PUSH1 0x4 PUSH2 0x12B8 JUMP JUMPDEST PUSH2 0x846 JUMP JUMPDEST CALLVALUE DUP1 ISZERO PUSH2 0x29E JUMPI PUSH1 0x0 DUP1 REVERT JUMPDEST POP PUSH1 0x0 SLOAD PUSH1 0x40 MLOAD PUSH1 0x1 PUSH1 0x1 PUSH1 0xA0 SHL SUB SWAP1 SWAP2 AND DUP2 MSTORE PUSH1 0x20 ADD PUSH2 0x197 JUMP JUMPDEST CALLVALUE DUP1 ISZERO PUSH2 0x2C6 JUMPI PUSH1 0x0 DUP1 REVERT JUMPDEST POP PUSH2 0x18D PUSH2 0x99A JUMP JUMPDEST CALLVALUE DUP1 ISZERO PUSH2 0x2DB JUMPI PUSH1 0x0 DUP1 REVERT JUMPDEST POP PUSH2 0x18D PUSH1 0x6 SLOAD DUP2 JUMP JUMPDEST CALLVALUE DUP1 ISZERO PUSH2 0x2F1 JUMPI PUSH1 0x0 DUP1 REVERT JUMPDEST POP PUSH2 0x2FA PUSH2 0x9B2 JUMP JUMPDEST PUSH1 0x40 MLOAD PUSH2 0x197 SWAP2 SWAP1 PUSH2 0x1300 JUMP JUMPDEST CALLVALUE DUP1 ISZERO PUSH2 0x313 JUMPI PUSH1 0x0 DUP1 REVERT JUMPDEST POP PUSH2 0x18D PUSH3 0x93A80 DUP2 JUMP JUMPDEST CALLVALUE DUP1 ISZERO PUSH2 0x32A JUMPI PUSH1 0x0 DUP1 REVERT JUMPDEST POP PUSH2 0x1A8 PUSH2 0x339 CALLDATASIZE PUSH1 0x4 PUSH2 0x125E JUMP JUMPDEST PUSH2 0xA0A JUMP JUMPDEST CALLVALUE DUP1 ISZERO PUSH2 0x34A JUMPI PUSH1 0x0 DUP1 REVERT JUMPDEST POP PUSH2 0x1A8 PUSH2 0x359 CALLDATASIZE PUSH1 0x4 PUSH2 0x1277 JUMP JUMPDEST PUSH2 0xAB3 JUMP JUMPDEST CALLVALUE DUP1 ISZERO PUSH2 0x36A JUMPI PUSH1 0x0 DUP1 REVERT JUMPDEST POP PUSH2 0x1A8 PUSH2 0x379 CALLDATASIZE PUSH1 0x4 PUSH2 0x12B8 JUMP JUMPDEST PUSH2 0xB29 JUMP JUMPDEST PUSH2 0x386 PUSH2 0x1063 JUMP JUMPDEST PUSH3 0x93A80 PUSH1 0x5 SLOAD PUSH2 0x397 SWAP2 SWAP1 PUSH2 0x1245 JUMP JUMPDEST TIMESTAMP LT PUSH2 0x3E2 JUMPI PUSH1 0x0 PUSH3 0x93A80 PUSH1 0x5 SLOAD TIMESTAMP PUSH2 0x3B1 SWAP2 SWAP1 PUSH2 0x130E JUMP JUMPDEST PUSH2 0x3BB SWAP2 SWAP1 PUSH2 0x1337 JUMP JUMPDEST SWAP1 POP PUSH2 0x3CA PUSH3 0x93A80 DUP3 PUSH2 0x134B JUMP JUMPDEST PUSH1 0x5 PUSH1 0x0 DUP3 DUP3 SLOAD PUSH2 0x3DB SWAP2 SWAP1 PUSH2 0x1245 JUMP JUMPDEST SWAP1 SWAP2 SSTORE POP POP POP JUMPDEST PUSH1 0x2 SLOAD CALLER PUSH1 0x0 SWAP1 DUP2 MSTORE PUSH1 0x7 PUSH1 0x20 MSTORE PUSH1 0x40 SWAP1 KECCAK256 SLOAD LT PUSH2 0x427 JUMPI PUSH1 0x2 SLOAD CALLER PUSH1 0x0 SWAP1 DUP2 MSTORE PUSH1 0x7 PUSH1 0x20 MSTORE PUSH1 0x40 DUP2 KECCAK256 DUP1 SLOAD SWAP1 SWAP2 SWAP1 PUSH2 0x41C SWAP1 DUP5 SWAP1 PUSH2 0x130E JUMP JUMPDEST SWAP1 SWAP2 SSTORE POP PUSH2 0x51A SWAP1 POP JUMP JUMPDEST PUSH1 0x2 SLOAD CALLVALUE LT ISZERO PUSH2 0x476 JUMPI PUSH1 0x40 MLOAD PUSH3 0x461BCD PUSH1 0xE5 SHL DUP2 MSTORE PUSH1 0x20 PUSH1 0x4 DUP3 ADD MSTORE PUSH1 0x15 PUSH1 0x24 DUP3 ADD MSTORE PUSH21 0x125B9CDD59999A58DA595B9D08115512081CD95B9D PUSH1 0x5A SHL PUSH1 0x44 DUP3 ADD MSTORE PUSH1 0x64 ADD JUMPDEST PUSH1 0x40 MLOAD DUP1 SWAP2 SUB SWAP1 REVERT JUMPDEST PUSH1 0x2 SLOAD CALLVALUE GT ISZERO PUSH2 0x51A JUMPI PUSH1 0x2 SLOAD PUSH1 0x0 SWAP1 CALLER SWAP1 PUSH2 0x492 SWAP1 CALLVALUE PUSH2 0x130E JUMP JUMPDEST PUSH1 0x40 MLOAD PUSH1 0x0 DUP2 DUP2 DUP2 DUP6 DUP8 GAS CALL SWAP3 POP POP POP RETURNDATASIZE DUP1 PUSH1 0x0 DUP2 EQ PUSH2 0x4CE JUMPI PUSH1 0x40 MLOAD SWAP2 POP PUSH1 0x1F NOT PUSH1 0x3F RETURNDATASIZE ADD AND DUP3 ADD PUSH1 0x40 MSTORE RETURNDATASIZE DUP3 MSTORE RETURNDATASIZE PUSH1 0x0 PUSH1 0x20 DUP5 ADD RETURNDATACOPY PUSH2 0x4D3 JUMP JUMPDEST PUSH1 0x60 SWAP2 POP JUMPDEST POP POP SWAP1 POP DUP1 PUSH2 0x518 JUMPI PUSH1 0x40 MLOAD PUSH3 0x461BCD PUSH1 0xE5 SHL DUP2 MSTORE PUSH1 0x20 PUSH1 0x4 DUP3 ADD MSTORE PUSH1 0x11 PUSH1 0x24 DUP3 ADD MSTORE PUSH17 0x115512081C99599D5B990819985A5B1959 PUSH1 0x7A SHL PUSH1 0x44 DUP3 ADD MSTORE PUSH1 0x64 ADD PUSH2 0x46D JUMP JUMPDEST POP JUMPDEST PUSH1 0x2 SLOAD PUSH1 0x4 PUSH1 0x0 DUP3 DUP3 SLOAD PUSH2 0x52E SWAP2 SWAP1 PUSH2 0x1245 JUMP JUMPDEST SWAP1 SWAP2 SSTORE POP POP PUSH1 0x2 SLOAD PUSH1 0x40 DUP1 MLOAD SWAP2 DUP3 MSTORE TIMESTAMP PUSH1 0x20 DUP4 ADD MSTORE CALLER SWAP2 PUSH32 0x3F7DB3CCDC06492EB9FCCA5FE34FCEE7F7DDCCA331E5053CB3534067B9A53232 SWAP2 ADD PUSH1 0x40 MLOAD DUP1 SWAP2 SUB SWAP1 LOG2 PUSH1 0x2 SLOAD PUSH1 0x40 DUP1 MLOAD SWAP2 DUP3 MSTORE TIMESTAMP PUSH1 0x20 DUP4 ADD MSTORE CALLER SWAP2 PUSH32 0x9A1A3C45C9A593FE515B398AAC3639ED6AC33D78B8C7EEB8F81241E8ECF65EE9 SWAP2 ADD JUMPDEST PUSH1 0x40 MLOAD DUP1 SWAP2 SUB SWAP1 LOG2 PUSH2 0x5B7 PUSH1 0x1 DUP1 SSTORE JUMP JUMPDEST JUMP JUMPDEST PUSH2 0x5C1 PUSH2 0x10BC JUMP JUMPDEST PUSH2 0x5C9 PUSH2 0x1063 JUMP JUMPDEST PUSH1 0x4 SLOAD DUP2 GT ISZERO PUSH2 0x61B JUMPI PUSH1 0x40 MLOAD PUSH3 0x461BCD PUSH1 0xE5 SHL DUP2 MSTORE PUSH1 0x20 PUSH1 0x4 DUP3 ADD MSTORE PUSH1 0x1E PUSH1 0x24 DUP3 ADD MSTORE PUSH32 0x416D6F756E74206578636565647320617661696C61626C652066756E64730000 PUSH1 0x44 DUP3 ADD MSTORE PUSH1 0x64 ADD PUSH2 0x46D JUMP JUMPDEST DUP1 PUSH1 0x4 PUSH1 0x0 DUP3 DUP3 SLOAD PUSH2 0x62D SWAP2 SWAP1 PUSH2 0x130E JUMP JUMPDEST SWAP1 SWAP2 SSTORE POP POP PUSH1 0x0 DUP1 SLOAD PUSH1 0x40 MLOAD PUSH1 0x1 PUSH1 0x1 PUSH1 0xA0 SHL SUB SWAP1 SWAP2 AND SWAP1 DUP4 SWAP1 DUP4 DUP2 DUP2 DUP2 DUP6 DUP8 GAS CALL SWAP3 POP POP POP RETURNDATASIZE DUP1 PUSH1 0x0 DUP2 EQ PUSH2 0x67F JUMPI PUSH1 0x40 MLOAD SWAP2 POP PUSH1 0x1F NOT PUSH1 0x3F RETURNDATASIZE ADD AND DUP3 ADD PUSH1 0x40 MSTORE RETURNDATASIZE DUP3 MSTORE RETURNDATASIZE PUSH1 0x0 PUSH1 0x20 DUP5 ADD RETURNDATACOPY PUSH2 0x684 JUMP JUMPDEST PUSH1 0x60 SWAP2 POP JUMPDEST POP POP SWAP1 POP DUP1 PUSH2 0x6CB JUMPI PUSH1 0x40 MLOAD PUSH3 0x461BCD PUSH1 0xE5 SHL DUP2 MSTORE PUSH1 0x20 PUSH1 0x4 DUP3 ADD MSTORE PUSH1 0x13 PUSH1 0x24 DUP3 ADD MSTORE PUSH19 0x115512081D1C985B9CD9995C8819985A5B1959 PUSH1 0x6A SHL PUSH1 0x44 DUP3 ADD MSTORE PUSH1 0x64 ADD PUSH2 0x46D JUMP JUMPDEST PUSH1 0x0 SLOAD PUSH1 0x40 DUP1 MLOAD DUP5 DUP2 MSTORE TIMESTAMP PUSH1 0x20 DUP3 ADD MSTORE PUSH1 0x1 PUSH1 0x1 PUSH1 0xA0 SHL SUB SWAP1 SWAP3 AND SWAP2 PUSH32 0x7B4C04A6B3225FB798A519B1A97CE524A26A8B1E23AA2285E7A70768CAB85F24 SWAP2 ADD PUSH1 0x40 MLOAD DUP1 SWAP2 SUB SWAP1 LOG2 PUSH1 0x40 DUP1 MLOAD DUP4 DUP2 MSTORE TIMESTAMP PUSH1 0x20 DUP3 ADD MSTORE PUSH32 0x1DCB27F9812D159CC6EA3F1338EC78646F39B830096254199C14E2228950C1C8 SWAP2 ADD PUSH1 0x40 MLOAD DUP1 SWAP2 SUB SWAP1 LOG1 POP PUSH2 0x754 PUSH1 0x1 DUP1 SSTORE JUMP JUMPDEST POP JUMP JUMPDEST PUSH2 0x75F PUSH2 0x1063 JUMP JUMPDEST PUSH1 0x0 CALLVALUE GT PUSH2 0x7AF JUMPI PUSH1 0x40 MLOAD PUSH3 0x461BCD PUSH1 0xE5 SHL DUP2 MSTORE PUSH1 0x20 PUSH1 0x4 DUP3 ADD DUP2 SWAP1 MSTORE PUSH1 0x24 DUP3 ADD MSTORE PUSH32 0x416D6F756E74206D7573742062652067726561746572207468616E207A65726F PUSH1 0x44 DUP3 ADD MSTORE PUSH1 0x64 ADD PUSH2 0x46D JUMP JUMPDEST CALLER PUSH1 0x0 SWAP1 DUP2 MSTORE PUSH1 0x7 PUSH1 0x20 MSTORE PUSH1 0x40 DUP2 KECCAK256 DUP1 SLOAD CALLVALUE SWAP3 SWAP1 PUSH2 0x7CE SWAP1 DUP5 SWAP1 PUSH2 0x1245 JUMP JUMPDEST SWAP1 SWAP2 SSTORE POP POP PUSH1 0x40 DUP1 MLOAD CALLVALUE DUP2 MSTORE TIMESTAMP PUSH1 0x20 DUP3 ADD MSTORE CALLER SWAP2 PUSH32 0x3F7DB3CCDC06492EB9FCCA5FE34FCEE7F7DDCCA331E5053CB3534067B9A53232 SWAP2 ADD PUSH2 0x5A6 JUMP JUMPDEST PUSH1 0x3 DUP2 PUSH1 0x5 DUP2 LT PUSH2 0x81A JUMPI PUSH1 0x0 DUP1 REVERT JUMPDEST PUSH1 0x20 SWAP2 DUP3 DUP3 DIV ADD SWAP2 SWAP1 MOD SWAP2 POP SLOAD SWAP1 PUSH2 0x100 EXP SWAP1 DIV PUSH1 0xFF AND DUP2 JUMP JUMPDEST PUSH2 0x83C PUSH2 0x10BC JUMP JUMPDEST PUSH2 0x5B7 PUSH1 0x0 PUSH2 0x1116 JUMP JUMPDEST PUSH2 0x84E PUSH2 0x10BC JUMP JUMPDEST PUSH1 0x0 DUP1 JUMPDEST PUSH1 0x5 DUP2 PUSH1 0xFF AND LT ISZERO PUSH2 0x8A7 JUMPI DUP3 DUP2 PUSH1 0xFF AND PUSH1 0x5 DUP2 LT PUSH2 0x873 JUMPI PUSH2 0x873 PUSH2 0x1362 JUMP JUMPDEST PUSH1 0x20 MUL ADD PUSH1 0x20 DUP2 ADD SWAP1 PUSH2 0x886 SWAP2 SWAP1 PUSH2 0x138E JUMP JUMPDEST PUSH2 0x893 SWAP1 PUSH1 0xFF AND DUP4 PUSH2 0x13A9 JUMP JUMPDEST SWAP2 POP DUP1 PUSH2 0x89F DUP2 PUSH2 0x13CB JUMP JUMPDEST SWAP2 POP POP PUSH2 0x852 JUMP JUMPDEST POP DUP1 PUSH2 0xFFFF AND PUSH1 0x64 EQ PUSH2 0x8FC JUMPI PUSH1 0x40 MLOAD PUSH3 0x461BCD PUSH1 0xE5 SHL DUP2 MSTORE PUSH1 0x20 PUSH1 0x4 DUP3 ADD MSTORE PUSH1 0x1E PUSH1 0x24 DUP3 ADD MSTORE PUSH32 0x50657263656E7461676573206D7573742061646420757020746F203130300000 PUSH1 0x44 DUP3 ADD MSTORE PUSH1 0x64 ADD PUSH2 0x46D JUMP JUMPDEST PUSH1 0x40 DUP1 MLOAD PUSH1 0xA0 DUP2 ADD SWAP2 DUP3 SWAP1 MSTORE PUSH1 0x0 SWAP2 PUSH1 0x3 SWAP1 PUSH1 0x5 SWAP1 DUP3 DUP6 DUP6 JUMPDEST DUP3 SLOAD PUSH2 0x100 DUP4 SWAP1 EXP SWAP1 DIV PUSH1 0xFF AND DUP2 MSTORE PUSH1 0x20 PUSH1 0x1 SWAP3 DUP4 ADD DUP2 DUP2 DIV SWAP5 DUP6 ADD SWAP5 SWAP1 SWAP4 SUB SWAP1 SWAP3 MUL SWAP2 ADD DUP1 DUP5 GT PUSH2 0x915 JUMPI SWAP1 POP POP POP POP POP POP SWAP1 POP DUP3 PUSH1 0x3 SWAP1 PUSH1 0x5 PUSH2 0x95B SWAP3 SWAP2 SWAP1 PUSH2 0x1166 JUMP JUMPDEST POP PUSH32 0xD8398B26CFF3564D354793D25B095BD15773387CDF28C90D94A1AD524BDAEB7B DUP2 DUP5 PUSH1 0x40 MLOAD PUSH2 0x98D SWAP3 SWAP2 SWAP1 PUSH2 0x13EA JUMP JUMPDEST PUSH1 0x40 MLOAD DUP1 SWAP2 SUB SWAP1 LOG1 POP POP POP JUMP JUMPDEST PUSH1 0x0 PUSH3 0x93A80 PUSH1 0x5 SLOAD PUSH2 0x9AD SWAP2 SWAP1 PUSH2 0x1245 JUMP JUMPDEST SWAP1 POP SWAP1 JUMP JUMPDEST PUSH2 0x9BA PUSH2 0x11FC JUMP JUMPDEST PUSH1 0x40 DUP1 MLOAD PUSH1 0xA0 DUP2 ADD SWAP2 DUP3 SWAP1 MSTORE SWAP1 PUSH1 0x3 SWAP1 PUSH1 0x5 SWAP1 DUP3 PUSH1 0x0 DUP6 JUMPDEST DUP3 SLOAD PUSH2 0x100 DUP4 SWAP1 EXP SWAP1 DIV PUSH1 0xFF AND DUP2 MSTORE PUSH1 0x20 PUSH1 0x1 SWAP3 DUP4 ADD DUP2 DUP2 DIV SWAP5 DUP6 ADD SWAP5 SWAP1 SWAP4 SUB SWAP1 SWAP3 MUL SWAP2 ADD DUP1 DUP5 GT PUSH2 0x9D2 JUMPI SWAP1 POP POP POP POP POP POP SWAP1 POP SWAP1 JUMP JUMPDEST PUSH2 0xA12 PUSH2 0x10BC JUMP JUMPDEST PUSH1 0x0 DUP2 GT PUSH2 0xA6E JUMPI PUSH1 0x40 MLOAD PUSH3 0x461BCD PUSH1 0xE5 SHL DUP2 MSTORE PUSH1 0x20 PUSH1 0x4 DUP3 ADD MSTORE PUSH1 0x23 PUSH1 0x24 DUP3 ADD MSTORE PUSH32 0x456E74727920666565206D7573742062652067726561746572207468616E207A PUSH1 0x44 DUP3 ADD MSTORE PUSH3 0x65726F PUSH1 0xE8 SHL PUSH1 0x64 DUP3 ADD MSTORE PUSH1 0x84 ADD PUSH2 0x46D JUMP JUMPDEST PUSH1 0x2 DUP1 SLOAD SWAP1 DUP3 SWAP1 SSTORE PUSH1 0x40 DUP1 MLOAD DUP3 DUP2 MSTORE PUSH1 0x20 DUP2 ADD DUP5 SWAP1 MSTORE PUSH32 0x6A75D918A59DA9597A749B7C707F23CFA76552074B43C68A24A21DB1C45841F1 SWAP2 ADD PUSH1 0x40 MLOAD DUP1 SWAP2 SUB SWAP1 LOG1 POP POP JUMP JUMPDEST PUSH2 0xABB PUSH2 0x10BC JUMP JUMPDEST PUSH1 0x1 PUSH1 0x1 PUSH1 0xA0 SHL SUB DUP2 AND PUSH2 0xB20 JUMPI PUSH1 0x40 MLOAD PUSH3 0x461BCD PUSH1 0xE5 SHL DUP2 MSTORE PUSH1 0x20 PUSH1 0x4 DUP3 ADD MSTORE PUSH1 0x26 PUSH1 0x24 DUP3 ADD MSTORE PUSH32 0x4F776E61626C653A206E6577206F776E657220697320746865207A65726F2061 PUSH1 0x44 DUP3 ADD MSTORE PUSH6 0x646472657373 PUSH1 0xD0 SHL PUSH1 0x64 DUP3 ADD MSTORE PUSH1 0x84 ADD PUSH2 0x46D JUMP JUMPDEST PUSH2 0x754 DUP2 PUSH2 0x1116 JUMP JUMPDEST PUSH2 0xB31 PUSH2 0x10BC JUMP JUMPDEST PUSH2 0xB39 PUSH2 0x1063 JUMP JUMPDEST PUSH1 0x0 PUSH1 0x4 SLOAD GT PUSH2 0xB8B JUMPI PUSH1 0x40 MLOAD PUSH3 0x461BCD PUSH1 0xE5 SHL DUP2 MSTORE PUSH1 0x20 PUSH1 0x4 DUP3 ADD MSTORE PUSH1 0x17 PUSH1 0x24 DUP3 ADD MSTORE PUSH32 0x4E6F207072697A657320746F2064697374726962757465000000000000000000 PUSH1 0x44 DUP3 ADD MSTORE PUSH1 0x64 ADD PUSH2 0x46D JUMP JUMPDEST PUSH1 0x0 JUMPDEST PUSH1 0x5 DUP2 PUSH1 0xFF AND LT ISZERO PUSH2 0xD03 JUMPI PUSH1 0x0 DUP3 PUSH1 0xFF DUP4 AND PUSH1 0x5 DUP2 LT PUSH2 0xBB1 JUMPI PUSH2 0xBB1 PUSH2 0x1362 JUMP JUMPDEST PUSH1 0x20 MUL ADD PUSH1 0x20 DUP2 ADD SWAP1 PUSH2 0xBC4 SWAP2 SWAP1 PUSH2 0x1277 JUMP JUMPDEST PUSH1 0x1 PUSH1 0x1 PUSH1 0xA0 SHL SUB AND SUB PUSH2 0xC13 JUMPI PUSH1 0x40 MLOAD PUSH3 0x461BCD PUSH1 0xE5 SHL DUP2 MSTORE PUSH1 0x20 PUSH1 0x4 DUP3 ADD MSTORE PUSH1 0x16 PUSH1 0x24 DUP3 ADD MSTORE PUSH22 0x496E76616C69642077696E6E65722061646472657373 PUSH1 0x50 SHL PUSH1 0x44 DUP3 ADD MSTORE PUSH1 0x64 ADD PUSH2 0x46D JUMP JUMPDEST PUSH1 0x0 PUSH2 0xC20 DUP3 PUSH1 0x1 PUSH2 0x1435 JUMP JUMPDEST SWAP1 POP JUMPDEST PUSH1 0x5 DUP2 PUSH1 0xFF AND LT ISZERO PUSH2 0xCF0 JUMPI DUP3 DUP2 PUSH1 0xFF AND PUSH1 0x5 DUP2 LT PUSH2 0xC44 JUMPI PUSH2 0xC44 PUSH2 0x1362 JUMP JUMPDEST PUSH1 0x20 MUL ADD PUSH1 0x20 DUP2 ADD SWAP1 PUSH2 0xC57 SWAP2 SWAP1 PUSH2 0x1277 JUMP JUMPDEST PUSH1 0x1 PUSH1 0x1 PUSH1 0xA0 SHL SUB AND DUP4 DUP4 PUSH1 0xFF AND PUSH1 0x5 DUP2 LT PUSH2 0xC75 JUMPI PUSH2 0xC75 PUSH2 0x1362 JUMP JUMPDEST PUSH1 0x20 MUL ADD PUSH1 0x20 DUP2 ADD SWAP1 PUSH2 0xC88 SWAP2 SWAP1 PUSH2 0x1277 JUMP JUMPDEST PUSH1 0x1 PUSH1 0x1 PUSH1 0xA0 SHL SUB AND SUB PUSH2 0xCDE JUMPI PUSH1 0x40 MLOAD PUSH3 0x461BCD PUSH1 0xE5 SHL DUP2 MSTORE PUSH1 0x20 PUSH1 0x4 DUP3 ADD MSTORE PUSH1 0x18 PUSH1 0x24 DUP3 ADD MSTORE PUSH32 0x4475706C69636174652077696E6E657220616464726573730000000000000000 PUSH1 0x44 DUP3 ADD MSTORE PUSH1 0x64 ADD PUSH2 0x46D JUMP JUMPDEST DUP1 PUSH2 0xCE8 DUP2 PUSH2 0x13CB JUMP JUMPDEST SWAP2 POP POP PUSH2 0xC23 JUMP JUMPDEST POP DUP1 PUSH2 0xCFB DUP2 PUSH2 0x13CB JUMP JUMPDEST SWAP2 POP POP PUSH2 0xB8E JUMP JUMPDEST POP PUSH1 0x4 SLOAD PUSH2 0xD0F PUSH2 0x11FC JUMP JUMPDEST PUSH1 0x0 DUP1 JUMPDEST PUSH1 0x4 DUP2 PUSH1 0xFF AND LT ISZERO PUSH2 0xDB2 JUMPI PUSH1 0x64 PUSH1 0x3 DUP3 PUSH1 0xFF AND PUSH1 0x5 DUP2 LT PUSH2 0xD37 JUMPI PUSH2 0xD37 PUSH2 0x1362 JUMP JUMPDEST PUSH1 0x20 DUP2 DIV SWAP2 SWAP1 SWAP2 ADD SLOAD PUSH2 0xD56 SWAP2 PUSH1 0x1F AND PUSH2 0x100 EXP SWAP1 DIV PUSH1 0xFF AND DUP7 PUSH2 0x134B JUMP JUMPDEST PUSH2 0xD60 SWAP2 SWAP1 PUSH2 0x1337 JUMP JUMPDEST DUP4 DUP3 PUSH1 0xFF AND PUSH1 0x5 DUP2 LT PUSH2 0xD75 JUMPI PUSH2 0xD75 PUSH2 0x1362 JUMP JUMPDEST PUSH1 0x20 MUL ADD MSTORE DUP3 PUSH1 0xFF DUP3 AND PUSH1 0x5 DUP2 LT PUSH2 0xD8F JUMPI PUSH2 0xD8F PUSH2 0x1362 JUMP JUMPDEST PUSH1 0x20 MUL ADD MLOAD PUSH2 0xD9E SWAP1 DUP4 PUSH2 0x1245 JUMP JUMPDEST SWAP2 POP DUP1 PUSH2 0xDAA DUP2 PUSH2 0x13CB JUMP JUMPDEST SWAP2 POP POP PUSH2 0xD13 JUMP JUMPDEST POP PUSH2 0xDBD DUP2 DUP5 PUSH2 0x130E JUMP JUMPDEST PUSH1 0x80 DUP4 ADD MSTORE PUSH1 0x0 JUMPDEST PUSH1 0x5 DUP2 PUSH1 0xFF AND LT ISZERO PUSH2 0xFA1 JUMPI PUSH1 0x0 DUP4 DUP3 PUSH1 0xFF AND PUSH1 0x5 DUP2 LT PUSH2 0xDE8 JUMPI PUSH2 0xDE8 PUSH2 0x1362 JUMP JUMPDEST PUSH1 0x20 MUL ADD MLOAD GT ISZERO PUSH2 0xF8F JUMPI DUP3 DUP2 PUSH1 0xFF AND PUSH1 0x5 DUP2 LT PUSH2 0xE08 JUMPI PUSH2 0xE08 PUSH2 0x1362 JUMP JUMPDEST PUSH1 0x20 MUL ADD MLOAD PUSH1 0x7 PUSH1 0x0 DUP8 DUP5 PUSH1 0xFF AND PUSH1 0x5 DUP2 LT PUSH2 0xE26 JUMPI PUSH2 0xE26 PUSH2 0x1362 JUMP JUMPDEST PUSH1 0x20 MUL ADD PUSH1 0x20 DUP2 ADD SWAP1 PUSH2 0xE39 SWAP2 SWAP1 PUSH2 0x1277 JUMP JUMPDEST PUSH1 0x1 PUSH1 0x1 PUSH1 0xA0 SHL SUB AND PUSH1 0x1 PUSH1 0x1 PUSH1 0xA0 SHL SUB AND DUP2 MSTORE PUSH1 0x20 ADD SWAP1 DUP2 MSTORE PUSH1 0x20 ADD PUSH1 0x0 KECCAK256 PUSH1 0x0 DUP3 DUP3 SLOAD PUSH2 0xE68 SWAP2 SWAP1 PUSH2 0x1245 JUMP JUMPDEST SWAP1 SWAP2 SSTORE POP DUP6 SWAP1 POP PUSH1 0xFF DUP3 AND PUSH1 0x5 DUP2 LT PUSH2 0xE83 JUMPI PUSH2 0xE83 PUSH2 0x1362 JUMP JUMPDEST PUSH1 0x20 MUL ADD PUSH1 0x20 DUP2 ADD SWAP1 PUSH2 0xE96 SWAP2 SWAP1 PUSH2 0x1277 JUMP JUMPDEST PUSH1 0x1 PUSH1 0x1 PUSH1 0xA0 SHL SUB AND PUSH32 0x7B4C04A6B3225FB798A519B1A97CE524A26A8B1E23AA2285E7A70768CAB85F24 DUP5 DUP4 PUSH1 0xFF AND PUSH1 0x5 DUP2 LT PUSH2 0xED5 JUMPI PUSH2 0xED5 PUSH2 0x1362 JUMP JUMPDEST PUSH1 0x20 MUL ADD MLOAD TIMESTAMP PUSH1 0x40 MLOAD PUSH2 0xEF2 SWAP3 SWAP2 SWAP1 SWAP2 DUP3 MSTORE PUSH1 0x20 DUP3 ADD MSTORE PUSH1 0x40 ADD SWAP1 JUMP JUMPDEST PUSH1 0x40 MLOAD DUP1 SWAP2 SUB SWAP1 LOG2 PUSH1 0x6 SLOAD DUP6 DUP3 PUSH1 0xFF AND PUSH1 0x5 DUP2 LT PUSH2 0xF12 JUMPI PUSH2 0xF12 PUSH2 0x1362 JUMP JUMPDEST PUSH1 0x20 MUL ADD PUSH1 0x20 DUP2 ADD SWAP1 PUSH2 0xF25 SWAP2 SWAP1 PUSH2 0x1277 JUMP JUMPDEST PUSH1 0x1 PUSH1 0x1 PUSH1 0xA0 SHL SUB AND PUSH32 0x975B964C87063CC8A663BDA95ACAFCC123CBD152264733E49DE21A70E9C1BB22 DUP6 DUP5 PUSH1 0xFF AND PUSH1 0x5 DUP2 LT PUSH2 0xF64 JUMPI PUSH2 0xF64 PUSH2 0x1362 JUMP JUMPDEST PUSH1 0x20 MUL ADD MLOAD PUSH2 0xF74 DUP6 PUSH1 0x1 PUSH2 0x1435 JUMP JUMPDEST PUSH1 0x40 DUP1 MLOAD SWAP3 DUP4 MSTORE PUSH1 0xFF SWAP1 SWAP2 AND PUSH1 0x20 DUP4 ADD MSTORE ADD PUSH1 0x40 MLOAD DUP1 SWAP2 SUB SWAP1 LOG3 JUMPDEST DUP1 PUSH2 0xF99 DUP2 PUSH2 0x13CB JUMP JUMPDEST SWAP2 POP POP PUSH2 0xDC5 JUMP JUMPDEST POP PUSH1 0x4 DUP1 SLOAD PUSH1 0x0 SWAP2 DUP3 SWAP1 SSTORE PUSH1 0x6 DUP1 SLOAD SWAP2 SWAP3 PUSH1 0x1 SWAP3 PUSH2 0xFC0 SWAP1 DUP5 SWAP1 PUSH2 0x1245 JUMP JUMPDEST SWAP1 SWAP2 SSTORE POP POP TIMESTAMP PUSH1 0x5 DUP2 SWAP1 SSTORE PUSH1 0x0 SWAP1 PUSH1 0x7 SWAP1 PUSH2 0xFDF SWAP1 PUSH3 0x15180 SWAP1 PUSH2 0x1337 JUMP JUMPDEST PUSH2 0xFEA SWAP1 PUSH1 0x4 PUSH2 0x1245 JUMP JUMPDEST PUSH2 0xFF4 SWAP2 SWAP1 PUSH2 0x144E JUMP JUMPDEST SWAP1 POP PUSH2 0x1003 DUP2 PUSH3 0x15180 PUSH2 0x134B JUMP JUMPDEST PUSH1 0x5 SLOAD PUSH2 0x1010 SWAP2 SWAP1 PUSH2 0x130E JUMP JUMPDEST PUSH1 0x5 SSTORE PUSH1 0x6 SLOAD PUSH2 0x1022 SWAP1 PUSH1 0x1 SWAP1 PUSH2 0x130E JUMP JUMPDEST PUSH1 0x40 MLOAD DUP4 DUP2 MSTORE PUSH32 0xD84108459AE28F4111F3C851DEE576040E08F18D76D1DC82F0094ABE275B1152 SWAP1 PUSH1 0x20 ADD PUSH1 0x40 MLOAD DUP1 SWAP2 SUB SWAP1 LOG2 POP POP POP POP POP PUSH2 0x754 PUSH1 0x1 DUP1 SSTORE JUMP JUMPDEST PUSH1 0x2 PUSH1 0x1 SLOAD SUB PUSH2 0x10B5 JUMPI PUSH1 0x40 MLOAD PUSH3 0x461BCD PUSH1 0xE5 SHL DUP2 MSTORE PUSH1 0x20 PUSH1 0x4 DUP3 ADD MSTORE PUSH1 0x1F PUSH1 0x24 DUP3 ADD MSTORE PUSH32 0x5265656E7472616E637947756172643A207265656E7472616E742063616C6C00 PUSH1 0x44 DUP3 ADD MSTORE PUSH1 0x64 ADD PUSH2 0x46D JUMP JUMPDEST PUSH1 0x2 PUSH1 0x1 SSTORE JUMP JUMPDEST PUSH1 0x0 SLOAD PUSH1 0x1 PUSH1 0x1 PUSH1 0xA0 SHL SUB AND CALLER EQ PUSH2 0x5B7 JUMPI PUSH1 0x40 MLOAD PUSH3 0x461BCD PUSH1 0xE5 SHL DUP2 MSTORE PUSH1 0x20 PUSH1 0x4 DUP3 ADD DUP2 SWAP1 MSTORE PUSH1 0x24 DUP3 ADD MSTORE PUSH32 0x4F776E61626C653A2063616C6C6572206973206E6F7420746865206F776E6572 PUSH1 0x44 DUP3 ADD MSTORE PUSH1 0x64 ADD PUSH2 0x46D JUMP JUMPDEST PUSH1 0x0 DUP1 SLOAD PUSH1 0x1 PUSH1 0x1 PUSH1 0xA0 SHL SUB DUP4 DUP2 AND PUSH1 0x1 PUSH1 0x1 PUSH1 0xA0 SHL SUB NOT DUP4 AND DUP2 OR DUP5 SSTORE PUSH1 0x40 MLOAD SWAP2 SWAP1 SWAP3 AND SWAP3 DUP4 SWAP2 PUSH32 0x8BE0079C531659141344CD1FD0A4F28419497F9722A3DAAFE3B4186F6B6457E0 SWAP2 SWAP1 LOG3 POP POP JUMP JUMPDEST PUSH1 0x1 DUP4 ADD SWAP2 DUP4 SWAP1 DUP3 ISZERO PUSH2 0x11EC JUMPI SWAP2 PUSH1 0x20 MUL DUP3 ADD PUSH1 0x0 JUMPDEST DUP4 DUP3 GT ISZERO PUSH2 0x11BD JUMPI DUP4 CALLDATALOAD PUSH1 0xFF AND DUP4 DUP3 PUSH2 0x100 EXP DUP2 SLOAD DUP2 PUSH1 0xFF MUL NOT AND SWAP1 DUP4 PUSH1 0xFF AND MUL OR SWAP1 SSTORE POP SWAP3 PUSH1 0x20 ADD SWAP3 PUSH1 0x1 ADD PUSH1 0x20 DUP2 PUSH1 0x0 ADD DIV SWAP3 DUP4 ADD SWAP3 PUSH1 0x1 SUB MUL PUSH2 0x117C JUMP JUMPDEST DUP1 ISZERO PUSH2 0x11EA JUMPI DUP3 DUP2 PUSH2 0x100 EXP DUP2 SLOAD SWAP1 PUSH1 0xFF MUL NOT AND SWAP1 SSTORE PUSH1 0x1 ADD PUSH1 0x20 DUP2 PUSH1 0x0 ADD DIV SWAP3 DUP4 ADD SWAP3 PUSH1 0x1 SUB MUL PUSH2 0x11BD JUMP JUMPDEST POP JUMPDEST POP PUSH2 0x11F8 SWAP3 SWAP2 POP PUSH2 0x121A JUMP JUMPDEST POP SWAP1 JUMP JUMPDEST PUSH1 0x40 MLOAD DUP1 PUSH1 0xA0 ADD PUSH1 0x40 MSTORE DUP1 PUSH1 0x5 SWAP1 PUSH1 0x20 DUP3 MUL DUP1 CALLDATASIZE DUP4 CALLDATACOPY POP SWAP2 SWAP3 SWAP2 POP POP JUMP JUMPDEST JUMPDEST DUP1 DUP3 GT ISZERO PUSH2 0x11F8 JUMPI PUSH1 0x0 DUP2 SSTORE PUSH1 0x1 ADD PUSH2 0x121B JUMP JUMPDEST PUSH4 0x4E487B71 PUSH1 0xE0 SHL PUSH1 0x0 MSTORE PUSH1 0x11 PUSH1 0x4 MSTORE PUSH1 0x24 PUSH1 0x0 REVERT JUMPDEST DUP1 DUP3 ADD DUP1 DUP3 GT ISZERO PUSH2 0x1258 JUMPI PUSH2 0x1258 PUSH2 0x122F JUMP JUMPDEST SWAP3 SWAP2 POP POP JUMP JUMPDEST PUSH1 0x0 PUSH1 0x20 DUP3 DUP5 SUB SLT ISZERO PUSH2 0x1270 JUMPI PUSH1 0x0 DUP1 REVERT JUMPDEST POP CALLDATALOAD SWAP2 SWAP1 POP JUMP JUMPDEST PUSH1 0x0 PUSH1 0x20 DUP3 DUP5 SUB SLT ISZERO PUSH2 0x1289 JUMPI PUSH1 0x0 DUP1 REVERT JUMPDEST DUP2 CALLDATALOAD PUSH1 0x1 PUSH1 0x1 PUSH1 0xA0 SHL SUB DUP2 AND DUP2 EQ PUSH2 0x12A0 JUMPI PUSH1 0x0 DUP1 REVERT JUMPDEST SWAP4 SWAP3 POP POP POP JUMP JUMPDEST DUP1 PUSH1 0xA0 DUP2 ADD DUP4 LT ISZERO PUSH2 0x1258 JUMPI PUSH1 0x0 DUP1 REVERT JUMPDEST PUSH1 0x0 PUSH1 0xA0 DUP3 DUP5 SUB SLT ISZERO PUSH2 0x12CA JUMPI PUSH1 0x0 DUP1 REVERT JUMPDEST PUSH2 0x12A0 DUP4 DUP4 PUSH2 0x12A7 JUMP JUMPDEST DUP1 PUSH1 0x0 JUMPDEST PUSH1 0x5 DUP2 LT ISZERO PUSH2 0x12FA JUMPI DUP2 MLOAD PUSH1 0xFF AND DUP5 MSTORE PUSH1 0x20 SWAP4 DUP5 ADD SWAP4 SWAP1 SWAP2 ADD SWAP1 PUSH1 0x1 ADD PUSH2 0x12D8 JUMP JUMPDEST POP POP POP POP JUMP JUMPDEST PUSH1 0xA0 DUP2 ADD PUSH2 0x1258 DUP3 DUP5 PUSH2 0x12D4 JUMP JUMPDEST DUP2 DUP2 SUB DUP2 DUP2 GT ISZERO PUSH2 0x1258 JUMPI PUSH2 0x1258 PUSH2 0x122F JUMP JUMPDEST PUSH4 0x4E487B71 PUSH1 0xE0 SHL PUSH1 0x0 MSTORE PUSH1 0x12 PUSH1 0x4 MSTORE PUSH1 0x24 PUSH1 0x0 REVERT JUMPDEST PUSH1 0x0 DUP3 PUSH2 0x1346 JUMPI PUSH2 0x1346 PUSH2 0x1321 JUMP JUMPDEST POP DIV SWAP1 JUMP JUMPDEST DUP1 DUP3 MUL DUP2 ISZERO DUP3 DUP3 DIV DUP5 EQ OR PUSH2 0x1258 JUMPI PUSH2 0x1258 PUSH2 0x122F JUMP JUMPDEST PUSH4 0x4E487B71 PUSH1 0xE0 SHL PUSH1 0x0 MSTORE PUSH1 0x32 PUSH1 0x4 MSTORE PUSH1 0x24 PUSH1 0x0 REVERT JUMPDEST DUP1 CALLDATALOAD PUSH1 0xFF DUP2 AND DUP2 EQ PUSH2 0x1389 JUMPI PUSH1 0x0 DUP1 REVERT JUMPDEST SWAP2 SWAP1 POP JUMP JUMPDEST PUSH1 0x0 PUSH1 0x20 DUP3 DUP5 SUB SLT ISZERO PUSH2 0x13A0 JUMPI PUSH1 0x0 DUP1 REVERT JUMPDEST PUSH2 0x12A0 DUP3 PUSH2 0x1378 JUMP JUMPDEST PUSH2 0xFFFF DUP2 DUP2 AND DUP4 DUP3 AND ADD SWAP1 DUP1 DUP3 GT ISZERO PUSH2 0x13C4 JUMPI PUSH2 0x13C4 PUSH2 0x122F JUMP JUMPDEST POP SWAP3 SWAP2 POP POP JUMP JUMPDEST PUSH1 0x0 PUSH1 0xFF DUP3 AND PUSH1 0xFF DUP2 SUB PUSH2 0x13E1 JUMPI PUSH2 0x13E1 PUSH2 0x122F JUMP JUMPDEST PUSH1 0x1 ADD SWAP3 SWAP2 POP POP JUMP JUMPDEST PUSH2 0x140 DUP2 ADD PUSH2 0x13F9 DUP3 DUP6 PUSH2 0x12D4 JUMP JUMPDEST PUSH1 0xA0 DUP3 ADD DUP4 PUSH1 0x0 JUMPDEST PUSH1 0x5 DUP2 LT ISZERO PUSH2 0x142B JUMPI PUSH1 0xFF PUSH2 0x1415 DUP4 PUSH2 0x1378 JUMP JUMPDEST AND DUP4 MSTORE PUSH1 0x20 SWAP3 DUP4 ADD SWAP3 SWAP2 SWAP1 SWAP2 ADD SWAP1 PUSH1 0x1 ADD PUSH2 0x1401 JUMP JUMPDEST POP POP POP SWAP4 SWAP3 POP POP POP JUMP JUMPDEST PUSH1 0xFF DUP2 DUP2 AND DUP4 DUP3 AND ADD SWAP1 DUP2 GT ISZERO PUSH2 0x1258 JUMPI PUSH2 0x1258 PUSH2 0x122F JUMP JUMPDEST PUSH1 0x0 DUP3 PUSH2 0x145D JUMPI PUSH2 0x145D PUSH2 0x1321 JUMP JUMPDEST POP MOD SWAP1 JUMP INVALID LOG2 PUSH5 0x6970667358 0x22 SLT KECCAK256 SWAP2 0x4B 0x4F SDIV PUSH1 0x60 PUSH11 0x9FF2F8F842AA198D80060B CHAINID CALLCODE MULMOD PUSH20 0xF51BCA4E5A570C4F019364736F6C634300081300 CALLER "},"methodIdentifiers":{"SEASON_DURATION()":"dc185e35","currentSeason()":"bcb39621","depositEth()":"439370b1","endSeason(address[5])":"fa5b1a7f","enterGame()":"218bd577","entryFee()":"072ea61c","getCurrentSeasonEndTime()":"ab2a79f9","getPrizeDistribution()":"cbd3f962","owner()":"8da5cb5b","ownerWithdraw(uint256)":"33f707d1","playerBalances(address)":"7b38314c","prizeDistribution(uint256)":"54c237b7","renounceOwnership()":"715018a6","seasonStartTime()":"8104ae4d","setDistribution(uint8[5])":"8d667564","setEntryFee(uint256)":"eb770d0c","transferOwnership(address)":"f2fde38b","weeklyPrizePool()":"7971999a"}}}}}