{"contracts/ReentrancyAttacker.sol":{"ReentrancyAttacker":{"abi":[{"inputs":[{"internalType":"address","name":"_token","type":"address"},{"internalType":"address","name":"_gameContract","type":"address"}],"stateMutability":"nonpayable","type":"constructor"},{"anonymous":false,"inputs":[{"indexed":false,"internalType":"bool","name":"success","type":"bool"}],"name":"AttackExecuted","type":"event"},{"anonymous":false,"inputs":[{"indexed":false,"internalType":"uint256","name":"count","type":"uint256"}],"name":"RecursiveCallAttempted","type":"event"},{"anonymous":false,"inputs":[{"indexed":false,"internalType":"uint256","name":"amount","type":"uint256"}],"name":"TokensReceived","type":"event"},{"inputs":[{"internalType":"uint256","name":"amount","type":"uint256"}],"name":"attack","outputs":[],"stateMutability":"nonpayable","type":"function"},{"inputs":[],"name":"attackCount","outputs":[{"internalType":"uint256","name":"","type":"uint256"}],"stateMutability":"view","type":"function"},{"inputs":[],"name":"attacking","outputs":[{"internalType":"bool","name":"","type":"bool"}],"stateMutability":"view","type":"function"},{"inputs":[{"internalType":"uint256","name":"amount","type":"uint256"}],"name":"fundAttacker","outputs":[],"stateMutability":"nonpayable","type":"function"},{"inputs":[],"name":"gameContract","outputs":[{"internalType":"contract ITetriSeedGame","name":"","type":"address"}],"stateMutability":"view","type":"function"},{"inputs":[],"name":"owner","outputs":[{"internalType":"address","name":"","type":"address"}],"stateMutability":"view","type":"function"},{"inputs":[],"name":"token","outputs":[{"internalType":"contract IERC20","name":"","type":"address"}],"stateMutability":"view","type":"function"},{"inputs":[],"name":"withdrawTokens","outputs":[],"stateMutability":"nonpayable","type":"function"},{"stateMutability":"payable","type":"receive"}],"evm":{"bytecode":{"linkReferences":{},"object":"608060405234801561001057600080fd5b50604051610ab3380380610ab383398101604081905261002f9161009c565b600080546001600160a01b03199081166001600160a01b03948516178255600180549091169290931691909117909155600280546001600160a81b0319163360ff60a01b19161790556003556100cf565b80516001600160a01b038116811461009757600080fd5b919050565b600080604083850312156100af57600080fd5b6100b883610080565b91506100c660208401610080565b90509250929050565b6109d5806100de6000396000f3fe60806040526004361061007f5760003560e01c80638d8f2adb1161004e5780638d8f2adb146101ea5780638da5cb5b146101ff578063d3f3300914610237578063fc0c546a1461025757600080fd5b80633c0bbcd914610150578063407c28211461018657806364dd891a146101aa578063699151e6146101ca57600080fd5b3661014b57600254600160a01b900460ff1615610149577fc85f5e393c40c7a10e1348c83b620bada0d8ed544935cadc756ed034c44c91856003600081546100c6906108aa565b918290555060405190815260200160405180910390a160038054101561014957600160009054906101000a90046001600160a01b03166001600160a01b031663218bd5776040518163ffffffff1660e01b8152600401600060405180830381600087803b15801561013657600080fd5b505af1925050508015610147575060015b505b005b600080fd5b34801561015c57600080fd5b5060025461017190600160a01b900460ff1681565b60405190151581526020015b60405180910390f35b34801561019257600080fd5b5061019c60035481565b60405190815260200161017d565b3480156101b657600080fd5b506101496101c53660046108d1565b610277565b3480156101d657600080fd5b506101496101e53660046108d1565b6104f8565b3480156101f657600080fd5b50610149610513565b34801561020b57600080fd5b5060025461021f906001600160a01b031681565b6040516001600160a01b03909116815260200161017d565b34801561024357600080fd5b5060015461021f906001600160a01b031681565b34801561026357600080fd5b5060005461021f906001600160a01b031681565b6000546040516370a0823160e01b815230600482015282916001600160a01b0316906370a0823190602401602060405180830381865afa1580156102bf573d6000803e3d6000fd5b505050506040513d601f19601f820116820180604052508101906102e391906108ea565b101561032a5760405162461bcd60e51b81526020600482015260116024820152704e6f7420656e6f75676820746f6b656e7360781b60448201526064015b60405180910390fd5b60005460015460405163095ea7b360e01b81526001600160a01b0391821660048201526024810184905291169063095ea7b3906044016020604051808303816000875af115801561037f573d6000803e3d6000fd5b505050506040513d601f19601f820116820180604052508101906103a39190610903565b506002805460ff60a01b1916600160a01b1790556000600355600154604051636ea4bab760e11b8152600481018390526001600160a01b039091169063dd49756e90602401600060405180830381600087803b15801561040257600080fd5b505af1158015610416573d6000803e3d6000fd5b50505050600160009054906101000a90046001600160a01b03166001600160a01b031663218bd5776040518163ffffffff1660e01b8152600401600060405180830381600087803b15801561046a57600080fd5b505af192505050801561047b575060015b6104b457604051600081527f2170d2a262726efbde60958ad98eff9c4f3ca4920d2ce44f5b6481128bd0b49d9060200160405180910390a15b6002805460ff60a01b19169055604051600181527f2170d2a262726efbde60958ad98eff9c4f3ca4920d2ce44f5b6481128bd0b49d9060200160405180910390a150565b600054610510906001600160a01b031633308461059f565b50565b600080546040516370a0823160e01b81523060048201526001600160a01b03909116906370a0823190602401602060405180830381865afa15801561055c573d6000803e3d6000fd5b505050506040513d601f19601f8201168201806040525081019061058091906108ea565b9050801561051057600054610510906001600160a01b03163383610610565b6040516001600160a01b038085166024830152831660448201526064810182905261060a9085906323b872dd60e01b906084015b60408051601f198184030181529190526020810180516001600160e01b03166001600160e01b031990931692909217909152610645565b50505050565b6040516001600160a01b03831660248201526044810182905261064090849063a9059cbb60e01b906064016105d3565b505050565b600061069a826040518060400160405280602081526020017f5361666545524332303a206c6f772d6c6576656c2063616c6c206661696c6564815250856001600160a01b031661071a9092919063ffffffff16565b90508051600014806106bb5750808060200190518101906106bb9190610903565b6106405760405162461bcd60e51b815260206004820152602a60248201527f5361666545524332303a204552433230206f7065726174696f6e20646964206e6044820152691bdd081cdd58d8d9595960b21b6064820152608401610321565b60606107298484600085610731565b949350505050565b6060824710156107925760405162461bcd60e51b815260206004820152602660248201527f416464726573733a20696e73756666696369656e742062616c616e636520666f6044820152651c8818d85b1b60d21b6064820152608401610321565b600080866001600160a01b031685876040516107ae9190610950565b60006040518083038185875af1925050503d80600081146107eb576040519150601f19603f3d011682016040523d82523d6000602084013e6107f0565b606091505b50915091506108018783838761080c565b979650505050505050565b6060831561087b578251600003610874576001600160a01b0385163b6108745760405162461bcd60e51b815260206004820152601d60248201527f416464726573733a2063616c6c20746f206e6f6e2d636f6e74726163740000006044820152606401610321565b5081610729565b61072983838151156108905781518083602001fd5b8060405162461bcd60e51b8152600401610321919061096c565b6000600182016108ca57634e487b7160e01b600052601160045260246000fd5b5060010190565b6000602082840312156108e357600080fd5b5035919050565b6000602082840312156108fc57600080fd5b5051919050565b60006020828403121561091557600080fd5b8151801515811461092557600080fd5b9392505050565b60005b8381101561094757818101518382015260200161092f565b50506000910152565b6000825161096281846020870161092c565b9190910192915050565b602081526000825180602084015261098b81604085016020870161092c565b601f01601f1916919091016040019291505056fea26469706673582212207ee763b116a527482acaf1fc7baf23688c87439d3d1ac81a875398de952f08f064736f6c63430008130033","opcodes":"PUSH1 0x80 PUSH1 0x40 MSTORE CALLVALUE DUP1 ISZERO PUSH2 0x10 JUMPI PUSH1 0x0 DUP1 REVERT JUMPDEST POP PUSH1 0x40 MLOAD PUSH2 0xAB3 CODESIZE SUB DUP1 PUSH2 0xAB3 DUP4 CODECOPY DUP2 ADD PUSH1 0x40 DUP2 SWAP1 MSTORE PUSH2 0x2F SWAP2 PUSH2 0x9C JUMP JUMPDEST PUSH1 0x0 DUP1 SLOAD PUSH1 0x1 PUSH1 0x1 PUSH1 0xA0 SHL SUB NOT SWAP1 DUP2 AND PUSH1 0x1 PUSH1 0x1 PUSH1 0xA0 SHL SUB SWAP5 DUP6 AND OR DUP3 SSTORE PUSH1 0x1 DUP1 SLOAD SWAP1 SWAP2 AND SWAP3 SWAP1 SWAP4 AND SWAP2 SWAP1 SWAP2 OR SWAP1 SWAP2 SSTORE PUSH1 0x2 DUP1 SLOAD PUSH1 0x1 PUSH1 0x1 PUSH1 0xA8 SHL SUB NOT AND CALLER PUSH1 0xFF PUSH1 0xA0 SHL NOT AND OR SWAP1 SSTORE PUSH1 0x3 SSTORE PUSH2 0xCF JUMP JUMPDEST DUP1 MLOAD PUSH1 0x1 PUSH1 0x1 PUSH1 0xA0 SHL SUB DUP2 AND DUP2 EQ PUSH2 0x97 JUMPI PUSH1 0x0 DUP1 REVERT JUMPDEST SWAP2 SWAP1 POP JUMP JUMPDEST PUSH1 0x0 DUP1 PUSH1 0x40 DUP4 DUP6 SUB SLT ISZERO PUSH2 0xAF JUMPI PUSH1 0x0 DUP1 REVERT JUMPDEST PUSH2 0xB8 DUP4 PUSH2 0x80 JUMP JUMPDEST SWAP2 POP PUSH2 0xC6 PUSH1 0x20 DUP5 ADD PUSH2 0x80 JUMP JUMPDEST SWAP1 POP SWAP3 POP SWAP3 SWAP1 POP JUMP JUMPDEST PUSH2 0x9D5 DUP1 PUSH2 0xDE PUSH1 0x0 CODECOPY PUSH1 0x0 RETURN INVALID PUSH1 0x80 PUSH1 0x40 MSTORE PUSH1 0x4 CALLDATASIZE LT PUSH2 0x7F JUMPI PUSH1 0x0 CALLDATALOAD PUSH1 0xE0 SHR DUP1 PUSH4 0x8D8F2ADB GT PUSH2 0x4E JUMPI DUP1 PUSH4 0x8D8F2ADB EQ PUSH2 0x1EA JUMPI DUP1 PUSH4 0x8DA5CB5B EQ PUSH2 0x1FF JUMPI DUP1 PUSH4 0xD3F33009 EQ PUSH2 0x237 JUMPI DUP1 PUSH4 0xFC0C546A EQ PUSH2 0x257 JUMPI PUSH1 0x0 DUP1 REVERT JUMPDEST DUP1 PUSH4 0x3C0BBCD9 EQ PUSH2 0x150 JUMPI DUP1 PUSH4 0x407C2821 EQ PUSH2 0x186 JUMPI DUP1 PUSH4 0x64DD891A EQ PUSH2 0x1AA JUMPI DUP1 PUSH4 0x699151E6 EQ PUSH2 0x1CA JUMPI PUSH1 0x0 DUP1 REVERT JUMPDEST CALLDATASIZE PUSH2 0x14B JUMPI PUSH1 0x2 SLOAD PUSH1 0x1 PUSH1 0xA0 SHL SWAP1 DIV PUSH1 0xFF AND ISZERO PUSH2 0x149 JUMPI PUSH32 0xC85F5E393C40C7A10E1348C83B620BADA0D8ED544935CADC756ED034C44C9185 PUSH1 0x3 PUSH1 0x0 DUP2 SLOAD PUSH2 0xC6 SWAP1 PUSH2 0x8AA JUMP JUMPDEST SWAP2 DUP3 SWAP1 SSTORE POP PUSH1 0x40 MLOAD SWAP1 DUP2 MSTORE PUSH1 0x20 ADD PUSH1 0x40 MLOAD DUP1 SWAP2 SUB SWAP1 LOG1 PUSH1 0x3 DUP1 SLOAD LT ISZERO PUSH2 0x149 JUMPI PUSH1 0x1 PUSH1 0x0 SWAP1 SLOAD SWAP1 PUSH2 0x100 EXP SWAP1 DIV PUSH1 0x1 PUSH1 0x1 PUSH1 0xA0 SHL SUB AND PUSH1 0x1 PUSH1 0x1 PUSH1 0xA0 SHL SUB AND PUSH4 0x218BD577 PUSH1 0x40 MLOAD DUP2 PUSH4 0xFFFFFFFF AND PUSH1 0xE0 SHL DUP2 MSTORE PUSH1 0x4 ADD PUSH1 0x0 PUSH1 0x40 MLOAD DUP1 DUP4 SUB DUP2 PUSH1 0x0 DUP8 DUP1 EXTCODESIZE ISZERO DUP1 ISZERO PUSH2 0x136 JUMPI PUSH1 0x0 DUP1 REVERT JUMPDEST POP GAS CALL SWAP3 POP POP POP DUP1 ISZERO PUSH2 0x147 JUMPI POP PUSH1 0x1 JUMPDEST POP JUMPDEST STOP JUMPDEST PUSH1 0x0 DUP1 REVERT JUMPDEST CALLVALUE DUP1 ISZERO PUSH2 0x15C JUMPI PUSH1 0x0 DUP1 REVERT JUMPDEST POP PUSH1 0x2 SLOAD PUSH2 0x171 SWAP1 PUSH1 0x1 PUSH1 0xA0 SHL SWAP1 DIV PUSH1 0xFF AND DUP2 JUMP JUMPDEST PUSH1 0x40 MLOAD SWAP1 ISZERO ISZERO DUP2 MSTORE PUSH1 0x20 ADD JUMPDEST PUSH1 0x40 MLOAD DUP1 SWAP2 SUB SWAP1 RETURN JUMPDEST CALLVALUE DUP1 ISZERO PUSH2 0x192 JUMPI PUSH1 0x0 DUP1 REVERT JUMPDEST POP PUSH2 0x19C PUSH1 0x3 SLOAD DUP2 JUMP JUMPDEST PUSH1 0x40 MLOAD SWAP1 DUP2 MSTORE PUSH1 0x20 ADD PUSH2 0x17D JUMP JUMPDEST CALLVALUE DUP1 ISZERO PUSH2 0x1B6 JUMPI PUSH1 0x0 DUP1 REVERT JUMPDEST POP PUSH2 0x149 PUSH2 0x1C5 CALLDATASIZE PUSH1 0x4 PUSH2 0x8D1 JUMP JUMPDEST PUSH2 0x277 JUMP JUMPDEST CALLVALUE DUP1 ISZERO PUSH2 0x1D6 JUMPI PUSH1 0x0 DUP1 REVERT JUMPDEST POP PUSH2 0x149 PUSH2 0x1E5 CALLDATASIZE PUSH1 0x4 PUSH2 0x8D1 JUMP JUMPDEST PUSH2 0x4F8 JUMP JUMPDEST CALLVALUE DUP1 ISZERO PUSH2 0x1F6 JUMPI PUSH1 0x0 DUP1 REVERT JUMPDEST POP PUSH2 0x149 PUSH2 0x513 JUMP JUMPDEST CALLVALUE DUP1 ISZERO PUSH2 0x20B JUMPI PUSH1 0x0 DUP1 REVERT JUMPDEST POP PUSH1 0x2 SLOAD PUSH2 0x21F SWAP1 PUSH1 0x1 PUSH1 0x1 PUSH1 0xA0 SHL SUB AND DUP2 JUMP JUMPDEST PUSH1 0x40 MLOAD PUSH1 0x1 PUSH1 0x1 PUSH1 0xA0 SHL SUB SWAP1 SWAP2 AND DUP2 MSTORE PUSH1 0x20 ADD PUSH2 0x17D JUMP JUMPDEST CALLVALUE DUP1 ISZERO PUSH2 0x243 JUMPI PUSH1 0x0 DUP1 REVERT JUMPDEST POP PUSH1 0x1 SLOAD PUSH2 0x21F SWAP1 PUSH1 0x1 PUSH1 0x1 PUSH1 0xA0 SHL SUB AND DUP2 JUMP JUMPDEST CALLVALUE DUP1 ISZERO PUSH2 0x263 JUMPI PUSH1 0x0 DUP1 REVERT JUMPDEST POP PUSH1 0x0 SLOAD PUSH2 0x21F SWAP1 PUSH1 0x1 PUSH1 0x1 PUSH1 0xA0 SHL SUB AND DUP2 JUMP JUMPDEST PUSH1 0x0 SLOAD PUSH1 0x40 MLOAD PUSH4 0x70A08231 PUSH1 0xE0 SHL DUP2 MSTORE ADDRESS PUSH1 0x4 DUP3 ADD MSTORE DUP3 SWAP2 PUSH1 0x1 PUSH1 0x1 PUSH1 0xA0 SHL SUB AND SWAP1 PUSH4 0x70A08231 SWAP1 PUSH1 0x24 ADD PUSH1 0x20 PUSH1 0x40 MLOAD DUP1 DUP4 SUB DUP2 DUP7 GAS STATICCALL ISZERO DUP1 ISZERO PUSH2 0x2BF JUMPI RETURNDATASIZE PUSH1 0x0 DUP1 RETURNDATACOPY RETURNDATASIZE PUSH1 0x0 REVERT JUMPDEST POP POP POP POP PUSH1 0x40 MLOAD RETURNDATASIZE PUSH1 0x1F NOT PUSH1 0x1F DUP3 ADD AND DUP3 ADD DUP1 PUSH1 0x40 MSTORE POP DUP2 ADD SWAP1 PUSH2 0x2E3 SWAP2 SWAP1 PUSH2 0x8EA JUMP JUMPDEST LT ISZERO PUSH2 0x32A JUMPI PUSH1 0x40 MLOAD PUSH3 0x461BCD PUSH1 0xE5 SHL DUP2 MSTORE PUSH1 0x20 PUSH1 0x4 DUP3 ADD MSTORE PUSH1 0x11 PUSH1 0x24 DUP3 ADD MSTORE PUSH17 0x4E6F7420656E6F75676820746F6B656E73 PUSH1 0x78 SHL PUSH1 0x44 DUP3 ADD MSTORE PUSH1 0x64 ADD JUMPDEST PUSH1 0x40 MLOAD DUP1 SWAP2 SUB SWAP1 REVERT JUMPDEST PUSH1 0x0 SLOAD PUSH1 0x1 SLOAD PUSH1 0x40 MLOAD PUSH4 0x95EA7B3 PUSH1 0xE0 SHL DUP2 MSTORE PUSH1 0x1 PUSH1 0x1 PUSH1 0xA0 SHL SUB SWAP2 DUP3 AND PUSH1 0x4 DUP3 ADD MSTORE PUSH1 0x24 DUP2 ADD DUP5 SWAP1 MSTORE SWAP2 AND SWAP1 PUSH4 0x95EA7B3 SWAP1 PUSH1 0x44 ADD PUSH1 0x20 PUSH1 0x40 MLOAD DUP1 DUP4 SUB DUP2 PUSH1 0x0 DUP8 GAS CALL ISZERO DUP1 ISZERO PUSH2 0x37F JUMPI RETURNDATASIZE PUSH1 0x0 DUP1 RETURNDATACOPY RETURNDATASIZE PUSH1 0x0 REVERT JUMPDEST POP POP POP POP PUSH1 0x40 MLOAD RETURNDATASIZE PUSH1 0x1F NOT PUSH1 0x1F DUP3 ADD AND DUP3 ADD DUP1 PUSH1 0x40 MSTORE POP DUP2 ADD SWAP1 PUSH2 0x3A3 SWAP2 SWAP1 PUSH2 0x903 JUMP JUMPDEST POP PUSH1 0x2 DUP1 SLOAD PUSH1 0xFF PUSH1 0xA0 SHL NOT AND PUSH1 0x1 PUSH1 0xA0 SHL OR SWAP1 SSTORE PUSH1 0x0 PUSH1 0x3 SSTORE PUSH1 0x1 SLOAD PUSH1 0x40 MLOAD PUSH4 0x6EA4BAB7 PUSH1 0xE1 SHL DUP2 MSTORE PUSH1 0x4 DUP2 ADD DUP4 SWAP1 MSTORE PUSH1 0x1 PUSH1 0x1 PUSH1 0xA0 SHL SUB SWAP1 SWAP2 AND SWAP1 PUSH4 0xDD49756E SWAP1 PUSH1 0x24 ADD PUSH1 0x0 PUSH1 0x40 MLOAD DUP1 DUP4 SUB DUP2 PUSH1 0x0 DUP8 DUP1 EXTCODESIZE ISZERO DUP1 ISZERO PUSH2 0x402 JUMPI PUSH1 0x0 DUP1 REVERT JUMPDEST POP GAS CALL ISZERO DUP1 ISZERO PUSH2 0x416 JUMPI RETURNDATASIZE PUSH1 0x0 DUP1 RETURNDATACOPY RETURNDATASIZE PUSH1 0x0 REVERT JUMPDEST POP POP POP POP PUSH1 0x1 PUSH1 0x0 SWAP1 SLOAD SWAP1 PUSH2 0x100 EXP SWAP1 DIV PUSH1 0x1 PUSH1 0x1 PUSH1 0xA0 SHL SUB AND PUSH1 0x1 PUSH1 0x1 PUSH1 0xA0 SHL SUB AND PUSH4 0x218BD577 PUSH1 0x40 MLOAD DUP2 PUSH4 0xFFFFFFFF AND PUSH1 0xE0 SHL DUP2 MSTORE PUSH1 0x4 ADD PUSH1 0x0 PUSH1 0x40 MLOAD DUP1 DUP4 SUB DUP2 PUSH1 0x0 DUP8 DUP1 EXTCODESIZE ISZERO DUP1 ISZERO PUSH2 0x46A JUMPI PUSH1 0x0 DUP1 REVERT JUMPDEST POP GAS CALL SWAP3 POP POP POP DUP1 ISZERO PUSH2 0x47B JUMPI POP PUSH1 0x1 JUMPDEST PUSH2 0x4B4 JUMPI PUSH1 0x40 MLOAD PUSH1 0x0 DUP2 MSTORE PUSH32 0x2170D2A262726EFBDE60958AD98EFF9C4F3CA4920D2CE44F5B6481128BD0B49D SWAP1 PUSH1 0x20 ADD PUSH1 0x40 MLOAD DUP1 SWAP2 SUB SWAP1 LOG1 JUMPDEST PUSH1 0x2 DUP1 SLOAD PUSH1 0xFF PUSH1 0xA0 SHL NOT AND SWAP1 SSTORE PUSH1 0x40 MLOAD PUSH1 0x1 DUP2 MSTORE PUSH32 0x2170D2A262726EFBDE60958AD98EFF9C4F3CA4920D2CE44F5B6481128BD0B49D SWAP1 PUSH1 0x20 ADD PUSH1 0x40 MLOAD DUP1 SWAP2 SUB SWAP1 LOG1 POP JUMP JUMPDEST PUSH1 0x0 SLOAD PUSH2 0x510 SWAP1 PUSH1 0x1 PUSH1 0x1 PUSH1 0xA0 SHL SUB AND CALLER ADDRESS DUP5 PUSH2 0x59F JUMP JUMPDEST POP JUMP JUMPDEST PUSH1 0x0 DUP1 SLOAD PUSH1 0x40 MLOAD PUSH4 0x70A08231 PUSH1 0xE0 SHL DUP2 MSTORE ADDRESS PUSH1 0x4 DUP3 ADD MSTORE PUSH1 0x1 PUSH1 0x1 PUSH1 0xA0 SHL SUB SWAP1 SWAP2 AND SWAP1 PUSH4 0x70A08231 SWAP1 PUSH1 0x24 ADD PUSH1 0x20 PUSH1 0x40 MLOAD DUP1 DUP4 SUB DUP2 DUP7 GAS STATICCALL ISZERO DUP1 ISZERO PUSH2 0x55C JUMPI RETURNDATASIZE PUSH1 0x0 DUP1 RETURNDATACOPY RETURNDATASIZE PUSH1 0x0 REVERT JUMPDEST POP POP POP POP PUSH1 0x40 MLOAD RETURNDATASIZE PUSH1 0x1F NOT PUSH1 0x1F DUP3 ADD AND DUP3 ADD DUP1 PUSH1 0x40 MSTORE POP DUP2 ADD SWAP1 PUSH2 0x580 SWAP2 SWAP1 PUSH2 0x8EA JUMP JUMPDEST SWAP1 POP DUP1 ISZERO PUSH2 0x510 JUMPI PUSH1 0x0 SLOAD PUSH2 0x510 SWAP1 PUSH1 0x1 PUSH1 0x1 PUSH1 0xA0 SHL SUB AND CALLER DUP4 PUSH2 0x610 JUMP JUMPDEST PUSH1 0x40 MLOAD PUSH1 0x1 PUSH1 0x1 PUSH1 0xA0 SHL SUB DUP1 DUP6 AND PUSH1 0x24 DUP4 ADD MSTORE DUP4 AND PUSH1 0x44 DUP3 ADD MSTORE PUSH1 0x64 DUP2 ADD DUP3 SWAP1 MSTORE PUSH2 0x60A SWAP1 DUP6 SWAP1 PUSH4 0x23B872DD PUSH1 0xE0 SHL SWAP1 PUSH1 0x84 ADD JUMPDEST PUSH1 0x40 DUP1 MLOAD PUSH1 0x1F NOT DUP2 DUP5 SUB ADD DUP2 MSTORE SWAP2 SWAP1 MSTORE PUSH1 0x20 DUP2 ADD DUP1 MLOAD PUSH1 0x1 PUSH1 0x1 PUSH1 0xE0 SHL SUB AND PUSH1 0x1 PUSH1 0x1 PUSH1 0xE0 SHL SUB NOT SWAP1 SWAP4 AND SWAP3 SWAP1 SWAP3 OR SWAP1 SWAP2 MSTORE PUSH2 0x645 JUMP JUMPDEST POP POP POP POP JUMP JUMPDEST PUSH1 0x40 MLOAD PUSH1 0x1 PUSH1 0x1 PUSH1 0xA0 SHL SUB DUP4 AND PUSH1 0x24 DUP3 ADD MSTORE PUSH1 0x44 DUP2 ADD DUP3 SWAP1 MSTORE PUSH2 0x640 SWAP1 DUP5 SWAP1 PUSH4 0xA9059CBB PUSH1 0xE0 SHL SWAP1 PUSH1 0x64 ADD PUSH2 0x5D3 JUMP JUMPDEST POP POP POP JUMP JUMPDEST PUSH1 0x0 PUSH2 0x69A DUP3 PUSH1 0x40 MLOAD DUP1 PUSH1 0x40 ADD PUSH1 0x40 MSTORE DUP1 PUSH1 0x20 DUP2 MSTORE PUSH1 0x20 ADD PUSH32 0x5361666545524332303A206C6F772D6C6576656C2063616C6C206661696C6564 DUP2 MSTORE POP DUP6 PUSH1 0x1 PUSH1 0x1 PUSH1 0xA0 SHL SUB AND PUSH2 0x71A SWAP1 SWAP3 SWAP2 SWAP1 PUSH4 0xFFFFFFFF AND JUMP JUMPDEST SWAP1 POP DUP1 MLOAD PUSH1 0x0 EQ DUP1 PUSH2 0x6BB JUMPI POP DUP1 DUP1 PUSH1 0x20 ADD SWAP1 MLOAD DUP2 ADD SWAP1 PUSH2 0x6BB SWAP2 SWAP1 PUSH2 0x903 JUMP JUMPDEST PUSH2 0x640 JUMPI PUSH1 0x40 MLOAD PUSH3 0x461BCD PUSH1 0xE5 SHL DUP2 MSTORE PUSH1 0x20 PUSH1 0x4 DUP3 ADD MSTORE PUSH1 0x2A PUSH1 0x24 DUP3 ADD MSTORE PUSH32 0x5361666545524332303A204552433230206F7065726174696F6E20646964206E PUSH1 0x44 DUP3 ADD MSTORE PUSH10 0x1BDD081CDD58D8D95959 PUSH1 0xB2 SHL PUSH1 0x64 DUP3 ADD MSTORE PUSH1 0x84 ADD PUSH2 0x321 JUMP JUMPDEST PUSH1 0x60 PUSH2 0x729 DUP5 DUP5 PUSH1 0x0 DUP6 PUSH2 0x731 JUMP JUMPDEST SWAP5 SWAP4 POP POP POP POP JUMP JUMPDEST PUSH1 0x60 DUP3 SELFBALANCE LT ISZERO PUSH2 0x792 JUMPI PUSH1 0x40 MLOAD PUSH3 0x461BCD PUSH1 0xE5 SHL DUP2 MSTORE PUSH1 0x20 PUSH1 0x4 DUP3 ADD MSTORE PUSH1 0x26 PUSH1 0x24 DUP3 ADD MSTORE PUSH32 0x416464726573733A20696E73756666696369656E742062616C616E636520666F PUSH1 0x44 DUP3 ADD MSTORE PUSH6 0x1C8818D85B1B PUSH1 0xD2 SHL PUSH1 0x64 DUP3 ADD MSTORE PUSH1 0x84 ADD PUSH2 0x321 JUMP JUMPDEST PUSH1 0x0 DUP1 DUP7 PUSH1 0x1 PUSH1 0x1 PUSH1 0xA0 SHL SUB AND DUP6 DUP8 PUSH1 0x40 MLOAD PUSH2 0x7AE SWAP2 SWAP1 PUSH2 0x950 JUMP JUMPDEST PUSH1 0x0 PUSH1 0x40 MLOAD DUP1 DUP4 SUB DUP2 DUP6 DUP8 GAS CALL SWAP3 POP POP POP RETURNDATASIZE DUP1 PUSH1 0x0 DUP2 EQ PUSH2 0x7EB JUMPI PUSH1 0x40 MLOAD SWAP2 POP PUSH1 0x1F NOT PUSH1 0x3F RETURNDATASIZE ADD AND DUP3 ADD PUSH1 0x40 MSTORE RETURNDATASIZE DUP3 MSTORE RETURNDATASIZE PUSH1 0x0 PUSH1 0x20 DUP5 ADD RETURNDATACOPY PUSH2 0x7F0 JUMP JUMPDEST PUSH1 0x60 SWAP2 POP JUMPDEST POP SWAP2 POP SWAP2 POP PUSH2 0x801 DUP8 DUP4 DUP4 DUP8 PUSH2 0x80C JUMP JUMPDEST SWAP8 SWAP7 POP POP POP POP POP POP POP JUMP JUMPDEST PUSH1 0x60 DUP4 ISZERO PUSH2 0x87B JUMPI DUP3 MLOAD PUSH1 0x0 SUB PUSH2 0x874 JUMPI PUSH1 0x1 PUSH1 0x1 PUSH1 0xA0 SHL SUB DUP6 AND EXTCODESIZE PUSH2 0x874 JUMPI PUSH1 0x40 MLOAD PUSH3 0x461BCD PUSH1 0xE5 SHL DUP2 MSTORE PUSH1 0x20 PUSH1 0x4 DUP3 ADD MSTORE PUSH1 0x1D PUSH1 0x24 DUP3 ADD MSTORE PUSH32 0x416464726573733A2063616C6C20746F206E6F6E2D636F6E7472616374000000 PUSH1 0x44 DUP3 ADD MSTORE PUSH1 0x64 ADD PUSH2 0x321 JUMP JUMPDEST POP DUP2 PUSH2 0x729 JUMP JUMPDEST PUSH2 0x729 DUP4 DUP4 DUP2 MLOAD ISZERO PUSH2 0x890 JUMPI DUP2 MLOAD DUP1 DUP4 PUSH1 0x20 ADD REVERT JUMPDEST DUP1 PUSH1 0x40 MLOAD PUSH3 0x461BCD PUSH1 0xE5 SHL DUP2 MSTORE PUSH1 0x4 ADD PUSH2 0x321 SWAP2 SWAP1 PUSH2 0x96C JUMP JUMPDEST PUSH1 0x0 PUSH1 0x1 DUP3 ADD PUSH2 0x8CA JUMPI PUSH4 0x4E487B71 PUSH1 0xE0 SHL PUSH1 0x0 MSTORE PUSH1 0x11 PUSH1 0x4 MSTORE PUSH1 0x24 PUSH1 0x0 REVERT JUMPDEST POP PUSH1 0x1 ADD SWAP1 JUMP JUMPDEST PUSH1 0x0 PUSH1 0x20 DUP3 DUP5 SUB SLT ISZERO PUSH2 0x8E3 JUMPI PUSH1 0x0 DUP1 REVERT JUMPDEST POP CALLDATALOAD SWAP2 SWAP1 POP JUMP JUMPDEST PUSH1 0x0 PUSH1 0x20 DUP3 DUP5 SUB SLT ISZERO PUSH2 0x8FC JUMPI PUSH1 0x0 DUP1 REVERT JUMPDEST POP MLOAD SWAP2 SWAP1 POP JUMP JUMPDEST PUSH1 0x0 PUSH1 0x20 DUP3 DUP5 SUB SLT ISZERO PUSH2 0x915 JUMPI PUSH1 0x0 DUP1 REVERT JUMPDEST DUP2 MLOAD DUP1 ISZERO ISZERO DUP2 EQ PUSH2 0x925 JUMPI PUSH1 0x0 DUP1 REVERT JUMPDEST SWAP4 SWAP3 POP POP POP JUMP JUMPDEST PUSH1 0x0 JUMPDEST DUP4 DUP2 LT ISZERO PUSH2 0x947 JUMPI DUP2 DUP2 ADD MLOAD DUP4 DUP3 ADD MSTORE PUSH1 0x20 ADD PUSH2 0x92F JUMP JUMPDEST POP POP PUSH1 0x0 SWAP2 ADD MSTORE JUMP JUMPDEST PUSH1 0x0 DUP3 MLOAD PUSH2 0x962 DUP2 DUP5 PUSH1 0x20 DUP8 ADD PUSH2 0x92C JUMP JUMPDEST SWAP2 SWAP1 SWAP2 ADD SWAP3 SWAP2 POP POP JUMP JUMPDEST PUSH1 0x20 DUP2 MSTORE PUSH1 0x0 DUP3 MLOAD DUP1 PUSH1 0x20 DUP5 ADD MSTORE PUSH2 0x98B DUP2 PUSH1 0x40 DUP6 ADD PUSH1 0x20 DUP8 ADD PUSH2 0x92C JUMP JUMPDEST PUSH1 0x1F ADD PUSH1 0x1F NOT AND SWAP2 SWAP1 SWAP2 ADD PUSH1 0x40 ADD SWAP3 SWAP2 POP POP JUMP INVALID LOG2 PUSH5 0x6970667358 0x22 SLT KECCAK256 PUSH31 0xE763B116A527482ACAF1FC7BAF23688C87439D3D1AC81A875398DE952F08F0 PUSH5 0x736F6C6343 STOP ADDMOD SGT STOP CALLER "},"methodIdentifiers":{"attack(uint256)":"64dd891a","attackCount()":"407c2821","attacking()":"3c0bbcd9","fundAttacker(uint256)":"699151e6","gameContract()":"d3f33009","owner()":"8da5cb5b","token()":"fc0c546a","withdrawTokens()":"8d8f2adb"}}}}}