{"contracts/TetriSeedGame.sol":{"TetriSeedGame":{"abi":[{"inputs":[{"internalType":"address","name":"_tokenAddress","type":"address"}],"stateMutability":"nonpayable","type":"constructor"},{"anonymous":false,"inputs":[{"indexed":false,"internalType":"uint8[5]","name":"oldDistribution","type":"uint8[5]"},{"indexed":false,"internalType":"uint8[5]","name":"newDistribution","type":"uint8[5]"}],"name":"DistributionUpdated","type":"event"},{"anonymous":false,"inputs":[{"indexed":false,"internalType":"uint256","name":"oldFee","type":"uint256"},{"indexed":false,"internalType":"uint256","name":"newFee","type":"uint256"}],"name":"EntryFeeUpdated","type":"event"},{"anonymous":false,"inputs":[{"indexed":true,"internalType":"address","name":"player","type":"address"},{"indexed":false,"internalType":"uint256","name":"fee","type":"uint256"},{"indexed":false,"internalType":"uint256","name":"timestamp","type":"uint256"}],"name":"GameEntered","type":"event"},{"anonymous":false,"inputs":[{"indexed":false,"internalType":"uint256","name":"amount","type":"uint256"},{"indexed":false,"internalType":"uint256","name":"timestamp","type":"uint256"}],"name":"OwnerWithdrawal","type":"event"},{"anonymous":false,"inputs":[{"indexed":true,"internalType":"address","name":"previousOwner","type":"address"},{"indexed":true,"internalType":"address","name":"newOwner","type":"address"}],"name":"OwnershipTransferred","type":"event"},{"anonymous":false,"inputs":[{"indexed":true,"internalType":"address","name":"winner","type":"address"},{"indexed":false,"internalType":"uint256","name":"amount","type":"uint256"},{"indexed":false,"internalType":"uint8","name":"rank","type":"uint8"},{"indexed":true,"internalType":"uint256","name":"season","type":"uint256"}],"name":"PrizeAwarded","type":"event"},{"anonymous":false,"inputs":[{"indexed":false,"internalType":"address[5]","name":"winners","type":"address[5]"},{"indexed":false,"internalType":"uint256[5]","name":"amounts","type":"uint256[5]"},{"indexed":false,"internalType":"uint256","name":"totalDistributed","type":"uint256"}],"name":"PrizesDistributed","type":"event"},{"anonymous":false,"inputs":[{"indexed":true,"internalType":"uint256","name":"season","type":"uint256"},{"indexed":false,"internalType":"uint256","name":"totalPrize","type":"uint256"}],"name":"SeasonEnded","type":"event"},{"anonymous":false,"inputs":[{"indexed":true,"internalType":"address","name":"player","type":"address"},{"indexed":false,"internalType":"uint256","name":"amount","type":"uint256"},{"indexed":false,"internalType":"uint256","name":"timestamp","type":"uint256"}],"name":"TokensDeposited","type":"event"},{"anonymous":false,"inputs":[{"indexed":true,"internalType":"address","name":"recipient","type":"address"},{"indexed":false,"internalType":"uint256","name":"amount","type":"uint256"},{"indexed":false,"internalType":"uint256","name":"timestamp","type":"uint256"}],"name":"TokensWithdrawn","type":"event"},{"inputs":[],"name":"SEASON_DURATION","outputs":[{"internalType":"uint256","name":"","type":"uint256"}],"stateMutability":"view","type":"function"},{"inputs":[],"name":"currentSeason","outputs":[{"internalType":"uint256","name":"","type":"uint256"}],"stateMutability":"view","type":"function"},{"inputs":[{"internalType":"uint256","name":"amount","type":"uint256"}],"name":"depositTokens","outputs":[],"stateMutability":"nonpayable","type":"function"},{"inputs":[{"internalType":"address[5]","name":"winners","type":"address[5]"}],"name":"distributePrizes","outputs":[],"stateMutability":"nonpayable","type":"function"},{"inputs":[{"internalType":"address[5]","name":"winners","type":"address[5]"}],"name":"endSeason","outputs":[],"stateMutability":"nonpayable","type":"function"},{"inputs":[],"name":"enterGame","outputs":[],"stateMutability":"nonpayable","type":"function"},{"inputs":[],"name":"entryFee","outputs":[{"internalType":"uint256","name":"","type":"uint256"}],"stateMutability":"view","type":"function"},{"inputs":[],"name":"getCurrentSeason","outputs":[{"internalType":"uint256","name":"","type":"uint256"}],"stateMutability":"view","type":"function"},{"inputs":[],"name":"getCurrentSeasonEndTime","outputs":[{"internalType":"uint256","name":"","type":"uint256"}],"stateMutability":"view","type":"function"},{"inputs":[{"internalType":"address","name":"player","type":"address"}],"name":"getPlayerBalance","outputs":[{"internalType":"uint256","name":"","type":"uint256"}],"stateMutability":"view","type":"function"},{"inputs":[],"name":"getPrizeDistribution","outputs":[{"internalType":"uint8[5]","name":"","type":"uint8[5]"}],"stateMutability":"view","type":"function"},{"inputs":[],"name":"owner","outputs":[{"internalType":"address","name":"","type":"address"}],"stateMutability":"view","type":"function"},{"inputs":[{"internalType":"uint256","name":"amount","type":"uint256"}],"name":"ownerWithdraw","outputs":[],"stateMutability":"nonpayable","type":"function"},{"inputs":[{"internalType":"address","name":"","type":"address"}],"name":"playerBalances","outputs":[{"internalType":"uint256","name":"","type":"uint256"}],"stateMutability":"view","type":"function"},{"inputs":[{"internalType":"uint256","name":"","type":"uint256"}],"name":"prizeDistribution","outputs":[{"internalType":"uint8","name":"","type":"uint8"}],"stateMutability":"view","type":"function"},{"inputs":[],"name":"renounceOwnership","outputs":[],"stateMutability":"nonpayable","type":"function"},{"inputs":[],"name":"seasonStartTime","outputs":[{"internalType":"uint256","name":"","type":"uint256"}],"stateMutability":"view","type":"function"},{"inputs":[{"internalType":"uint8[5]","name":"newPercentages","type":"uint8[5]"}],"name":"setDistribution","outputs":[],"stateMutability":"nonpayable","type":"function"},{"inputs":[{"internalType":"uint256","name":"newFee","type":"uint256"}],"name":"setEntryFee","outputs":[],"stateMutability":"nonpayable","type":"function"},{"inputs":[],"name":"supToken","outputs":[{"internalType":"contract IERC20","name":"","type":"address"}],"stateMutability":"view","type":"function"},{"inputs":[{"internalType":"address","name":"newOwner","type":"address"}],"name":"transferOwnership","outputs":[],"stateMutability":"nonpayable","type":"function"},{"inputs":[],"name":"weeklyPrizePool","outputs":[{"internalType":"uint256","name":"","type":"uint256"}],"stateMutability":"view","type":"function"}],"evm":{"bytecode":{"linkReferences":{},"object":"60806040523480156200001157600080fd5b5060405162001c9238038062001c92833981016040819052620000349162000203565b6200003f3362000102565b60018055600280546001600160a01b0319166001600160a01b038316179055670de0b6b3a76400006003556040805160a08101825260328152601e6020820152600a9181019190915260056060820181905260808201819052620000a69160049162000152565b504260006007620000bb620151808462000261565b620000c890600462000278565b620000d4919062000294565b9050620000e58162015180620002ab565b620000f19083620002c5565b6006555050600160075550620002db565b600080546001600160a01b038381166001600160a01b0319831681178455604051919092169283917f8be0079c531659141344cd1fd0a4f28419497f9722a3daafe3b4186f6b6457e09190a35050565b600183019183908215620001da5791602002820160005b83821115620001a957835183826101000a81548160ff021916908360ff160217905550926020019260010160208160000104928301926001030262000169565b8015620001d85782816101000a81549060ff0219169055600101602081600001049283019260010302620001a9565b505b50620001e8929150620001ec565b5090565b5b80821115620001e85760008155600101620001ed565b6000602082840312156200021657600080fd5b81516001600160a01b03811681146200022e57600080fd5b9392505050565b634e487b7160e01b600052601260045260246000fd5b634e487b7160e01b600052601160045260246000fd5b60008262000273576200027362000235565b500490565b808201808211156200028e576200028e6200024b565b92915050565b600082620002a657620002a662000235565b500690565b80820281158282048414176200028e576200028e6200024b565b818103818111156200028e576200028e6200024b565b6119a780620002eb6000396000f3fe608060405234801561001057600080fd5b50600436106101425760003560e01c8063ab2a79f9116100b8578063dc185e351161007c578063dc185e351461026f578063dd49756e14610279578063e2734c931461028c578063eb770d0c146102b5578063f2fde38b146102c8578063fa5b1a7f146102db57600080fd5b8063ab2a79f91461022e578063bcb3962114610236578063cbd3f9621461023f578063d3b30b7514610254578063da8c77921461025c57600080fd5b8063715018a61161010a578063715018a6146101d05780637971999a146101d85780637b38314c146101e15780638104ae4d146102015780638d6675641461020a5780638da5cb5b1461021d57600080fd5b80630102df2514610147578063072ea61c14610177578063218bd5771461018e57806333f707d11461019857806354c237b7146101ab575b600080fd5b60025461015a906001600160a01b031681565b6040516001600160a01b0390911681526020015b60405180910390f35b61018060035481565b60405190815260200161016e565b6101966102ee565b005b6101966101a6366004611630565b610454565b6101be6101b9366004611630565b610580565b60405160ff909116815260200161016e565b6101966105aa565b61018060055481565b6101806101ef366004611665565b60086020526000908152604090205481565b61018060065481565b61019661021836600461169e565b6105bc565b6000546001600160a01b031661015a565b610180610710565b61018060075481565b610247610728565b60405161016e91906116e0565b600754610180565b61019661026a36600461169e565b610780565b61018062093a8081565b610196610287366004611630565b610a2f565b61018061029a366004611665565b6001600160a01b031660009081526008602052604090205490565b6101966102c3366004611630565b610b06565b6101966102d6366004611665565b610baf565b6101966102e936600461169e565b610c25565b6102f6611159565b62093a806006546103079190611704565b421061035257600062093a80600654426103219190611717565b61032b9190611740565b905061033a62093a8082611754565b6006600082825461034b9190611704565b9091555050505b600354336000908152600860205260409020541061039757600354336000908152600860205260408120805490919061038c908490611717565b909155506103b69050565b6003546002546103b6916001600160a01b0390911690339030906111b2565b600354600560008282546103ca9190611704565b90915550506003546040805191825242602083015233917ffdfdcf596161b0e81e3161597d46888dcc88bd83b22dcfb341c76377ca3bbc9e910160405180910390a26003546040805191825242602083015233917f9a1a3c45c9a593fe515b398aac3639ed6ac33d78b8c7eeb8f81241e8ecf65ee9910160405180910390a261045260018055565b565b61045c611223565b610464611159565b6005548111156104bb5760405162461bcd60e51b815260206004820152601e60248201527f416d6f756e74206578636565647320617661696c61626c652066756e6473000060448201526064015b60405180910390fd5b80600560008282546104cd9190611717565b90915550506000546104f5906001600160a01b03166002546001600160a01b0316908361127d565b600054604080518381524260208201526001600160a01b03909216917fffe903c0abe6b2dbb2f3474ef43d7a3c1fca49e5a774453423ca8e1952aabffa910160405180910390a2604080518281524260208201527f1dcb27f9812d159cc6ea3f1338ec78646f39b830096254199c14e2228950c1c8910160405180910390a161057d60018055565b50565b6004816005811061059057600080fd5b60209182820401919006915054906101000a900460ff1681565b6105b2611223565b61045260006112b2565b6105c4611223565b6000805b60058160ff16101561061d57828160ff16600581106105e9576105e961176b565b6020020160208101906105fc9190611792565b6106099060ff16836117ad565b915080610615816117cf565b9150506105c8565b508061ffff166064146106725760405162461bcd60e51b815260206004820152601e60248201527f50657263656e7461676573206d7573742061646420757020746f20313030000060448201526064016104b2565b6040805160a08101918290526000916004906005908285855b825461010083900a900460ff1681526020600192830181810494850194909303909202910180841161068b579050505050505090508260049060056106d1929190611567565b507fd8398b26cff3564d354793d25b095bd15773387cdf28c90d94a1ad524bdaeb7b81846040516107039291906117ee565b60405180910390a1505050565b600062093a806006546107239190611704565b905090565b6107306115fd565b6040805160a081019182905290600490600590826000855b825461010083900a900460ff168152602060019283018181049485019490930390920291018084116107485790505050505050905090565b610788611223565b610790611159565b6000600554116107dc5760405162461bcd60e51b81526020600482015260176024820152764e6f207072697a657320746f206469737472696275746560481b60448201526064016104b2565b60006107e66115fd565b60005b60058160ff1610156109d05760008460ff83166005811061080c5761080c61176b565b60200201602081019061081f9190611665565b6001600160a01b03160361086e5760405162461bcd60e51b8152602060048201526016602482015275496e76616c69642077696e6e6572206164647265737360501b60448201526064016104b2565b6000606460048360ff16600581106108885761088861176b565b602091828204019190069054906101000a900460ff1660ff166005546108ae9190611754565b6108b89190611740565b905080838360ff16600581106108d0576108d061176b565b60200201526108df8185611704565b935080156109bd578060086000878560ff16600581106109015761090161176b565b6020020160208101906109149190611665565b6001600160a01b03166001600160a01b0316815260200190815260200160002060008282546109439190611704565b9091555085905060ff83166005811061095e5761095e61176b565b6020020160208101906109719190611665565b6001600160a01b03167fffe903c0abe6b2dbb2f3474ef43d7a3c1fca49e5a774453423ca8e1952aabffa82426040516109b4929190918252602082015260400190565b60405180910390a25b50806109c8816117cf565b9150506107e9565b5081600560008282546109e39190611717565b90915550506040517fd93ab995ee7186dfc23e3168e2c5e45cde1983ae0012c996ce229ef65777221290610a1c90859084908690611839565b60405180910390a1505061057d60018055565b610a37611159565b60008111610a875760405162461bcd60e51b815260206004820181905260248201527f416d6f756e74206d7573742062652067726561746572207468616e207a65726f60448201526064016104b2565b600254610a9f906001600160a01b03163330846111b2565b3360009081526008602052604081208054839290610abe908490611704565b90915550506040805182815242602082015233917ffdfdcf596161b0e81e3161597d46888dcc88bd83b22dcfb341c76377ca3bbc9e910160405180910390a261057d60018055565b610b0e611223565b60008111610b6a5760405162461bcd60e51b815260206004820152602360248201527f456e74727920666565206d7573742062652067726561746572207468616e207a60448201526265726f60e81b60648201526084016104b2565b600380549082905560408051828152602081018490527f6a75d918a59da9597a749b7c707f23cfa76552074b43c68a24a21db1c45841f1910160405180910390a15050565b610bb7611223565b6001600160a01b038116610c1c5760405162461bcd60e51b815260206004820152602660248201527f4f776e61626c653a206e6577206f776e657220697320746865207a65726f206160448201526564647265737360d01b60648201526084016104b2565b61057d816112b2565b610c2d611223565b610c35611159565b600060055411610c815760405162461bcd60e51b81526020600482015260176024820152764e6f207072697a657320746f206469737472696275746560481b60448201526064016104b2565b60005b60058160ff161015610df95760008260ff831660058110610ca757610ca761176b565b602002016020810190610cba9190611665565b6001600160a01b031603610d095760405162461bcd60e51b8152602060048201526016602482015275496e76616c69642077696e6e6572206164647265737360501b60448201526064016104b2565b6000610d168260016118af565b90505b60058160ff161015610de657828160ff1660058110610d3a57610d3a61176b565b602002016020810190610d4d9190611665565b6001600160a01b0316838360ff1660058110610d6b57610d6b61176b565b602002016020810190610d7e9190611665565b6001600160a01b031603610dd45760405162461bcd60e51b815260206004820152601860248201527f4475706c69636174652077696e6e65722061646472657373000000000000000060448201526064016104b2565b80610dde816117cf565b915050610d19565b5080610df1816117cf565b915050610c84565b50600554610e056115fd565b6000805b60048160ff161015610ea857606460048260ff1660058110610e2d57610e2d61176b565b602081049190910154610e4c91601f166101000a900460ff1686611754565b610e569190611740565b838260ff1660058110610e6b57610e6b61176b565b60200201528260ff821660058110610e8557610e8561176b565b6020020151610e949083611704565b915080610ea0816117cf565b915050610e09565b50610eb38184611717565b608083015260005b60058160ff161015611097576000838260ff1660058110610ede57610ede61176b565b6020020151111561108557828160ff1660058110610efe57610efe61176b565b602002015160086000878460ff1660058110610f1c57610f1c61176b565b602002016020810190610f2f9190611665565b6001600160a01b03166001600160a01b031681526020019081526020016000206000828254610f5e9190611704565b9091555085905060ff821660058110610f7957610f7961176b565b602002016020810190610f8c9190611665565b6001600160a01b03167fffe903c0abe6b2dbb2f3474ef43d7a3c1fca49e5a774453423ca8e1952aabffa848360ff1660058110610fcb57610fcb61176b565b602002015142604051610fe8929190918252602082015260400190565b60405180910390a2600754858260ff16600581106110085761100861176b565b60200201602081019061101b9190611665565b6001600160a01b03167f975b964c87063cc8a663bda95acafcc123cbd152264733e49de21a70e9c1bb22858460ff166005811061105a5761105a61176b565b602002015161106a8560016118af565b6040805192835260ff90911660208301520160405180910390a35b8061108f816117cf565b915050610ebb565b50600580546000918290556007805491926001926110b6908490611704565b90915550504260068190556000906007906110d5906201518090611740565b6110e0906004611704565b6110ea91906118c8565b90506110f98162015180611754565b6006546111069190611717565b60065560075461111890600190611717565b6040518381527fd84108459ae28f4111f3c851dee576040e08f18d76d1dc82f0094abe275b11529060200160405180910390a2505050505061057d60018055565b6002600154036111ab5760405162461bcd60e51b815260206004820152601f60248201527f5265656e7472616e637947756172643a207265656e7472616e742063616c6c0060448201526064016104b2565b6002600155565b6040516001600160a01b038085166024830152831660448201526064810182905261121d9085906323b872dd60e01b906084015b60408051601f198184030181529190526020810180516001600160e01b03166001600160e01b031990931692909217909152611302565b50505050565b6000546001600160a01b031633146104525760405162461bcd60e51b815260206004820181905260248201527f4f776e61626c653a2063616c6c6572206973206e6f7420746865206f776e657260448201526064016104b2565b6040516001600160a01b0383166024820152604481018290526112ad90849063a9059cbb60e01b906064016111e6565b505050565b600080546001600160a01b038381166001600160a01b0319831681178455604051919092169283917f8be0079c531659141344cd1fd0a4f28419497f9722a3daafe3b4186f6b6457e09190a35050565b6000611357826040518060400160405280602081526020017f5361666545524332303a206c6f772d6c6576656c2063616c6c206661696c6564815250856001600160a01b03166113d79092919063ffffffff16565b905080516000148061137857508080602001905181019061137891906118dc565b6112ad5760405162461bcd60e51b815260206004820152602a60248201527f5361666545524332303a204552433230206f7065726174696f6e20646964206e6044820152691bdd081cdd58d8d9595960b21b60648201526084016104b2565b60606113e684846000856113ee565b949350505050565b60608247101561144f5760405162461bcd60e51b815260206004820152602660248201527f416464726573733a20696e73756666696369656e742062616c616e636520666f6044820152651c8818d85b1b60d21b60648201526084016104b2565b600080866001600160a01b0316858760405161146b9190611922565b60006040518083038185875af1925050503d80600081146114a8576040519150601f19603f3d011682016040523d82523d6000602084013e6114ad565b606091505b50915091506114be878383876114c9565b979650505050505050565b60608315611538578251600003611531576001600160a01b0385163b6115315760405162461bcd60e51b815260206004820152601d60248201527f416464726573733a2063616c6c20746f206e6f6e2d636f6e747261637400000060448201526064016104b2565b50816113e6565b6113e6838381511561154d5781518083602001fd5b8060405162461bcd60e51b81526004016104b2919061193e565b6001830191839082156115ed5791602002820160005b838211156115be57833560ff1683826101000a81548160ff021916908360ff160217905550926020019260010160208160000104928301926001030261157d565b80156115eb5782816101000a81549060ff02191690556001016020816000010492830192600103026115be565b505b506115f992915061161b565b5090565b6040518060a001604052806005906020820280368337509192915050565b5b808211156115f9576000815560010161161c565b60006020828403121561164257600080fd5b5035919050565b80356001600160a01b038116811461166057600080fd5b919050565b60006020828403121561167757600080fd5b61168082611649565b9392505050565b8060a0810183101561169857600080fd5b92915050565b600060a082840312156116b057600080fd5b6116808383611687565b8060005b600581101561121d57815160ff168452602093840193909101906001016116be565b60a0810161169882846116ba565b634e487b7160e01b600052601160045260246000fd5b80820180821115611698576116986116ee565b81810381811115611698576116986116ee565b634e487b7160e01b600052601260045260246000fd5b60008261174f5761174f61172a565b500490565b8082028115828204841417611698576116986116ee565b634e487b7160e01b600052603260045260246000fd5b803560ff8116811461166057600080fd5b6000602082840312156117a457600080fd5b61168082611781565b61ffff8181168382160190808211156117c8576117c86116ee565b5092915050565b600060ff821660ff81036117e5576117e56116ee565b60010192915050565b61014081016117fd82856116ba565b60a082018360005b600581101561182f5760ff61181983611781565b1683526020928301929190910190600101611805565b5050509392505050565b6101608101818560005b6005811015611873576001600160a01b0361185d83611649565b1683526020928301929190910190600101611843565b50505060a082018460005b600581101561189d57815183526020928301929091019060010161187e565b50505082610140830152949350505050565b60ff8181168382160190811115611698576116986116ee565b6000826118d7576118d761172a565b500690565b6000602082840312156118ee57600080fd5b8151801515811461168057600080fd5b60005b83811015611919578181015183820152602001611901565b50506000910152565b600082516119348184602087016118fe565b9190910192915050565b602081526000825180602084015261195d8160408501602087016118fe565b601f01601f1916919091016040019291505056fea2646970667358221220247d0852f4e393174b470c9e7bd991011a300fe7870bc8b30e9a4ba7e982c8de64736f6c63430008130033","opcodes":"PUSH1 0x80 PUSH1 0x40 MSTORE CALLVALUE DUP1 ISZERO PUSH3 0x11 JUMPI PUSH1 0x0 DUP1 REVERT JUMPDEST POP PUSH1 0x40 MLOAD PUSH3 0x1C92 CODESIZE SUB DUP1 PUSH3 0x1C92 DUP4 CODECOPY DUP2 ADD PUSH1 0x40 DUP2 SWAP1 MSTORE PUSH3 0x34 SWAP2 PUSH3 0x203 JUMP JUMPDEST PUSH3 0x3F CALLER PUSH3 0x102 JUMP JUMPDEST PUSH1 0x1 DUP1 SSTORE PUSH1 0x2 DUP1 SLOAD PUSH1 0x1 PUSH1 0x1 PUSH1 0xA0 SHL SUB NOT AND PUSH1 0x1 PUSH1 0x1 PUSH1 0xA0 SHL SUB DUP4 AND OR SWAP1 SSTORE PUSH8 0xDE0B6B3A7640000 PUSH1 0x3 SSTORE PUSH1 0x40 DUP1 MLOAD PUSH1 0xA0 DUP2 ADD DUP3 MSTORE PUSH1 0x32 DUP2 MSTORE PUSH1 0x1E PUSH1 0x20 DUP3 ADD MSTORE PUSH1 0xA SWAP2 DUP2 ADD SWAP2 SWAP1 SWAP2 MSTORE PUSH1 0x5 PUSH1 0x60 DUP3 ADD DUP2 SWAP1 MSTORE PUSH1 0x80 DUP3 ADD DUP2 SWAP1 MSTORE PUSH3 0xA6 SWAP2 PUSH1 0x4 SWAP2 PUSH3 0x152 JUMP JUMPDEST POP TIMESTAMP PUSH1 0x0 PUSH1 0x7 PUSH3 0xBB PUSH3 0x15180 DUP5 PUSH3 0x261 JUMP JUMPDEST PUSH3 0xC8 SWAP1 PUSH1 0x4 PUSH3 0x278 JUMP JUMPDEST PUSH3 0xD4 SWAP2 SWAP1 PUSH3 0x294 JUMP JUMPDEST SWAP1 POP PUSH3 0xE5 DUP2 PUSH3 0x15180 PUSH3 0x2AB JUMP JUMPDEST PUSH3 0xF1 SWAP1 DUP4 PUSH3 0x2C5 JUMP JUMPDEST PUSH1 0x6 SSTORE POP POP PUSH1 0x1 PUSH1 0x7 SSTORE POP PUSH3 0x2DB JUMP JUMPDEST PUSH1 0x0 DUP1 SLOAD PUSH1 0x1 PUSH1 0x1 PUSH1 0xA0 SHL SUB DUP4 DUP2 AND PUSH1 0x1 PUSH1 0x1 PUSH1 0xA0 SHL SUB NOT DUP4 AND DUP2 OR DUP5 SSTORE PUSH1 0x40 MLOAD SWAP2 SWAP1 SWAP3 AND SWAP3 DUP4 SWAP2 PUSH32 0x8BE0079C531659141344CD1FD0A4F28419497F9722A3DAAFE3B4186F6B6457E0 SWAP2 SWAP1 LOG3 POP POP JUMP JUMPDEST PUSH1 0x1 DUP4 ADD SWAP2 DUP4 SWAP1 DUP3 ISZERO PUSH3 0x1DA JUMPI SWAP2 PUSH1 0x20 MUL DUP3 ADD PUSH1 0x0 JUMPDEST DUP4 DUP3 GT ISZERO PUSH3 0x1A9 JUMPI DUP4 MLOAD DUP4 DUP3 PUSH2 0x100 EXP DUP2 SLOAD DUP2 PUSH1 0xFF MUL NOT AND SWAP1 DUP4 PUSH1 0xFF AND MUL OR SWAP1 SSTORE POP SWAP3 PUSH1 0x20 ADD SWAP3 PUSH1 0x1 ADD PUSH1 0x20 DUP2 PUSH1 0x0 ADD DIV SWAP3 DUP4 ADD SWAP3 PUSH1 0x1 SUB MUL PUSH3 0x169 JUMP JUMPDEST DUP1 ISZERO PUSH3 0x1D8 JUMPI DUP3 DUP2 PUSH2 0x100 EXP DUP2 SLOAD SWAP1 PUSH1 0xFF MUL NOT AND SWAP1 SSTORE PUSH1 0x1 ADD PUSH1 0x20 DUP2 PUSH1 0x0 ADD DIV SWAP3 DUP4 ADD SWAP3 PUSH1 0x1 SUB MUL PUSH3 0x1A9 JUMP JUMPDEST POP JUMPDEST POP PUSH3 0x1E8 SWAP3 SWAP2 POP PUSH3 0x1EC JUMP JUMPDEST POP SWAP1 JUMP JUMPDEST JUMPDEST DUP1 DUP3 GT ISZERO PUSH3 0x1E8 JUMPI PUSH1 0x0 DUP2 SSTORE PUSH1 0x1 ADD PUSH3 0x1ED JUMP JUMPDEST PUSH1 0x0 PUSH1 0x20 DUP3 DUP5 SUB SLT ISZERO PUSH3 0x216 JUMPI PUSH1 0x0 DUP1 REVERT JUMPDEST DUP2 MLOAD PUSH1 0x1 PUSH1 0x1 PUSH1 0xA0 SHL SUB DUP2 AND DUP2 EQ PUSH3 0x22E JUMPI PUSH1 0x0 DUP1 REVERT JUMPDEST SWAP4 SWAP3 POP POP POP JUMP JUMPDEST PUSH4 0x4E487B71 PUSH1 0xE0 SHL PUSH1 0x0 MSTORE PUSH1 0x12 PUSH1 0x4 MSTORE PUSH1 0x24 PUSH1 0x0 REVERT JUMPDEST PUSH4 0x4E487B71 PUSH1 0xE0 SHL PUSH1 0x0 MSTORE PUSH1 0x11 PUSH1 0x4 MSTORE PUSH1 0x24 PUSH1 0x0 REVERT JUMPDEST PUSH1 0x0 DUP3 PUSH3 0x273 JUMPI PUSH3 0x273 PUSH3 0x235 JUMP JUMPDEST POP DIV SWAP1 JUMP JUMPDEST DUP1 DUP3 ADD DUP1 DUP3 GT ISZERO PUSH3 0x28E JUMPI PUSH3 0x28E PUSH3 0x24B JUMP JUMPDEST SWAP3 SWAP2 POP POP JUMP JUMPDEST PUSH1 0x0 DUP3 PUSH3 0x2A6 JUMPI PUSH3 0x2A6 PUSH3 0x235 JUMP JUMPDEST POP MOD SWAP1 JUMP JUMPDEST DUP1 DUP3 MUL DUP2 ISZERO DUP3 DUP3 DIV DUP5 EQ OR PUSH3 0x28E JUMPI PUSH3 0x28E PUSH3 0x24B JUMP JUMPDEST DUP2 DUP2 SUB DUP2 DUP2 GT ISZERO PUSH3 0x28E JUMPI PUSH3 0x28E PUSH3 0x24B JUMP JUMPDEST PUSH2 0x19A7 DUP1 PUSH3 0x2EB PUSH1 0x0 CODECOPY PUSH1 0x0 RETURN INVALID PUSH1 0x80 PUSH1 0x40 MSTORE CALLVALUE DUP1 ISZERO PUSH2 0x10 JUMPI PUSH1 0x0 DUP1 REVERT JUMPDEST POP PUSH1 0x4 CALLDATASIZE LT PUSH2 0x142 JUMPI PUSH1 0x0 CALLDATALOAD PUSH1 0xE0 SHR DUP1 PUSH4 0xAB2A79F9 GT PUSH2 0xB8 JUMPI DUP1 PUSH4 0xDC185E35 GT PUSH2 0x7C JUMPI DUP1 PUSH4 0xDC185E35 EQ PUSH2 0x26F JUMPI DUP1 PUSH4 0xDD49756E EQ PUSH2 0x279 JUMPI DUP1 PUSH4 0xE2734C93 EQ PUSH2 0x28C JUMPI DUP1 PUSH4 0xEB770D0C EQ PUSH2 0x2B5 JUMPI DUP1 PUSH4 0xF2FDE38B EQ PUSH2 0x2C8 JUMPI DUP1 PUSH4 0xFA5B1A7F EQ PUSH2 0x2DB JUMPI PUSH1 0x0 DUP1 REVERT JUMPDEST DUP1 PUSH4 0xAB2A79F9 EQ PUSH2 0x22E JUMPI DUP1 PUSH4 0xBCB39621 EQ PUSH2 0x236 JUMPI DUP1 PUSH4 0xCBD3F962 EQ PUSH2 0x23F JUMPI DUP1 PUSH4 0xD3B30B75 EQ PUSH2 0x254 JUMPI DUP1 PUSH4 0xDA8C7792 EQ PUSH2 0x25C JUMPI PUSH1 0x0 DUP1 REVERT JUMPDEST DUP1 PUSH4 0x715018A6 GT PUSH2 0x10A JUMPI DUP1 PUSH4 0x715018A6 EQ PUSH2 0x1D0 JUMPI DUP1 PUSH4 0x7971999A EQ PUSH2 0x1D8 JUMPI DUP1 PUSH4 0x7B38314C EQ PUSH2 0x1E1 JUMPI DUP1 PUSH4 0x8104AE4D EQ PUSH2 0x201 JUMPI DUP1 PUSH4 0x8D667564 EQ PUSH2 0x20A JUMPI DUP1 PUSH4 0x8DA5CB5B EQ PUSH2 0x21D JUMPI PUSH1 0x0 DUP1 REVERT JUMPDEST DUP1 PUSH4 0x102DF25 EQ PUSH2 0x147 JUMPI DUP1 PUSH4 0x72EA61C EQ PUSH2 0x177 JUMPI DUP1 PUSH4 0x218BD577 EQ PUSH2 0x18E JUMPI DUP1 PUSH4 0x33F707D1 EQ PUSH2 0x198 JUMPI DUP1 PUSH4 0x54C237B7 EQ PUSH2 0x1AB JUMPI JUMPDEST PUSH1 0x0 DUP1 REVERT JUMPDEST PUSH1 0x2 SLOAD PUSH2 0x15A SWAP1 PUSH1 0x1 PUSH1 0x1 PUSH1 0xA0 SHL SUB AND DUP2 JUMP JUMPDEST PUSH1 0x40 MLOAD PUSH1 0x1 PUSH1 0x1 PUSH1 0xA0 SHL SUB SWAP1 SWAP2 AND DUP2 MSTORE PUSH1 0x20 ADD JUMPDEST PUSH1 0x40 MLOAD DUP1 SWAP2 SUB SWAP1 RETURN JUMPDEST PUSH2 0x180 PUSH1 0x3 SLOAD DUP2 JUMP JUMPDEST PUSH1 0x40 MLOAD SWAP1 DUP2 MSTORE PUSH1 0x20 ADD PUSH2 0x16E JUMP JUMPDEST PUSH2 0x196 PUSH2 0x2EE JUMP JUMPDEST STOP JUMPDEST PUSH2 0x196 PUSH2 0x1A6 CALLDATASIZE PUSH1 0x4 PUSH2 0x1630 JUMP JUMPDEST PUSH2 0x454 JUMP JUMPDEST PUSH2 0x1BE PUSH2 0x1B9 CALLDATASIZE PUSH1 0x4 PUSH2 0x1630 JUMP JUMPDEST PUSH2 0x580 JUMP JUMPDEST PUSH1 0x40 MLOAD PUSH1 0xFF SWAP1 SWAP2 AND DUP2 MSTORE PUSH1 0x20 ADD PUSH2 0x16E JUMP JUMPDEST PUSH2 0x196 PUSH2 0x5AA JUMP JUMPDEST PUSH2 0x180 PUSH1 0x5 SLOAD DUP2 JUMP JUMPDEST PUSH2 0x180 PUSH2 0x1EF CALLDATASIZE PUSH1 0x4 PUSH2 0x1665 JUMP JUMPDEST PUSH1 0x8 PUSH1 0x20 MSTORE PUSH1 0x0 SWAP1 DUP2 MSTORE PUSH1 0x40 SWAP1 KECCAK256 SLOAD DUP2 JUMP JUMPDEST PUSH2 0x180 PUSH1 0x6 SLOAD DUP2 JUMP JUMPDEST PUSH2 0x196 PUSH2 0x218 CALLDATASIZE PUSH1 0x4 PUSH2 0x169E JUMP JUMPDEST PUSH2 0x5BC JUMP JUMPDEST PUSH1 0x0 SLOAD PUSH1 0x1 PUSH1 0x1 PUSH1 0xA0 SHL SUB AND PUSH2 0x15A JUMP JUMPDEST PUSH2 0x180 PUSH2 0x710 JUMP JUMPDEST PUSH2 0x180 PUSH1 0x7 SLOAD DUP2 JUMP JUMPDEST PUSH2 0x247 PUSH2 0x728 JUMP JUMPDEST PUSH1 0x40 MLOAD PUSH2 0x16E SWAP2 SWAP1 PUSH2 0x16E0 JUMP JUMPDEST PUSH1 0x7 SLOAD PUSH2 0x180 JUMP JUMPDEST PUSH2 0x196 PUSH2 0x26A CALLDATASIZE PUSH1 0x4 PUSH2 0x169E JUMP JUMPDEST PUSH2 0x780 JUMP JUMPDEST PUSH2 0x180 PUSH3 0x93A80 DUP2 JUMP JUMPDEST PUSH2 0x196 PUSH2 0x287 CALLDATASIZE PUSH1 0x4 PUSH2 0x1630 JUMP JUMPDEST PUSH2 0xA2F JUMP JUMPDEST PUSH2 0x180 PUSH2 0x29A CALLDATASIZE PUSH1 0x4 PUSH2 0x1665 JUMP JUMPDEST PUSH1 0x1 PUSH1 0x1 PUSH1 0xA0 SHL SUB AND PUSH1 0x0 SWAP1 DUP2 MSTORE PUSH1 0x8 PUSH1 0x20 MSTORE PUSH1 0x40 SWAP1 KECCAK256 SLOAD SWAP1 JUMP JUMPDEST PUSH2 0x196 PUSH2 0x2C3 CALLDATASIZE PUSH1 0x4 PUSH2 0x1630 JUMP JUMPDEST PUSH2 0xB06 JUMP JUMPDEST PUSH2 0x196 PUSH2 0x2D6 CALLDATASIZE PUSH1 0x4 PUSH2 0x1665 JUMP JUMPDEST PUSH2 0xBAF JUMP JUMPDEST PUSH2 0x196 PUSH2 0x2E9 CALLDATASIZE PUSH1 0x4 PUSH2 0x169E JUMP JUMPDEST PUSH2 0xC25 JUMP JUMPDEST PUSH2 0x2F6 PUSH2 0x1159 JUMP JUMPDEST PUSH3 0x93A80 PUSH1 0x6 SLOAD PUSH2 0x307 SWAP2 SWAP1 PUSH2 0x1704 JUMP JUMPDEST TIMESTAMP LT PUSH2 0x352 JUMPI PUSH1 0x0 PUSH3 0x93A80 PUSH1 0x6 SLOAD TIMESTAMP PUSH2 0x321 SWAP2 SWAP1 PUSH2 0x1717 JUMP JUMPDEST PUSH2 0x32B SWAP2 SWAP1 PUSH2 0x1740 JUMP JUMPDEST SWAP1 POP PUSH2 0x33A PUSH3 0x93A80 DUP3 PUSH2 0x1754 JUMP JUMPDEST PUSH1 0x6 PUSH1 0x0 DUP3 DUP3 SLOAD PUSH2 0x34B SWAP2 SWAP1 PUSH2 0x1704 JUMP JUMPDEST SWAP1 SWAP2 SSTORE POP POP POP JUMPDEST PUSH1 0x3 SLOAD CALLER PUSH1 0x0 SWAP1 DUP2 MSTORE PUSH1 0x8 PUSH1 0x20 MSTORE PUSH1 0x40 SWAP1 KECCAK256 SLOAD LT PUSH2 0x397 JUMPI PUSH1 0x3 SLOAD CALLER PUSH1 0x0 SWAP1 DUP2 MSTORE PUSH1 0x8 PUSH1 0x20 MSTORE PUSH1 0x40 DUP2 KECCAK256 DUP1 SLOAD SWAP1 SWAP2 SWAP1 PUSH2 0x38C SWAP1 DUP5 SWAP1 PUSH2 0x1717 JUMP JUMPDEST SWAP1 SWAP2 SSTORE POP PUSH2 0x3B6 SWAP1 POP JUMP JUMPDEST PUSH1 0x3 SLOAD PUSH1 0x2 SLOAD PUSH2 0x3B6 SWAP2 PUSH1 0x1 PUSH1 0x1 PUSH1 0xA0 SHL SUB SWAP1 SWAP2 AND SWAP1 CALLER SWAP1 ADDRESS SWAP1 PUSH2 0x11B2 JUMP JUMPDEST PUSH1 0x3 SLOAD PUSH1 0x5 PUSH1 0x0 DUP3 DUP3 SLOAD PUSH2 0x3CA SWAP2 SWAP1 PUSH2 0x1704 JUMP JUMPDEST SWAP1 SWAP2 SSTORE POP POP PUSH1 0x3 SLOAD PUSH1 0x40 DUP1 MLOAD SWAP2 DUP3 MSTORE TIMESTAMP PUSH1 0x20 DUP4 ADD MSTORE CALLER SWAP2 PUSH32 0xFDFDCF596161B0E81E3161597D46888DCC88BD83B22DCFB341C76377CA3BBC9E SWAP2 ADD PUSH1 0x40 MLOAD DUP1 SWAP2 SUB SWAP1 LOG2 PUSH1 0x3 SLOAD PUSH1 0x40 DUP1 MLOAD SWAP2 DUP3 MSTORE TIMESTAMP PUSH1 0x20 DUP4 ADD MSTORE CALLER SWAP2 PUSH32 0x9A1A3C45C9A593FE515B398AAC3639ED6AC33D78B8C7EEB8F81241E8ECF65EE9 SWAP2 ADD PUSH1 0x40 MLOAD DUP1 SWAP2 SUB SWAP1 LOG2 PUSH2 0x452 PUSH1 0x1 DUP1 SSTORE JUMP JUMPDEST JUMP JUMPDEST PUSH2 0x45C PUSH2 0x1223 JUMP JUMPDEST PUSH2 0x464 PUSH2 0x1159 JUMP JUMPDEST PUSH1 0x5 SLOAD DUP2 GT ISZERO PUSH2 0x4BB JUMPI PUSH1 0x40 MLOAD PUSH3 0x461BCD PUSH1 0xE5 SHL DUP2 MSTORE PUSH1 0x20 PUSH1 0x4 DUP3 ADD MSTORE PUSH1 0x1E PUSH1 0x24 DUP3 ADD MSTORE PUSH32 0x416D6F756E74206578636565647320617661696C61626C652066756E64730000 PUSH1 0x44 DUP3 ADD MSTORE PUSH1 0x64 ADD JUMPDEST PUSH1 0x40 MLOAD DUP1 SWAP2 SUB SWAP1 REVERT JUMPDEST DUP1 PUSH1 0x5 PUSH1 0x0 DUP3 DUP3 SLOAD PUSH2 0x4CD SWAP2 SWAP1 PUSH2 0x1717 JUMP JUMPDEST SWAP1 SWAP2 SSTORE POP POP PUSH1 0x0 SLOAD PUSH2 0x4F5 SWAP1 PUSH1 0x1 PUSH1 0x1 PUSH1 0xA0 SHL SUB AND PUSH1 0x2 SLOAD PUSH1 0x1 PUSH1 0x1 PUSH1 0xA0 SHL SUB AND SWAP1 DUP4 PUSH2 0x127D JUMP JUMPDEST PUSH1 0x0 SLOAD PUSH1 0x40 DUP1 MLOAD DUP4 DUP2 MSTORE TIMESTAMP PUSH1 0x20 DUP3 ADD MSTORE PUSH1 0x1 PUSH1 0x1 PUSH1 0xA0 SHL SUB SWAP1 SWAP3 AND SWAP2 PUSH32 0xFFE903C0ABE6B2DBB2F3474EF43D7A3C1FCA49E5A774453423CA8E1952AABFFA SWAP2 ADD PUSH1 0x40 MLOAD DUP1 SWAP2 SUB SWAP1 LOG2 PUSH1 0x40 DUP1 MLOAD DUP3 DUP2 MSTORE TIMESTAMP PUSH1 0x20 DUP3 ADD MSTORE PUSH32 0x1DCB27F9812D159CC6EA3F1338EC78646F39B830096254199C14E2228950C1C8 SWAP2 ADD PUSH1 0x40 MLOAD DUP1 SWAP2 SUB SWAP1 LOG1 PUSH2 0x57D PUSH1 0x1 DUP1 SSTORE JUMP JUMPDEST POP JUMP JUMPDEST PUSH1 0x4 DUP2 PUSH1 0x5 DUP2 LT PUSH2 0x590 JUMPI PUSH1 0x0 DUP1 REVERT JUMPDEST PUSH1 0x20 SWAP2 DUP3 DUP3 DIV ADD SWAP2 SWAP1 MOD SWAP2 POP SLOAD SWAP1 PUSH2 0x100 EXP SWAP1 DIV PUSH1 0xFF AND DUP2 JUMP JUMPDEST PUSH2 0x5B2 PUSH2 0x1223 JUMP JUMPDEST PUSH2 0x452 PUSH1 0x0 PUSH2 0x12B2 JUMP JUMPDEST PUSH2 0x5C4 PUSH2 0x1223 JUMP JUMPDEST PUSH1 0x0 DUP1 JUMPDEST PUSH1 0x5 DUP2 PUSH1 0xFF AND LT ISZERO PUSH2 0x61D JUMPI DUP3 DUP2 PUSH1 0xFF AND PUSH1 0x5 DUP2 LT PUSH2 0x5E9 JUMPI PUSH2 0x5E9 PUSH2 0x176B JUMP JUMPDEST PUSH1 0x20 MUL ADD PUSH1 0x20 DUP2 ADD SWAP1 PUSH2 0x5FC SWAP2 SWAP1 PUSH2 0x1792 JUMP JUMPDEST PUSH2 0x609 SWAP1 PUSH1 0xFF AND DUP4 PUSH2 0x17AD JUMP JUMPDEST SWAP2 POP DUP1 PUSH2 0x615 DUP2 PUSH2 0x17CF JUMP JUMPDEST SWAP2 POP POP PUSH2 0x5C8 JUMP JUMPDEST POP DUP1 PUSH2 0xFFFF AND PUSH1 0x64 EQ PUSH2 0x672 JUMPI PUSH1 0x40 MLOAD PUSH3 0x461BCD PUSH1 0xE5 SHL DUP2 MSTORE PUSH1 0x20 PUSH1 0x4 DUP3 ADD MSTORE PUSH1 0x1E PUSH1 0x24 DUP3 ADD MSTORE PUSH32 0x50657263656E7461676573206D7573742061646420757020746F203130300000 PUSH1 0x44 DUP3 ADD MSTORE PUSH1 0x64 ADD PUSH2 0x4B2 JUMP JUMPDEST PUSH1 0x40 DUP1 MLOAD PUSH1 0xA0 DUP2 ADD SWAP2 DUP3 SWAP1 MSTORE PUSH1 0x0 SWAP2 PUSH1 0x4 SWAP1 PUSH1 0x5 SWAP1 DUP3 DUP6 DUP6 JUMPDEST DUP3 SLOAD PUSH2 0x100 DUP4 SWAP1 EXP SWAP1 DIV PUSH1 0xFF AND DUP2 MSTORE PUSH1 0x20 PUSH1 0x1 SWAP3 DUP4 ADD DUP2 DUP2 DIV SWAP5 DUP6 ADD SWAP5 SWAP1 SWAP4 SUB SWAP1 SWAP3 MUL SWAP2 ADD DUP1 DUP5 GT PUSH2 0x68B JUMPI SWAP1 POP POP POP POP POP POP SWAP1 POP DUP3 PUSH1 0x4 SWAP1 PUSH1 0x5 PUSH2 0x6D1 SWAP3 SWAP2 SWAP1 PUSH2 0x1567 JUMP JUMPDEST POP PUSH32 0xD8398B26CFF3564D354793D25B095BD15773387CDF28C90D94A1AD524BDAEB7B DUP2 DUP5 PUSH1 0x40 MLOAD PUSH2 0x703 SWAP3 SWAP2 SWAP1 PUSH2 0x17EE JUMP JUMPDEST PUSH1 0x40 MLOAD DUP1 SWAP2 SUB SWAP1 LOG1 POP POP POP JUMP JUMPDEST PUSH1 0x0 PUSH3 0x93A80 PUSH1 0x6 SLOAD PUSH2 0x723 SWAP2 SWAP1 PUSH2 0x1704 JUMP JUMPDEST SWAP1 POP SWAP1 JUMP JUMPDEST PUSH2 0x730 PUSH2 0x15FD JUMP JUMPDEST PUSH1 0x40 DUP1 MLOAD PUSH1 0xA0 DUP2 ADD SWAP2 DUP3 SWAP1 MSTORE SWAP1 PUSH1 0x4 SWAP1 PUSH1 0x5 SWAP1 DUP3 PUSH1 0x0 DUP6 JUMPDEST DUP3 SLOAD PUSH2 0x100 DUP4 SWAP1 EXP SWAP1 DIV PUSH1 0xFF AND DUP2 MSTORE PUSH1 0x20 PUSH1 0x1 SWAP3 DUP4 ADD DUP2 DUP2 DIV SWAP5 DUP6 ADD SWAP5 SWAP1 SWAP4 SUB SWAP1 SWAP3 MUL SWAP2 ADD DUP1 DUP5 GT PUSH2 0x748 JUMPI SWAP1 POP POP POP POP POP POP SWAP1 POP SWAP1 JUMP JUMPDEST PUSH2 0x788 PUSH2 0x1223 JUMP JUMPDEST PUSH2 0x790 PUSH2 0x1159 JUMP JUMPDEST PUSH1 0x0 PUSH1 0x5 SLOAD GT PUSH2 0x7DC JUMPI PUSH1 0x40 MLOAD PUSH3 0x461BCD PUSH1 0xE5 SHL DUP2 MSTORE PUSH1 0x20 PUSH1 0x4 DUP3 ADD MSTORE PUSH1 0x17 PUSH1 0x24 DUP3 ADD MSTORE PUSH23 0x4E6F207072697A657320746F2064697374726962757465 PUSH1 0x48 SHL PUSH1 0x44 DUP3 ADD MSTORE PUSH1 0x64 ADD PUSH2 0x4B2 JUMP JUMPDEST PUSH1 0x0 PUSH2 0x7E6 PUSH2 0x15FD JUMP JUMPDEST PUSH1 0x0 JUMPDEST PUSH1 0x5 DUP2 PUSH1 0xFF AND LT ISZERO PUSH2 0x9D0 JUMPI PUSH1 0x0 DUP5 PUSH1 0xFF DUP4 AND PUSH1 0x5 DUP2 LT PUSH2 0x80C JUMPI PUSH2 0x80C PUSH2 0x176B JUMP JUMPDEST PUSH1 0x20 MUL ADD PUSH1 0x20 DUP2 ADD SWAP1 PUSH2 0x81F SWAP2 SWAP1 PUSH2 0x1665 JUMP JUMPDEST PUSH1 0x1 PUSH1 0x1 PUSH1 0xA0 SHL SUB AND SUB PUSH2 0x86E JUMPI PUSH1 0x40 MLOAD PUSH3 0x461BCD PUSH1 0xE5 SHL DUP2 MSTORE PUSH1 0x20 PUSH1 0x4 DUP3 ADD MSTORE PUSH1 0x16 PUSH1 0x24 DUP3 ADD MSTORE PUSH22 0x496E76616C69642077696E6E65722061646472657373 PUSH1 0x50 SHL PUSH1 0x44 DUP3 ADD MSTORE PUSH1 0x64 ADD PUSH2 0x4B2 JUMP JUMPDEST PUSH1 0x0 PUSH1 0x64 PUSH1 0x4 DUP4 PUSH1 0xFF AND PUSH1 0x5 DUP2 LT PUSH2 0x888 JUMPI PUSH2 0x888 PUSH2 0x176B JUMP JUMPDEST PUSH1 0x20 SWAP2 DUP3 DUP3 DIV ADD SWAP2 SWAP1 MOD SWAP1 SLOAD SWAP1 PUSH2 0x100 EXP SWAP1 DIV PUSH1 0xFF AND PUSH1 0xFF AND PUSH1 0x5 SLOAD PUSH2 0x8AE SWAP2 SWAP1 PUSH2 0x1754 JUMP JUMPDEST PUSH2 0x8B8 SWAP2 SWAP1 PUSH2 0x1740 JUMP JUMPDEST SWAP1 POP DUP1 DUP4 DUP4 PUSH1 0xFF AND PUSH1 0x5 DUP2 LT PUSH2 0x8D0 JUMPI PUSH2 0x8D0 PUSH2 0x176B JUMP JUMPDEST PUSH1 0x20 MUL ADD MSTORE PUSH2 0x8DF DUP2 DUP6 PUSH2 0x1704 JUMP JUMPDEST SWAP4 POP DUP1 ISZERO PUSH2 0x9BD JUMPI DUP1 PUSH1 0x8 PUSH1 0x0 DUP8 DUP6 PUSH1 0xFF AND PUSH1 0x5 DUP2 LT PUSH2 0x901 JUMPI PUSH2 0x901 PUSH2 0x176B JUMP JUMPDEST PUSH1 0x20 MUL ADD PUSH1 0x20 DUP2 ADD SWAP1 PUSH2 0x914 SWAP2 SWAP1 PUSH2 0x1665 JUMP JUMPDEST PUSH1 0x1 PUSH1 0x1 PUSH1 0xA0 SHL SUB AND PUSH1 0x1 PUSH1 0x1 PUSH1 0xA0 SHL SUB AND DUP2 MSTORE PUSH1 0x20 ADD SWAP1 DUP2 MSTORE PUSH1 0x20 ADD PUSH1 0x0 KECCAK256 PUSH1 0x0 DUP3 DUP3 SLOAD PUSH2 0x943 SWAP2 SWAP1 PUSH2 0x1704 JUMP JUMPDEST SWAP1 SWAP2 SSTORE POP DUP6 SWAP1 POP PUSH1 0xFF DUP4 AND PUSH1 0x5 DUP2 LT PUSH2 0x95E JUMPI PUSH2 0x95E PUSH2 0x176B JUMP JUMPDEST PUSH1 0x20 MUL ADD PUSH1 0x20 DUP2 ADD SWAP1 PUSH2 0x971 SWAP2 SWAP1 PUSH2 0x1665 JUMP JUMPDEST PUSH1 0x1 PUSH1 0x1 PUSH1 0xA0 SHL SUB AND PUSH32 0xFFE903C0ABE6B2DBB2F3474EF43D7A3C1FCA49E5A774453423CA8E1952AABFFA DUP3 TIMESTAMP PUSH1 0x40 MLOAD PUSH2 0x9B4 SWAP3 SWAP2 SWAP1 SWAP2 DUP3 MSTORE PUSH1 0x20 DUP3 ADD MSTORE PUSH1 0x40 ADD SWAP1 JUMP JUMPDEST PUSH1 0x40 MLOAD DUP1 SWAP2 SUB SWAP1 LOG2 JUMPDEST POP DUP1 PUSH2 0x9C8 DUP2 PUSH2 0x17CF JUMP JUMPDEST SWAP2 POP POP PUSH2 0x7E9 JUMP JUMPDEST POP DUP2 PUSH1 0x5 PUSH1 0x0 DUP3 DUP3 SLOAD PUSH2 0x9E3 SWAP2 SWAP1 PUSH2 0x1717 JUMP JUMPDEST SWAP1 SWAP2 SSTORE POP POP PUSH1 0x40 MLOAD PUSH32 0xD93AB995EE7186DFC23E3168E2C5E45CDE1983AE0012C996CE229EF657772212 SWAP1 PUSH2 0xA1C SWAP1 DUP6 SWAP1 DUP5 SWAP1 DUP7 SWAP1 PUSH2 0x1839 JUMP JUMPDEST PUSH1 0x40 MLOAD DUP1 SWAP2 SUB SWAP1 LOG1 POP POP PUSH2 0x57D PUSH1 0x1 DUP1 SSTORE JUMP JUMPDEST PUSH2 0xA37 PUSH2 0x1159 JUMP JUMPDEST PUSH1 0x0 DUP2 GT PUSH2 0xA87 JUMPI PUSH1 0x40 MLOAD PUSH3 0x461BCD PUSH1 0xE5 SHL DUP2 MSTORE PUSH1 0x20 PUSH1 0x4 DUP3 ADD DUP2 SWAP1 MSTORE PUSH1 0x24 DUP3 ADD MSTORE PUSH32 0x416D6F756E74206D7573742062652067726561746572207468616E207A65726F PUSH1 0x44 DUP3 ADD MSTORE PUSH1 0x64 ADD PUSH2 0x4B2 JUMP JUMPDEST PUSH1 0x2 SLOAD PUSH2 0xA9F SWAP1 PUSH1 0x1 PUSH1 0x1 PUSH1 0xA0 SHL SUB AND CALLER ADDRESS DUP5 PUSH2 0x11B2 JUMP JUMPDEST CALLER PUSH1 0x0 SWAP1 DUP2 MSTORE PUSH1 0x8 PUSH1 0x20 MSTORE PUSH1 0x40 DUP2 KECCAK256 DUP1 SLOAD DUP4 SWAP3 SWAP1 PUSH2 0xABE SWAP1 DUP5 SWAP1 PUSH2 0x1704 JUMP JUMPDEST SWAP1 SWAP2 SSTORE POP POP PUSH1 0x40 DUP1 MLOAD DUP3 DUP2 MSTORE TIMESTAMP PUSH1 0x20 DUP3 ADD MSTORE CALLER SWAP2 PUSH32 0xFDFDCF596161B0E81E3161597D46888DCC88BD83B22DCFB341C76377CA3BBC9E SWAP2 ADD PUSH1 0x40 MLOAD DUP1 SWAP2 SUB SWAP1 LOG2 PUSH2 0x57D PUSH1 0x1 DUP1 SSTORE JUMP JUMPDEST PUSH2 0xB0E PUSH2 0x1223 JUMP JUMPDEST PUSH1 0x0 DUP2 GT PUSH2 0xB6A JUMPI PUSH1 0x40 MLOAD PUSH3 0x461BCD PUSH1 0xE5 SHL DUP2 MSTORE PUSH1 0x20 PUSH1 0x4 DUP3 ADD MSTORE PUSH1 0x23 PUSH1 0x24 DUP3 ADD MSTORE PUSH32 0x456E74727920666565206D7573742062652067726561746572207468616E207A PUSH1 0x44 DUP3 ADD MSTORE PUSH3 0x65726F PUSH1 0xE8 SHL PUSH1 0x64 DUP3 ADD MSTORE PUSH1 0x84 ADD PUSH2 0x4B2 JUMP JUMPDEST PUSH1 0x3 DUP1 SLOAD SWAP1 DUP3 SWAP1 SSTORE PUSH1 0x40 DUP1 MLOAD DUP3 DUP2 MSTORE PUSH1 0x20 DUP2 ADD DUP5 SWAP1 MSTORE PUSH32 0x6A75D918A59DA9597A749B7C707F23CFA76552074B43C68A24A21DB1C45841F1 SWAP2 ADD PUSH1 0x40 MLOAD DUP1 SWAP2 SUB SWAP1 LOG1 POP POP JUMP JUMPDEST PUSH2 0xBB7 PUSH2 0x1223 JUMP JUMPDEST PUSH1 0x1 PUSH1 0x1 PUSH1 0xA0 SHL SUB DUP2 AND PUSH2 0xC1C JUMPI PUSH1 0x40 MLOAD PUSH3 0x461BCD PUSH1 0xE5 SHL DUP2 MSTORE PUSH1 0x20 PUSH1 0x4 DUP3 ADD MSTORE PUSH1 0x26 PUSH1 0x24 DUP3 ADD MSTORE PUSH32 0x4F776E61626C653A206E6577206F776E657220697320746865207A65726F2061 PUSH1 0x44 DUP3 ADD MSTORE PUSH6 0x646472657373 PUSH1 0xD0 SHL PUSH1 0x64 DUP3 ADD MSTORE PUSH1 0x84 ADD PUSH2 0x4B2 JUMP JUMPDEST PUSH2 0x57D DUP2 PUSH2 0x12B2 JUMP JUMPDEST PUSH2 0xC2D PUSH2 0x1223 JUMP JUMPDEST PUSH2 0xC35 PUSH2 0x1159 JUMP JUMPDEST PUSH1 0x0 PUSH1 0x5 SLOAD GT PUSH2 0xC81 JUMPI PUSH1 0x40 MLOAD PUSH3 0x461BCD PUSH1 0xE5 SHL DUP2 MSTORE PUSH1 0x20 PUSH1 0x4 DUP3 ADD MSTORE PUSH1 0x17 PUSH1 0x24 DUP3 ADD MSTORE PUSH23 0x4E6F207072697A657320746F2064697374726962757465 PUSH1 0x48 SHL PUSH1 0x44 DUP3 ADD MSTORE PUSH1 0x64 ADD PUSH2 0x4B2 JUMP JUMPDEST PUSH1 0x0 JUMPDEST PUSH1 0x5 DUP2 PUSH1 0xFF AND LT ISZERO PUSH2 0xDF9 JUMPI PUSH1 0x0 DUP3 PUSH1 0xFF DUP4 AND PUSH1 0x5 DUP2 LT PUSH2 0xCA7 JUMPI PUSH2 0xCA7 PUSH2 0x176B JUMP JUMPDEST PUSH1 0x20 MUL ADD PUSH1 0x20 DUP2 ADD SWAP1 PUSH2 0xCBA SWAP2 SWAP1 PUSH2 0x1665 JUMP JUMPDEST PUSH1 0x1 PUSH1 0x1 PUSH1 0xA0 SHL SUB AND SUB PUSH2 0xD09 JUMPI PUSH1 0x40 MLOAD PUSH3 0x461BCD PUSH1 0xE5 SHL DUP2 MSTORE PUSH1 0x20 PUSH1 0x4 DUP3 ADD MSTORE PUSH1 0x16 PUSH1 0x24 DUP3 ADD MSTORE PUSH22 0x496E76616C69642077696E6E65722061646472657373 PUSH1 0x50 SHL PUSH1 0x44 DUP3 ADD MSTORE PUSH1 0x64 ADD PUSH2 0x4B2 JUMP JUMPDEST PUSH1 0x0 PUSH2 0xD16 DUP3 PUSH1 0x1 PUSH2 0x18AF JUMP JUMPDEST SWAP1 POP JUMPDEST PUSH1 0x5 DUP2 PUSH1 0xFF AND LT ISZERO PUSH2 0xDE6 JUMPI DUP3 DUP2 PUSH1 0xFF AND PUSH1 0x5 DUP2 LT PUSH2 0xD3A JUMPI PUSH2 0xD3A PUSH2 0x176B JUMP JUMPDEST PUSH1 0x20 MUL ADD PUSH1 0x20 DUP2 ADD SWAP1 PUSH2 0xD4D SWAP2 SWAP1 PUSH2 0x1665 JUMP JUMPDEST PUSH1 0x1 PUSH1 0x1 PUSH1 0xA0 SHL SUB AND DUP4 DUP4 PUSH1 0xFF AND PUSH1 0x5 DUP2 LT PUSH2 0xD6B JUMPI PUSH2 0xD6B PUSH2 0x176B JUMP JUMPDEST PUSH1 0x20 MUL ADD PUSH1 0x20 DUP2 ADD SWAP1 PUSH2 0xD7E SWAP2 SWAP1 PUSH2 0x1665 JUMP JUMPDEST PUSH1 0x1 PUSH1 0x1 PUSH1 0xA0 SHL SUB AND SUB PUSH2 0xDD4 JUMPI PUSH1 0x40 MLOAD PUSH3 0x461BCD PUSH1 0xE5 SHL DUP2 MSTORE PUSH1 0x20 PUSH1 0x4 DUP3 ADD MSTORE PUSH1 0x18 PUSH1 0x24 DUP3 ADD MSTORE PUSH32 0x4475706C69636174652077696E6E657220616464726573730000000000000000 PUSH1 0x44 DUP3 ADD MSTORE PUSH1 0x64 ADD PUSH2 0x4B2 JUMP JUMPDEST DUP1 PUSH2 0xDDE DUP2 PUSH2 0x17CF JUMP JUMPDEST SWAP2 POP POP PUSH2 0xD19 JUMP JUMPDEST POP DUP1 PUSH2 0xDF1 DUP2 PUSH2 0x17CF JUMP JUMPDEST SWAP2 POP POP PUSH2 0xC84 JUMP JUMPDEST POP PUSH1 0x5 SLOAD PUSH2 0xE05 PUSH2 0x15FD JUMP JUMPDEST PUSH1 0x0 DUP1 JUMPDEST PUSH1 0x4 DUP2 PUSH1 0xFF AND LT ISZERO PUSH2 0xEA8 JUMPI PUSH1 0x64 PUSH1 0x4 DUP3 PUSH1 0xFF AND PUSH1 0x5 DUP2 LT PUSH2 0xE2D JUMPI PUSH2 0xE2D PUSH2 0x176B JUMP JUMPDEST PUSH1 0x20 DUP2 DIV SWAP2 SWAP1 SWAP2 ADD SLOAD PUSH2 0xE4C SWAP2 PUSH1 0x1F AND PUSH2 0x100 EXP SWAP1 DIV PUSH1 0xFF AND DUP7 PUSH2 0x1754 JUMP JUMPDEST PUSH2 0xE56 SWAP2 SWAP1 PUSH2 0x1740 JUMP JUMPDEST DUP4 DUP3 PUSH1 0xFF AND PUSH1 0x5 DUP2 LT PUSH2 0xE6B JUMPI PUSH2 0xE6B PUSH2 0x176B JUMP JUMPDEST PUSH1 0x20 MUL ADD MSTORE DUP3 PUSH1 0xFF DUP3 AND PUSH1 0x5 DUP2 LT PUSH2 0xE85 JUMPI PUSH2 0xE85 PUSH2 0x176B JUMP JUMPDEST PUSH1 0x20 MUL ADD MLOAD PUSH2 0xE94 SWAP1 DUP4 PUSH2 0x1704 JUMP JUMPDEST SWAP2 POP DUP1 PUSH2 0xEA0 DUP2 PUSH2 0x17CF JUMP JUMPDEST SWAP2 POP POP PUSH2 0xE09 JUMP JUMPDEST POP PUSH2 0xEB3 DUP2 DUP5 PUSH2 0x1717 JUMP JUMPDEST PUSH1 0x80 DUP4 ADD MSTORE PUSH1 0x0 JUMPDEST PUSH1 0x5 DUP2 PUSH1 0xFF AND LT ISZERO PUSH2 0x1097 JUMPI PUSH1 0x0 DUP4 DUP3 PUSH1 0xFF AND PUSH1 0x5 DUP2 LT PUSH2 0xEDE JUMPI PUSH2 0xEDE PUSH2 0x176B JUMP JUMPDEST PUSH1 0x20 MUL ADD MLOAD GT ISZERO PUSH2 0x1085 JUMPI DUP3 DUP2 PUSH1 0xFF AND PUSH1 0x5 DUP2 LT PUSH2 0xEFE JUMPI PUSH2 0xEFE PUSH2 0x176B JUMP JUMPDEST PUSH1 0x20 MUL ADD MLOAD PUSH1 0x8 PUSH1 0x0 DUP8 DUP5 PUSH1 0xFF AND PUSH1 0x5 DUP2 LT PUSH2 0xF1C JUMPI PUSH2 0xF1C PUSH2 0x176B JUMP JUMPDEST PUSH1 0x20 MUL ADD PUSH1 0x20 DUP2 ADD SWAP1 PUSH2 0xF2F SWAP2 SWAP1 PUSH2 0x1665 JUMP JUMPDEST PUSH1 0x1 PUSH1 0x1 PUSH1 0xA0 SHL SUB AND PUSH1 0x1 PUSH1 0x1 PUSH1 0xA0 SHL SUB AND DUP2 MSTORE PUSH1 0x20 ADD SWAP1 DUP2 MSTORE PUSH1 0x20 ADD PUSH1 0x0 KECCAK256 PUSH1 0x0 DUP3 DUP3 SLOAD PUSH2 0xF5E SWAP2 SWAP1 PUSH2 0x1704 JUMP JUMPDEST SWAP1 SWAP2 SSTORE POP DUP6 SWAP1 POP PUSH1 0xFF DUP3 AND PUSH1 0x5 DUP2 LT PUSH2 0xF79 JUMPI PUSH2 0xF79 PUSH2 0x176B JUMP JUMPDEST PUSH1 0x20 MUL ADD PUSH1 0x20 DUP2 ADD SWAP1 PUSH2 0xF8C SWAP2 SWAP1 PUSH2 0x1665 JUMP JUMPDEST PUSH1 0x1 PUSH1 0x1 PUSH1 0xA0 SHL SUB AND PUSH32 0xFFE903C0ABE6B2DBB2F3474EF43D7A3C1FCA49E5A774453423CA8E1952AABFFA DUP5 DUP4 PUSH1 0xFF AND PUSH1 0x5 DUP2 LT PUSH2 0xFCB JUMPI PUSH2 0xFCB PUSH2 0x176B JUMP JUMPDEST PUSH1 0x20 MUL ADD MLOAD TIMESTAMP PUSH1 0x40 MLOAD PUSH2 0xFE8 SWAP3 SWAP2 SWAP1 SWAP2 DUP3 MSTORE PUSH1 0x20 DUP3 ADD MSTORE PUSH1 0x40 ADD SWAP1 JUMP JUMPDEST PUSH1 0x40 MLOAD DUP1 SWAP2 SUB SWAP1 LOG2 PUSH1 0x7 SLOAD DUP6 DUP3 PUSH1 0xFF AND PUSH1 0x5 DUP2 LT PUSH2 0x1008 JUMPI PUSH2 0x1008 PUSH2 0x176B JUMP JUMPDEST PUSH1 0x20 MUL ADD PUSH1 0x20 DUP2 ADD SWAP1 PUSH2 0x101B SWAP2 SWAP1 PUSH2 0x1665 JUMP JUMPDEST PUSH1 0x1 PUSH1 0x1 PUSH1 0xA0 SHL SUB AND PUSH32 0x975B964C87063CC8A663BDA95ACAFCC123CBD152264733E49DE21A70E9C1BB22 DUP6 DUP5 PUSH1 0xFF AND PUSH1 0x5 DUP2 LT PUSH2 0x105A JUMPI PUSH2 0x105A PUSH2 0x176B JUMP JUMPDEST PUSH1 0x20 MUL ADD MLOAD PUSH2 0x106A DUP6 PUSH1 0x1 PUSH2 0x18AF JUMP JUMPDEST PUSH1 0x40 DUP1 MLOAD SWAP3 DUP4 MSTORE PUSH1 0xFF SWAP1 SWAP2 AND PUSH1 0x20 DUP4 ADD MSTORE ADD PUSH1 0x40 MLOAD DUP1 SWAP2 SUB SWAP1 LOG3 JUMPDEST DUP1 PUSH2 0x108F DUP2 PUSH2 0x17CF JUMP JUMPDEST SWAP2 POP POP PUSH2 0xEBB JUMP JUMPDEST POP PUSH1 0x5 DUP1 SLOAD PUSH1 0x0 SWAP2 DUP3 SWAP1 SSTORE PUSH1 0x7 DUP1 SLOAD SWAP2 SWAP3 PUSH1 0x1 SWAP3 PUSH2 0x10B6 SWAP1 DUP5 SWAP1 PUSH2 0x1704 JUMP JUMPDEST SWAP1 SWAP2 SSTORE POP POP TIMESTAMP PUSH1 0x6 DUP2 SWAP1 SSTORE PUSH1 0x0 SWAP1 PUSH1 0x7 SWAP1 PUSH2 0x10D5 SWAP1 PUSH3 0x15180 SWAP1 PUSH2 0x1740 JUMP JUMPDEST PUSH2 0x10E0 SWAP1 PUSH1 0x4 PUSH2 0x1704 JUMP JUMPDEST PUSH2 0x10EA SWAP2 SWAP1 PUSH2 0x18C8 JUMP JUMPDEST SWAP1 POP PUSH2 0x10F9 DUP2 PUSH3 0x15180 PUSH2 0x1754 JUMP JUMPDEST PUSH1 0x6 SLOAD PUSH2 0x1106 SWAP2 SWAP1 PUSH2 0x1717 JUMP JUMPDEST PUSH1 0x6 SSTORE PUSH1 0x7 SLOAD PUSH2 0x1118 SWAP1 PUSH1 0x1 SWAP1 PUSH2 0x1717 JUMP JUMPDEST PUSH1 0x40 MLOAD DUP4 DUP2 MSTORE PUSH32 0xD84108459AE28F4111F3C851DEE576040E08F18D76D1DC82F0094ABE275B1152 SWAP1 PUSH1 0x20 ADD PUSH1 0x40 MLOAD DUP1 SWAP2 SUB SWAP1 LOG2 POP POP POP POP POP PUSH2 0x57D PUSH1 0x1 DUP1 SSTORE JUMP JUMPDEST PUSH1 0x2 PUSH1 0x1 SLOAD SUB PUSH2 0x11AB JUMPI PUSH1 0x40 MLOAD PUSH3 0x461BCD PUSH1 0xE5 SHL DUP2 MSTORE PUSH1 0x20 PUSH1 0x4 DUP3 ADD MSTORE PUSH1 0x1F PUSH1 0x24 DUP3 ADD MSTORE PUSH32 0x5265656E7472616E637947756172643A207265656E7472616E742063616C6C00 PUSH1 0x44 DUP3 ADD MSTORE PUSH1 0x64 ADD PUSH2 0x4B2 JUMP JUMPDEST PUSH1 0x2 PUSH1 0x1 SSTORE JUMP JUMPDEST PUSH1 0x40 MLOAD PUSH1 0x1 PUSH1 0x1 PUSH1 0xA0 SHL SUB DUP1 DUP6 AND PUSH1 0x24 DUP4 ADD MSTORE DUP4 AND PUSH1 0x44 DUP3 ADD MSTORE PUSH1 0x64 DUP2 ADD DUP3 SWAP1 MSTORE PUSH2 0x121D SWAP1 DUP6 SWAP1 PUSH4 0x23B872DD PUSH1 0xE0 SHL SWAP1 PUSH1 0x84 ADD JUMPDEST PUSH1 0x40 DUP1 MLOAD PUSH1 0x1F NOT DUP2 DUP5 SUB ADD DUP2 MSTORE SWAP2 SWAP1 MSTORE PUSH1 0x20 DUP2 ADD DUP1 MLOAD PUSH1 0x1 PUSH1 0x1 PUSH1 0xE0 SHL SUB AND PUSH1 0x1 PUSH1 0x1 PUSH1 0xE0 SHL SUB NOT SWAP1 SWAP4 AND SWAP3 SWAP1 SWAP3 OR SWAP1 SWAP2 MSTORE PUSH2 0x1302 JUMP JUMPDEST POP POP POP POP JUMP JUMPDEST PUSH1 0x0 SLOAD PUSH1 0x1 PUSH1 0x1 PUSH1 0xA0 SHL SUB AND CALLER EQ PUSH2 0x452 JUMPI PUSH1 0x40 MLOAD PUSH3 0x461BCD PUSH1 0xE5 SHL DUP2 MSTORE PUSH1 0x20 PUSH1 0x4 DUP3 ADD DUP2 SWAP1 MSTORE PUSH1 0x24 DUP3 ADD MSTORE PUSH32 0x4F776E61626C653A2063616C6C6572206973206E6F7420746865206F776E6572 PUSH1 0x44 DUP3 ADD MSTORE PUSH1 0x64 ADD PUSH2 0x4B2 JUMP JUMPDEST PUSH1 0x40 MLOAD PUSH1 0x1 PUSH1 0x1 PUSH1 0xA0 SHL SUB DUP4 AND PUSH1 0x24 DUP3 ADD MSTORE PUSH1 0x44 DUP2 ADD DUP3 SWAP1 MSTORE PUSH2 0x12AD SWAP1 DUP5 SWAP1 PUSH4 0xA9059CBB PUSH1 0xE0 SHL SWAP1 PUSH1 0x64 ADD PUSH2 0x11E6 JUMP JUMPDEST POP POP POP JUMP JUMPDEST PUSH1 0x0 DUP1 SLOAD PUSH1 0x1 PUSH1 0x1 PUSH1 0xA0 SHL SUB DUP4 DUP2 AND PUSH1 0x1 PUSH1 0x1 PUSH1 0xA0 SHL SUB NOT DUP4 AND DUP2 OR DUP5 SSTORE PUSH1 0x40 MLOAD SWAP2 SWAP1 SWAP3 AND SWAP3 DUP4 SWAP2 PUSH32 0x8BE0079C531659141344CD1FD0A4F28419497F9722A3DAAFE3B4186F6B6457E0 SWAP2 SWAP1 LOG3 POP POP JUMP JUMPDEST PUSH1 0x0 PUSH2 0x1357 DUP3 PUSH1 0x40 MLOAD DUP1 PUSH1 0x40 ADD PUSH1 0x40 MSTORE DUP1 PUSH1 0x20 DUP2 MSTORE PUSH1 0x20 ADD PUSH32 0x5361666545524332303A206C6F772D6C6576656C2063616C6C206661696C6564 DUP2 MSTORE POP DUP6 PUSH1 0x1 PUSH1 0x1 PUSH1 0xA0 SHL SUB AND PUSH2 0x13D7 SWAP1 SWAP3 SWAP2 SWAP1 PUSH4 0xFFFFFFFF AND JUMP JUMPDEST SWAP1 POP DUP1 MLOAD PUSH1 0x0 EQ DUP1 PUSH2 0x1378 JUMPI POP DUP1 DUP1 PUSH1 0x20 ADD SWAP1 MLOAD DUP2 ADD SWAP1 PUSH2 0x1378 SWAP2 SWAP1 PUSH2 0x18DC JUMP JUMPDEST PUSH2 0x12AD JUMPI PUSH1 0x40 MLOAD PUSH3 0x461BCD PUSH1 0xE5 SHL DUP2 MSTORE PUSH1 0x20 PUSH1 0x4 DUP3 ADD MSTORE PUSH1 0x2A PUSH1 0x24 DUP3 ADD MSTORE PUSH32 0x5361666545524332303A204552433230206F7065726174696F6E20646964206E PUSH1 0x44 DUP3 ADD MSTORE PUSH10 0x1BDD081CDD58D8D95959 PUSH1 0xB2 SHL PUSH1 0x64 DUP3 ADD MSTORE PUSH1 0x84 ADD PUSH2 0x4B2 JUMP JUMPDEST PUSH1 0x60 PUSH2 0x13E6 DUP5 DUP5 PUSH1 0x0 DUP6 PUSH2 0x13EE JUMP JUMPDEST SWAP5 SWAP4 POP POP POP POP JUMP JUMPDEST PUSH1 0x60 DUP3 SELFBALANCE LT ISZERO PUSH2 0x144F JUMPI PUSH1 0x40 MLOAD PUSH3 0x461BCD PUSH1 0xE5 SHL DUP2 MSTORE PUSH1 0x20 PUSH1 0x4 DUP3 ADD MSTORE PUSH1 0x26 PUSH1 0x24 DUP3 ADD MSTORE PUSH32 0x416464726573733A20696E73756666696369656E742062616C616E636520666F PUSH1 0x44 DUP3 ADD MSTORE PUSH6 0x1C8818D85B1B PUSH1 0xD2 SHL PUSH1 0x64 DUP3 ADD MSTORE PUSH1 0x84 ADD PUSH2 0x4B2 JUMP JUMPDEST PUSH1 0x0 DUP1 DUP7 PUSH1 0x1 PUSH1 0x1 PUSH1 0xA0 SHL SUB AND DUP6 DUP8 PUSH1 0x40 MLOAD PUSH2 0x146B SWAP2 SWAP1 PUSH2 0x1922 JUMP JUMPDEST PUSH1 0x0 PUSH1 0x40 MLOAD DUP1 DUP4 SUB DUP2 DUP6 DUP8 GAS CALL SWAP3 POP POP POP RETURNDATASIZE DUP1 PUSH1 0x0 DUP2 EQ PUSH2 0x14A8 JUMPI PUSH1 0x40 MLOAD SWAP2 POP PUSH1 0x1F NOT PUSH1 0x3F RETURNDATASIZE ADD AND DUP3 ADD PUSH1 0x40 MSTORE RETURNDATASIZE DUP3 MSTORE RETURNDATASIZE PUSH1 0x0 PUSH1 0x20 DUP5 ADD RETURNDATACOPY PUSH2 0x14AD JUMP JUMPDEST PUSH1 0x60 SWAP2 POP JUMPDEST POP SWAP2 POP SWAP2 POP PUSH2 0x14BE DUP8 DUP4 DUP4 DUP8 PUSH2 0x14C9 JUMP JUMPDEST SWAP8 SWAP7 POP POP POP POP POP POP POP JUMP JUMPDEST PUSH1 0x60 DUP4 ISZERO PUSH2 0x1538 JUMPI DUP3 MLOAD PUSH1 0x0 SUB PUSH2 0x1531 JUMPI PUSH1 0x1 PUSH1 0x1 PUSH1 0xA0 SHL SUB DUP6 AND EXTCODESIZE PUSH2 0x1531 JUMPI PUSH1 0x40 MLOAD PUSH3 0x461BCD PUSH1 0xE5 SHL DUP2 MSTORE PUSH1 0x20 PUSH1 0x4 DUP3 ADD MSTORE PUSH1 0x1D PUSH1 0x24 DUP3 ADD MSTORE PUSH32 0x416464726573733A2063616C6C20746F206E6F6E2D636F6E7472616374000000 PUSH1 0x44 DUP3 ADD MSTORE PUSH1 0x64 ADD PUSH2 0x4B2 JUMP JUMPDEST POP DUP2 PUSH2 0x13E6 JUMP JUMPDEST PUSH2 0x13E6 DUP4 DUP4 DUP2 MLOAD ISZERO PUSH2 0x154D JUMPI DUP2 MLOAD DUP1 DUP4 PUSH1 0x20 ADD REVERT JUMPDEST DUP1 PUSH1 0x40 MLOAD PUSH3 0x461BCD PUSH1 0xE5 SHL DUP2 MSTORE PUSH1 0x4 ADD PUSH2 0x4B2 SWAP2 SWAP1 PUSH2 0x193E JUMP JUMPDEST PUSH1 0x1 DUP4 ADD SWAP2 DUP4 SWAP1 DUP3 ISZERO PUSH2 0x15ED JUMPI SWAP2 PUSH1 0x20 MUL DUP3 ADD PUSH1 0x0 JUMPDEST DUP4 DUP3 GT ISZERO PUSH2 0x15BE JUMPI DUP4 CALLDATALOAD PUSH1 0xFF AND DUP4 DUP3 PUSH2 0x100 EXP DUP2 SLOAD DUP2 PUSH1 0xFF MUL NOT AND SWAP1 DUP4 PUSH1 0xFF AND MUL OR SWAP1 SSTORE POP SWAP3 PUSH1 0x20 ADD SWAP3 PUSH1 0x1 ADD PUSH1 0x20 DUP2 PUSH1 0x0 ADD DIV SWAP3 DUP4 ADD SWAP3 PUSH1 0x1 SUB MUL PUSH2 0x157D JUMP JUMPDEST DUP1 ISZERO PUSH2 0x15EB JUMPI DUP3 DUP2 PUSH2 0x100 EXP DUP2 SLOAD SWAP1 PUSH1 0xFF MUL NOT AND SWAP1 SSTORE PUSH1 0x1 ADD PUSH1 0x20 DUP2 PUSH1 0x0 ADD DIV SWAP3 DUP4 ADD SWAP3 PUSH1 0x1 SUB MUL PUSH2 0x15BE JUMP JUMPDEST POP JUMPDEST POP PUSH2 0x15F9 SWAP3 SWAP2 POP PUSH2 0x161B JUMP JUMPDEST POP SWAP1 JUMP JUMPDEST PUSH1 0x40 MLOAD DUP1 PUSH1 0xA0 ADD PUSH1 0x40 MSTORE DUP1 PUSH1 0x5 SWAP1 PUSH1 0x20 DUP3 MUL DUP1 CALLDATASIZE DUP4 CALLDATACOPY POP SWAP2 SWAP3 SWAP2 POP POP JUMP JUMPDEST JUMPDEST DUP1 DUP3 GT ISZERO PUSH2 0x15F9 JUMPI PUSH1 0x0 DUP2 SSTORE PUSH1 0x1 ADD PUSH2 0x161C JUMP JUMPDEST PUSH1 0x0 PUSH1 0x20 DUP3 DUP5 SUB SLT ISZERO PUSH2 0x1642 JUMPI PUSH1 0x0 DUP1 REVERT JUMPDEST POP CALLDATALOAD SWAP2 SWAP1 POP JUMP JUMPDEST DUP1 CALLDATALOAD PUSH1 0x1 PUSH1 0x1 PUSH1 0xA0 SHL SUB DUP2 AND DUP2 EQ PUSH2 0x1660 JUMPI PUSH1 0x0 DUP1 REVERT JUMPDEST SWAP2 SWAP1 POP JUMP JUMPDEST PUSH1 0x0 PUSH1 0x20 DUP3 DUP5 SUB SLT ISZERO PUSH2 0x1677 JUMPI PUSH1 0x0 DUP1 REVERT JUMPDEST PUSH2 0x1680 DUP3 PUSH2 0x1649 JUMP JUMPDEST SWAP4 SWAP3 POP POP POP JUMP JUMPDEST DUP1 PUSH1 0xA0 DUP2 ADD DUP4 LT ISZERO PUSH2 0x1698 JUMPI PUSH1 0x0 DUP1 REVERT JUMPDEST SWAP3 SWAP2 POP POP JUMP JUMPDEST PUSH1 0x0 PUSH1 0xA0 DUP3 DUP5 SUB SLT ISZERO PUSH2 0x16B0 JUMPI PUSH1 0x0 DUP1 REVERT JUMPDEST PUSH2 0x1680 DUP4 DUP4 PUSH2 0x1687 JUMP JUMPDEST DUP1 PUSH1 0x0 JUMPDEST PUSH1 0x5 DUP2 LT ISZERO PUSH2 0x121D JUMPI DUP2 MLOAD PUSH1 0xFF AND DUP5 MSTORE PUSH1 0x20 SWAP4 DUP5 ADD SWAP4 SWAP1 SWAP2 ADD SWAP1 PUSH1 0x1 ADD PUSH2 0x16BE JUMP JUMPDEST PUSH1 0xA0 DUP2 ADD PUSH2 0x1698 DUP3 DUP5 PUSH2 0x16BA JUMP JUMPDEST PUSH4 0x4E487B71 PUSH1 0xE0 SHL PUSH1 0x0 MSTORE PUSH1 0x11 PUSH1 0x4 MSTORE PUSH1 0x24 PUSH1 0x0 REVERT JUMPDEST DUP1 DUP3 ADD DUP1 DUP3 GT ISZERO PUSH2 0x1698 JUMPI PUSH2 0x1698 PUSH2 0x16EE JUMP JUMPDEST DUP2 DUP2 SUB DUP2 DUP2 GT ISZERO PUSH2 0x1698 JUMPI PUSH2 0x1698 PUSH2 0x16EE JUMP JUMPDEST PUSH4 0x4E487B71 PUSH1 0xE0 SHL PUSH1 0x0 MSTORE PUSH1 0x12 PUSH1 0x4 MSTORE PUSH1 0x24 PUSH1 0x0 REVERT JUMPDEST PUSH1 0x0 DUP3 PUSH2 0x174F JUMPI PUSH2 0x174F PUSH2 0x172A JUMP JUMPDEST POP DIV SWAP1 JUMP JUMPDEST DUP1 DUP3 MUL DUP2 ISZERO DUP3 DUP3 DIV DUP5 EQ OR PUSH2 0x1698 JUMPI PUSH2 0x1698 PUSH2 0x16EE JUMP JUMPDEST PUSH4 0x4E487B71 PUSH1 0xE0 SHL PUSH1 0x0 MSTORE PUSH1 0x32 PUSH1 0x4 MSTORE PUSH1 0x24 PUSH1 0x0 REVERT JUMPDEST DUP1 CALLDATALOAD PUSH1 0xFF DUP2 AND DUP2 EQ PUSH2 0x1660 JUMPI PUSH1 0x0 DUP1 REVERT JUMPDEST PUSH1 0x0 PUSH1 0x20 DUP3 DUP5 SUB SLT ISZERO PUSH2 0x17A4 JUMPI PUSH1 0x0 DUP1 REVERT JUMPDEST PUSH2 0x1680 DUP3 PUSH2 0x1781 JUMP JUMPDEST PUSH2 0xFFFF DUP2 DUP2 AND DUP4 DUP3 AND ADD SWAP1 DUP1 DUP3 GT ISZERO PUSH2 0x17C8 JUMPI PUSH2 0x17C8 PUSH2 0x16EE JUMP JUMPDEST POP SWAP3 SWAP2 POP POP JUMP JUMPDEST PUSH1 0x0 PUSH1 0xFF DUP3 AND PUSH1 0xFF DUP2 SUB PUSH2 0x17E5 JUMPI PUSH2 0x17E5 PUSH2 0x16EE JUMP JUMPDEST PUSH1 0x1 ADD SWAP3 SWAP2 POP POP JUMP JUMPDEST PUSH2 0x140 DUP2 ADD PUSH2 0x17FD DUP3 DUP6 PUSH2 0x16BA JUMP JUMPDEST PUSH1 0xA0 DUP3 ADD DUP4 PUSH1 0x0 JUMPDEST PUSH1 0x5 DUP2 LT ISZERO PUSH2 0x182F JUMPI PUSH1 0xFF PUSH2 0x1819 DUP4 PUSH2 0x1781 JUMP JUMPDEST AND DUP4 MSTORE PUSH1 0x20 SWAP3 DUP4 ADD SWAP3 SWAP2 SWAP1 SWAP2 ADD SWAP1 PUSH1 0x1 ADD PUSH2 0x1805 JUMP JUMPDEST POP POP POP SWAP4 SWAP3 POP POP POP JUMP JUMPDEST PUSH2 0x160 DUP2 ADD DUP2 DUP6 PUSH1 0x0 JUMPDEST PUSH1 0x5 DUP2 LT ISZERO PUSH2 0x1873 JUMPI PUSH1 0x1 PUSH1 0x1 PUSH1 0xA0 SHL SUB PUSH2 0x185D DUP4 PUSH2 0x1649 JUMP JUMPDEST AND DUP4 MSTORE PUSH1 0x20 SWAP3 DUP4 ADD SWAP3 SWAP2 SWAP1 SWAP2 ADD SWAP1 PUSH1 0x1 ADD PUSH2 0x1843 JUMP JUMPDEST POP POP POP PUSH1 0xA0 DUP3 ADD DUP5 PUSH1 0x0 JUMPDEST PUSH1 0x5 DUP2 LT ISZERO PUSH2 0x189D JUMPI DUP2 MLOAD DUP4 MSTORE PUSH1 0x20 SWAP3 DUP4 ADD SWAP3 SWAP1 SWAP2 ADD SWAP1 PUSH1 0x1 ADD PUSH2 0x187E JUMP JUMPDEST POP POP POP DUP3 PUSH2 0x140 DUP4 ADD MSTORE SWAP5 SWAP4 POP POP POP POP JUMP JUMPDEST PUSH1 0xFF DUP2 DUP2 AND DUP4 DUP3 AND ADD SWAP1 DUP2 GT ISZERO PUSH2 0x1698 JUMPI PUSH2 0x1698 PUSH2 0x16EE JUMP JUMPDEST PUSH1 0x0 DUP3 PUSH2 0x18D7 JUMPI PUSH2 0x18D7 PUSH2 0x172A JUMP JUMPDEST POP MOD SWAP1 JUMP JUMPDEST PUSH1 0x0 PUSH1 0x20 DUP3 DUP5 SUB SLT ISZERO PUSH2 0x18EE JUMPI PUSH1 0x0 DUP1 REVERT JUMPDEST DUP2 MLOAD DUP1 ISZERO ISZERO DUP2 EQ PUSH2 0x1680 JUMPI PUSH1 0x0 DUP1 REVERT JUMPDEST PUSH1 0x0 JUMPDEST DUP4 DUP2 LT ISZERO PUSH2 0x1919 JUMPI DUP2 DUP2 ADD MLOAD DUP4 DUP3 ADD MSTORE PUSH1 0x20 ADD PUSH2 0x1901 JUMP JUMPDEST POP POP PUSH1 0x0 SWAP2 ADD MSTORE JUMP JUMPDEST PUSH1 0x0 DUP3 MLOAD PUSH2 0x1934 DUP2 DUP5 PUSH1 0x20 DUP8 ADD PUSH2 0x18FE JUMP JUMPDEST SWAP2 SWAP1 SWAP2 ADD SWAP3 SWAP2 POP POP JUMP JUMPDEST PUSH1 0x20 DUP2 MSTORE PUSH1 0x0 DUP3 MLOAD DUP1 PUSH1 0x20 DUP5 ADD MSTORE PUSH2 0x195D DUP2 PUSH1 0x40 DUP6 ADD PUSH1 0x20 DUP8 ADD PUSH2 0x18FE JUMP JUMPDEST PUSH1 0x1F ADD PUSH1 0x1F NOT AND SWAP2 SWAP1 SWAP2 ADD PUSH1 0x40 ADD SWAP3 SWAP2 POP POP JUMP INVALID LOG2 PUSH5 0x6970667358 0x22 SLT KECCAK256 0x24 PUSH30 0x852F4E393174B470C9E7BD991011A300FE7870BC8B30E9A4BA7E982C8DE PUSH5 0x736F6C6343 STOP ADDMOD SGT STOP CALLER "},"methodIdentifiers":{"SEASON_DURATION()":"dc185e35","currentSeason()":"bcb39621","depositTokens(uint256)":"dd49756e","distributePrizes(address[5])":"da8c7792","endSeason(address[5])":"fa5b1a7f","enterGame()":"218bd577","entryFee()":"072ea61c","getCurrentSeason()":"d3b30b75","getCurrentSeasonEndTime()":"ab2a79f9","getPlayerBalance(address)":"e2734c93","getPrizeDistribution()":"cbd3f962","owner()":"8da5cb5b","ownerWithdraw(uint256)":"33f707d1","playerBalances(address)":"7b38314c","prizeDistribution(uint256)":"54c237b7","renounceOwnership()":"715018a6","seasonStartTime()":"8104ae4d","setDistribution(uint8[5])":"8d667564","setEntryFee(uint256)":"eb770d0c","supToken()":"0102df25","transferOwnership(address)":"f2fde38b","weeklyPrizePool()":"7971999a"}}}}}