{"contracts/TetriSeedGame.sol":{"TetriSeedGame":{"abi":[{"inputs":[{"internalType":"address","name":"_tokenAddress","type":"address"}],"stateMutability":"nonpayable","type":"constructor"},{"anonymous":false,"inputs":[{"indexed":false,"internalType":"uint8[5]","name":"oldDistribution","type":"uint8[5]"},{"indexed":false,"internalType":"uint8[5]","name":"newDistribution","type":"uint8[5]"}],"name":"DistributionUpdated","type":"event"},{"anonymous":false,"inputs":[{"indexed":false,"internalType":"uint256","name":"oldFee","type":"uint256"},{"indexed":false,"internalType":"uint256","name":"newFee","type":"uint256"}],"name":"EntryFeeUpdated","type":"event"},{"anonymous":false,"inputs":[{"indexed":true,"internalType":"address","name":"player","type":"address"},{"indexed":false,"internalType":"uint256","name":"fee","type":"uint256"},{"indexed":false,"internalType":"uint256","name":"timestamp","type":"uint256"}],"name":"GameEntered","type":"event"},{"anonymous":false,"inputs":[{"indexed":false,"internalType":"uint256","name":"amount","type":"uint256"},{"indexed":false,"internalType":"uint256","name":"timestamp","type":"uint256"}],"name":"OwnerWithdrawal","type":"event"},{"anonymous":false,"inputs":[{"indexed":true,"internalType":"address","name":"previousOwner","type":"address"},{"indexed":true,"internalType":"address","name":"newOwner","type":"address"}],"name":"OwnershipTransferred","type":"event"},{"anonymous":false,"inputs":[{"indexed":true,"internalType":"address","name":"winner","type":"address"},{"indexed":false,"internalType":"uint256","name":"amount","type":"uint256"},{"indexed":false,"internalType":"uint8","name":"rank","type":"uint8"},{"indexed":false,"internalType":"uint256","name":"season","type":"uint256"}],"name":"PrizeAwarded","type":"event"},{"anonymous":false,"inputs":[{"indexed":false,"internalType":"address[5]","name":"winners","type":"address[5]"},{"indexed":false,"internalType":"uint256[5]","name":"amounts","type":"uint256[5]"},{"indexed":false,"internalType":"uint256","name":"totalDistributed","type":"uint256"}],"name":"PrizesDistributed","type":"event"},{"anonymous":false,"inputs":[{"indexed":false,"internalType":"uint256","name":"season","type":"uint256"},{"indexed":false,"internalType":"uint256","name":"totalPrize","type":"uint256"}],"name":"SeasonEnded","type":"event"},{"inputs":[],"name":"SEASON_DURATION","outputs":[{"internalType":"uint256","name":"","type":"uint256"}],"stateMutability":"view","type":"function"},{"inputs":[],"name":"currentSeason","outputs":[{"internalType":"uint256","name":"","type":"uint256"}],"stateMutability":"view","type":"function"},{"inputs":[{"internalType":"address[5]","name":"winners","type":"address[5]"}],"name":"distributePrizes","outputs":[],"stateMutability":"nonpayable","type":"function"},{"inputs":[{"internalType":"address[5]","name":"winners","type":"address[5]"}],"name":"endSeason","outputs":[],"stateMutability":"nonpayable","type":"function"},{"inputs":[],"name":"enterGame","outputs":[],"stateMutability":"nonpayable","type":"function"},{"inputs":[],"name":"entryFee","outputs":[{"internalType":"uint256","name":"","type":"uint256"}],"stateMutability":"view","type":"function"},{"inputs":[],"name":"getCurrentSeason","outputs":[{"internalType":"uint256","name":"","type":"uint256"}],"stateMutability":"view","type":"function"},{"inputs":[],"name":"getCurrentSeasonEndTime","outputs":[{"internalType":"uint256","name":"","type":"uint256"}],"stateMutability":"view","type":"function"},{"inputs":[],"name":"getPrizeDistribution","outputs":[{"internalType":"uint8[5]","name":"","type":"uint8[5]"}],"stateMutability":"view","type":"function"},{"inputs":[],"name":"owner","outputs":[{"internalType":"address","name":"","type":"address"}],"stateMutability":"view","type":"function"},{"inputs":[{"internalType":"uint256","name":"amount","type":"uint256"}],"name":"ownerWithdraw","outputs":[],"stateMutability":"nonpayable","type":"function"},{"inputs":[{"internalType":"uint256","name":"","type":"uint256"}],"name":"prizeDistribution","outputs":[{"internalType":"uint8","name":"","type":"uint8"}],"stateMutability":"view","type":"function"},{"inputs":[],"name":"renounceOwnership","outputs":[],"stateMutability":"nonpayable","type":"function"},{"inputs":[],"name":"seasonStartTime","outputs":[{"internalType":"uint256","name":"","type":"uint256"}],"stateMutability":"view","type":"function"},{"inputs":[{"internalType":"uint8[5]","name":"newPercentages","type":"uint8[5]"}],"name":"setDistribution","outputs":[],"stateMutability":"nonpayable","type":"function"},{"inputs":[{"internalType":"uint256","name":"newFee","type":"uint256"}],"name":"setEntryFee","outputs":[],"stateMutability":"nonpayable","type":"function"},{"inputs":[],"name":"supToken","outputs":[{"internalType":"contract IERC20","name":"","type":"address"}],"stateMutability":"view","type":"function"},{"inputs":[{"internalType":"address","name":"newOwner","type":"address"}],"name":"transferOwnership","outputs":[],"stateMutability":"nonpayable","type":"function"},{"inputs":[],"name":"weeklyPrizePool","outputs":[{"internalType":"uint256","name":"","type":"uint256"}],"stateMutability":"view","type":"function"}],"evm":{"bytecode":{"linkReferences":{},"object":"60806040523480156200001157600080fd5b506040516200192838038062001928833981016040819052620000349162000203565b6200003f3362000102565b60018055600280546001600160a01b0319166001600160a01b038316179055670de0b6b3a76400006003556040805160a08101825260328152601e6020820152600a9181019190915260056060820181905260808201819052620000a69160049162000152565b504260006007620000bb620151808462000261565b620000c890600462000278565b620000d4919062000294565b9050620000e58162015180620002ab565b620000f19083620002c5565b6006555050600160075550620002db565b600080546001600160a01b038381166001600160a01b0319831681178455604051919092169283917f8be0079c531659141344cd1fd0a4f28419497f9722a3daafe3b4186f6b6457e09190a35050565b600183019183908215620001da5791602002820160005b83821115620001a957835183826101000a81548160ff021916908360ff160217905550926020019260010160208160000104928301926001030262000169565b8015620001d85782816101000a81549060ff0219169055600101602081600001049283019260010302620001a9565b505b50620001e8929150620001ec565b5090565b5b80821115620001e85760008155600101620001ed565b6000602082840312156200021657600080fd5b81516001600160a01b03811681146200022e57600080fd5b9392505050565b634e487b7160e01b600052601260045260246000fd5b634e487b7160e01b600052601160045260246000fd5b60008262000273576200027362000235565b500490565b808201808211156200028e576200028e6200024b565b92915050565b600082620002a657620002a662000235565b500690565b80820281158282048414176200028e576200028e6200024b565b818103818111156200028e576200028e6200024b565b61163d80620002eb6000396000f3fe608060405234801561001057600080fd5b50600436106101215760003560e01c80638da5cb5b116100ad578063da8c779211610071578063da8c77921461021b578063dc185e351461022e578063eb770d0c14610238578063f2fde38b1461024b578063fa5b1a7f1461025e57600080fd5b80638da5cb5b146101dc578063ab2a79f9146101ed578063bcb39621146101f5578063cbd3f962146101fe578063d3b30b751461021357600080fd5b806354c237b7116100f457806354c237b71461018a578063715018a6146101af5780637971999a146101b75780638104ae4d146101c05780638d667564146101c957600080fd5b80630102df2514610126578063072ea61c14610156578063218bd5771461016d57806333f707d114610177575b600080fd5b600254610139906001600160a01b031681565b6040516001600160a01b0390911681526020015b60405180910390f35b61015f60035481565b60405190815260200161014d565b610175610271565b005b6101756101853660046112c6565b610355565b61019d6101983660046112c6565b61043b565b60405160ff909116815260200161014d565b610175610465565b61015f60055481565b61015f60065481565b6101756101d73660046112f6565b610477565b6000546001600160a01b0316610139565b61015f6105cb565b61015f60075481565b6102066105e3565b60405161014d919061133f565b60075461015f565b6101756102293660046112f6565b61063b565b61015f62093a8081565b6101756102463660046112c6565b61083f565b610175610259366004611369565b6108e8565b61017561026c3660046112f6565b61095e565b610279610def565b62093a8060065461028a919061139a565b42106102d557600062093a80600654426102a491906113ad565b6102ae91906113d6565b90506102bd62093a80826113ea565b600660008282546102ce919061139a565b9091555050505b6003546002546102f4916001600160a01b039091169033903090610e48565b60035460056000828254610308919061139a565b90915550506003546040805191825242602083015233917f9a1a3c45c9a593fe515b398aac3639ed6ac33d78b8c7eeb8f81241e8ecf65ee9910160405180910390a261035360018055565b565b61035d610eb9565b610365610def565b6005548111156103bc5760405162461bcd60e51b815260206004820152601e60248201527f416d6f756e74206578636565647320617661696c61626c652066756e6473000060448201526064015b60405180910390fd5b80600560008282546103ce91906113ad565b90915550506000546103f7906001600160a01b03165b6002546001600160a01b03169083610f13565b604080518281524260208201527f1dcb27f9812d159cc6ea3f1338ec78646f39b830096254199c14e2228950c1c8910160405180910390a161043860018055565b50565b6004816005811061044b57600080fd5b60209182820401919006915054906101000a900460ff1681565b61046d610eb9565b6103536000610f48565b61047f610eb9565b6000805b60058160ff1610156104d857828160ff16600581106104a4576104a4611401565b6020020160208101906104b79190611428565b6104c49060ff1683611443565b9150806104d081611465565b915050610483565b508061ffff1660641461052d5760405162461bcd60e51b815260206004820152601e60248201527f50657263656e7461676573206d7573742061646420757020746f20313030000060448201526064016103b3565b6040805160a08101918290526000916004906005908285855b825461010083900a900460ff168152602060019283018181049485019490930390920291018084116105465790505050505050905082600490600561058c9291906111fd565b507fd8398b26cff3564d354793d25b095bd15773387cdf28c90d94a1ad524bdaeb7b81846040516105be929190611484565b60405180910390a1505050565b600062093a806006546105de919061139a565b905090565b6105eb611293565b6040805160a081019182905290600490600590826000855b825461010083900a900460ff168152602060019283018181049485019490930390920291018084116106035790505050505050905090565b610643610eb9565b61064b610def565b6000600554116106975760405162461bcd60e51b81526020600482015260176024820152764e6f207072697a657320746f206469737472696275746560481b60448201526064016103b3565b60006106a1611293565b60005b60058160ff1610156107e05760008460ff8316600581106106c7576106c7611401565b6020020160208101906106da9190611369565b6001600160a01b0316036107295760405162461bcd60e51b8152602060048201526016602482015275496e76616c69642077696e6e6572206164647265737360501b60448201526064016103b3565b6000606460048360ff166005811061074357610743611401565b602091828204019190069054906101000a900460ff1660ff1660055461076991906113ea565b61077391906113d6565b905080838360ff166005811061078b5761078b611401565b602002015261079a818561139a565b935080156107cd576107cd858360ff16600581106107ba576107ba611401565b6020020160208101906103e49190611369565b50806107d881611465565b9150506106a4565b5081600560008282546107f391906113ad565b90915550506040517fd93ab995ee7186dfc23e3168e2c5e45cde1983ae0012c996ce229ef6577722129061082c908590849086906114cf565b60405180910390a1505061043860018055565b610847610eb9565b600081116108a35760405162461bcd60e51b815260206004820152602360248201527f456e74727920666565206d7573742062652067726561746572207468616e207a60448201526265726f60e81b60648201526084016103b3565b600380549082905560408051828152602081018490527f6a75d918a59da9597a749b7c707f23cfa76552074b43c68a24a21db1c45841f1910160405180910390a15050565b6108f0610eb9565b6001600160a01b0381166109555760405162461bcd60e51b815260206004820152602660248201527f4f776e61626c653a206e6577206f776e657220697320746865207a65726f206160448201526564647265737360d01b60648201526084016103b3565b61043881610f48565b610966610eb9565b61096e610def565b6000600554116109ba5760405162461bcd60e51b81526020600482015260176024820152764e6f207072697a657320746f206469737472696275746560481b60448201526064016103b3565b60005b60058160ff161015610b325760008260ff8316600581106109e0576109e0611401565b6020020160208101906109f39190611369565b6001600160a01b031603610a425760405162461bcd60e51b8152602060048201526016602482015275496e76616c69642077696e6e6572206164647265737360501b60448201526064016103b3565b6000610a4f826001611545565b90505b60058160ff161015610b1f57828160ff1660058110610a7357610a73611401565b602002016020810190610a869190611369565b6001600160a01b0316838360ff1660058110610aa457610aa4611401565b602002016020810190610ab79190611369565b6001600160a01b031603610b0d5760405162461bcd60e51b815260206004820152601860248201527f4475706c69636174652077696e6e65722061646472657373000000000000000060448201526064016103b3565b80610b1781611465565b915050610a52565b5080610b2a81611465565b9150506109bd565b50600554610b3e611293565b6000805b60048160ff161015610be157606460048260ff1660058110610b6657610b66611401565b602081049190910154610b8591601f166101000a900460ff16866113ea565b610b8f91906113d6565b838260ff1660058110610ba457610ba4611401565b60200201528260ff821660058110610bbe57610bbe611401565b6020020151610bcd908361139a565b915080610bd981611465565b915050610b42565b50610bec81846113ad565b608083015260005b60058160ff161015610d27576000838260ff1660058110610c1757610c17611401565b60200201511115610d1557610c7a858260ff1660058110610c3a57610c3a611401565b602002016020810190610c4d9190611369565b848360ff1660058110610c6257610c62611401565b60200201516002546001600160a01b03169190610f13565b848160ff1660058110610c8f57610c8f611401565b602002016020810190610ca29190611369565b6001600160a01b03167f975b964c87063cc8a663bda95acafcc123cbd152264733e49de21a70e9c1bb22848360ff1660058110610ce157610ce1611401565b6020020151610cf1846001611545565b6007546040805193845260ff90921660208401529082015260600160405180910390a25b80610d1f81611465565b915050610bf4565b5060058054600091829055600780549192600192610d4690849061139a565b9091555050426006819055600090600790610d659062015180906113d6565b610d7090600461139a565b610d7a919061155e565b9050610d8981620151806113ea565b600654610d9691906113ad565b6006556007547fd84108459ae28f4111f3c851dee576040e08f18d76d1dc82f0094abe275b115290610dca906001906113ad565b60408051918252602082018590520160405180910390a1505050505061043860018055565b600260015403610e415760405162461bcd60e51b815260206004820152601f60248201527f5265656e7472616e637947756172643a207265656e7472616e742063616c6c0060448201526064016103b3565b6002600155565b6040516001600160a01b0380851660248301528316604482015260648101829052610eb39085906323b872dd60e01b906084015b60408051601f198184030181529190526020810180516001600160e01b03166001600160e01b031990931692909217909152610f98565b50505050565b6000546001600160a01b031633146103535760405162461bcd60e51b815260206004820181905260248201527f4f776e61626c653a2063616c6c6572206973206e6f7420746865206f776e657260448201526064016103b3565b6040516001600160a01b038316602482015260448101829052610f4390849063a9059cbb60e01b90606401610e7c565b505050565b600080546001600160a01b038381166001600160a01b0319831681178455604051919092169283917f8be0079c531659141344cd1fd0a4f28419497f9722a3daafe3b4186f6b6457e09190a35050565b6000610fed826040518060400160405280602081526020017f5361666545524332303a206c6f772d6c6576656c2063616c6c206661696c6564815250856001600160a01b031661106d9092919063ffffffff16565b905080516000148061100e57508080602001905181019061100e9190611572565b610f435760405162461bcd60e51b815260206004820152602a60248201527f5361666545524332303a204552433230206f7065726174696f6e20646964206e6044820152691bdd081cdd58d8d9595960b21b60648201526084016103b3565b606061107c8484600085611084565b949350505050565b6060824710156110e55760405162461bcd60e51b815260206004820152602660248201527f416464726573733a20696e73756666696369656e742062616c616e636520666f6044820152651c8818d85b1b60d21b60648201526084016103b3565b600080866001600160a01b0316858760405161110191906115b8565b60006040518083038185875af1925050503d806000811461113e576040519150601f19603f3d011682016040523d82523d6000602084013e611143565b606091505b50915091506111548783838761115f565b979650505050505050565b606083156111ce5782516000036111c7576001600160a01b0385163b6111c75760405162461bcd60e51b815260206004820152601d60248201527f416464726573733a2063616c6c20746f206e6f6e2d636f6e747261637400000060448201526064016103b3565b508161107c565b61107c83838151156111e35781518083602001fd5b8060405162461bcd60e51b81526004016103b391906115d4565b6001830191839082156112835791602002820160005b8382111561125457833560ff1683826101000a81548160ff021916908360ff1602179055509260200192600101602081600001049283019260010302611213565b80156112815782816101000a81549060ff0219169055600101602081600001049283019260010302611254565b505b5061128f9291506112b1565b5090565b6040518060a001604052806005906020820280368337509192915050565b5b8082111561128f57600081556001016112b2565b6000602082840312156112d857600080fd5b5035919050565b8060a081018310156112f057600080fd5b92915050565b600060a0828403121561130857600080fd5b61131283836112df565b9392505050565b8060005b6005811015610eb357815160ff1684526020938401939091019060010161131d565b60a081016112f08284611319565b80356001600160a01b038116811461136457600080fd5b919050565b60006020828403121561137b57600080fd5b6113128261134d565b634e487b7160e01b600052601160045260246000fd5b808201808211156112f0576112f0611384565b818103818111156112f0576112f0611384565b634e487b7160e01b600052601260045260246000fd5b6000826113e5576113e56113c0565b500490565b80820281158282048414176112f0576112f0611384565b634e487b7160e01b600052603260045260246000fd5b803560ff8116811461136457600080fd5b60006020828403121561143a57600080fd5b61131282611417565b61ffff81811683821601908082111561145e5761145e611384565b5092915050565b600060ff821660ff810361147b5761147b611384565b60010192915050565b61014081016114938285611319565b60a082018360005b60058110156114c55760ff6114af83611417565b168352602092830192919091019060010161149b565b5050509392505050565b6101608101818560005b6005811015611509576001600160a01b036114f38361134d565b16835260209283019291909101906001016114d9565b50505060a082018460005b6005811015611533578151835260209283019290910190600101611514565b50505082610140830152949350505050565b60ff81811683821601908111156112f0576112f0611384565b60008261156d5761156d6113c0565b500690565b60006020828403121561158457600080fd5b8151801515811461131257600080fd5b60005b838110156115af578181015183820152602001611597565b50506000910152565b600082516115ca818460208701611594565b9190910192915050565b60208152600082518060208401526115f3816040850160208701611594565b601f01601f1916919091016040019291505056fea264697066735822122082938234a05ccde7b4918de85df73c2ef91064d2d908af7a3f72f2ed7aa263ad64736f6c63430008130033","opcodes":"PUSH1 0x80 PUSH1 0x40 MSTORE CALLVALUE DUP1 ISZERO PUSH3 0x11 JUMPI PUSH1 0x0 DUP1 REVERT JUMPDEST POP PUSH1 0x40 MLOAD PUSH3 0x1928 CODESIZE SUB DUP1 PUSH3 0x1928 DUP4 CODECOPY DUP2 ADD PUSH1 0x40 DUP2 SWAP1 MSTORE PUSH3 0x34 SWAP2 PUSH3 0x203 JUMP JUMPDEST PUSH3 0x3F CALLER PUSH3 0x102 JUMP JUMPDEST PUSH1 0x1 DUP1 SSTORE PUSH1 0x2 DUP1 SLOAD PUSH1 0x1 PUSH1 0x1 PUSH1 0xA0 SHL SUB NOT AND PUSH1 0x1 PUSH1 0x1 PUSH1 0xA0 SHL SUB DUP4 AND OR SWAP1 SSTORE PUSH8 0xDE0B6B3A7640000 PUSH1 0x3 SSTORE PUSH1 0x40 DUP1 MLOAD PUSH1 0xA0 DUP2 ADD DUP3 MSTORE PUSH1 0x32 DUP2 MSTORE PUSH1 0x1E PUSH1 0x20 DUP3 ADD MSTORE PUSH1 0xA SWAP2 DUP2 ADD SWAP2 SWAP1 SWAP2 MSTORE PUSH1 0x5 PUSH1 0x60 DUP3 ADD DUP2 SWAP1 MSTORE PUSH1 0x80 DUP3 ADD DUP2 SWAP1 MSTORE PUSH3 0xA6 SWAP2 PUSH1 0x4 SWAP2 PUSH3 0x152 JUMP JUMPDEST POP TIMESTAMP PUSH1 0x0 PUSH1 0x7 PUSH3 0xBB PUSH3 0x15180 DUP5 PUSH3 0x261 JUMP JUMPDEST PUSH3 0xC8 SWAP1 PUSH1 0x4 PUSH3 0x278 JUMP JUMPDEST PUSH3 0xD4 SWAP2 SWAP1 PUSH3 0x294 JUMP JUMPDEST SWAP1 POP PUSH3 0xE5 DUP2 PUSH3 0x15180 PUSH3 0x2AB JUMP JUMPDEST PUSH3 0xF1 SWAP1 DUP4 PUSH3 0x2C5 JUMP JUMPDEST PUSH1 0x6 SSTORE POP POP PUSH1 0x1 PUSH1 0x7 SSTORE POP PUSH3 0x2DB JUMP JUMPDEST PUSH1 0x0 DUP1 SLOAD PUSH1 0x1 PUSH1 0x1 PUSH1 0xA0 SHL SUB DUP4 DUP2 AND PUSH1 0x1 PUSH1 0x1 PUSH1 0xA0 SHL SUB NOT DUP4 AND DUP2 OR DUP5 SSTORE PUSH1 0x40 MLOAD SWAP2 SWAP1 SWAP3 AND SWAP3 DUP4 SWAP2 PUSH32 0x8BE0079C531659141344CD1FD0A4F28419497F9722A3DAAFE3B4186F6B6457E0 SWAP2 SWAP1 LOG3 POP POP JUMP JUMPDEST PUSH1 0x1 DUP4 ADD SWAP2 DUP4 SWAP1 DUP3 ISZERO PUSH3 0x1DA JUMPI SWAP2 PUSH1 0x20 MUL DUP3 ADD PUSH1 0x0 JUMPDEST DUP4 DUP3 GT ISZERO PUSH3 0x1A9 JUMPI DUP4 MLOAD DUP4 DUP3 PUSH2 0x100 EXP DUP2 SLOAD DUP2 PUSH1 0xFF MUL NOT AND SWAP1 DUP4 PUSH1 0xFF AND MUL OR SWAP1 SSTORE POP SWAP3 PUSH1 0x20 ADD SWAP3 PUSH1 0x1 ADD PUSH1 0x20 DUP2 PUSH1 0x0 ADD DIV SWAP3 DUP4 ADD SWAP3 PUSH1 0x1 SUB MUL PUSH3 0x169 JUMP JUMPDEST DUP1 ISZERO PUSH3 0x1D8 JUMPI DUP3 DUP2 PUSH2 0x100 EXP DUP2 SLOAD SWAP1 PUSH1 0xFF MUL NOT AND SWAP1 SSTORE PUSH1 0x1 ADD PUSH1 0x20 DUP2 PUSH1 0x0 ADD DIV SWAP3 DUP4 ADD SWAP3 PUSH1 0x1 SUB MUL PUSH3 0x1A9 JUMP JUMPDEST POP JUMPDEST POP PUSH3 0x1E8 SWAP3 SWAP2 POP PUSH3 0x1EC JUMP JUMPDEST POP SWAP1 JUMP JUMPDEST JUMPDEST DUP1 DUP3 GT ISZERO PUSH3 0x1E8 JUMPI PUSH1 0x0 DUP2 SSTORE PUSH1 0x1 ADD PUSH3 0x1ED JUMP JUMPDEST PUSH1 0x0 PUSH1 0x20 DUP3 DUP5 SUB SLT ISZERO PUSH3 0x216 JUMPI PUSH1 0x0 DUP1 REVERT JUMPDEST DUP2 MLOAD PUSH1 0x1 PUSH1 0x1 PUSH1 0xA0 SHL SUB DUP2 AND DUP2 EQ PUSH3 0x22E JUMPI PUSH1 0x0 DUP1 REVERT JUMPDEST SWAP4 SWAP3 POP POP POP JUMP JUMPDEST PUSH4 0x4E487B71 PUSH1 0xE0 SHL PUSH1 0x0 MSTORE PUSH1 0x12 PUSH1 0x4 MSTORE PUSH1 0x24 PUSH1 0x0 REVERT JUMPDEST PUSH4 0x4E487B71 PUSH1 0xE0 SHL PUSH1 0x0 MSTORE PUSH1 0x11 PUSH1 0x4 MSTORE PUSH1 0x24 PUSH1 0x0 REVERT JUMPDEST PUSH1 0x0 DUP3 PUSH3 0x273 JUMPI PUSH3 0x273 PUSH3 0x235 JUMP JUMPDEST POP DIV SWAP1 JUMP JUMPDEST DUP1 DUP3 ADD DUP1 DUP3 GT ISZERO PUSH3 0x28E JUMPI PUSH3 0x28E PUSH3 0x24B JUMP JUMPDEST SWAP3 SWAP2 POP POP JUMP JUMPDEST PUSH1 0x0 DUP3 PUSH3 0x2A6 JUMPI PUSH3 0x2A6 PUSH3 0x235 JUMP JUMPDEST POP MOD SWAP1 JUMP JUMPDEST DUP1 DUP3 MUL DUP2 ISZERO DUP3 DUP3 DIV DUP5 EQ OR PUSH3 0x28E JUMPI PUSH3 0x28E PUSH3 0x24B JUMP JUMPDEST DUP2 DUP2 SUB DUP2 DUP2 GT ISZERO PUSH3 0x28E JUMPI PUSH3 0x28E PUSH3 0x24B JUMP JUMPDEST PUSH2 0x163D DUP1 PUSH3 0x2EB PUSH1 0x0 CODECOPY PUSH1 0x0 RETURN INVALID PUSH1 0x80 PUSH1 0x40 MSTORE CALLVALUE DUP1 ISZERO PUSH2 0x10 JUMPI PUSH1 0x0 DUP1 REVERT JUMPDEST POP PUSH1 0x4 CALLDATASIZE LT PUSH2 0x121 JUMPI PUSH1 0x0 CALLDATALOAD PUSH1 0xE0 SHR DUP1 PUSH4 0x8DA5CB5B GT PUSH2 0xAD JUMPI DUP1 PUSH4 0xDA8C7792 GT PUSH2 0x71 JUMPI DUP1 PUSH4 0xDA8C7792 EQ PUSH2 0x21B JUMPI DUP1 PUSH4 0xDC185E35 EQ PUSH2 0x22E JUMPI DUP1 PUSH4 0xEB770D0C EQ PUSH2 0x238 JUMPI DUP1 PUSH4 0xF2FDE38B EQ PUSH2 0x24B JUMPI DUP1 PUSH4 0xFA5B1A7F EQ PUSH2 0x25E JUMPI PUSH1 0x0 DUP1 REVERT JUMPDEST DUP1 PUSH4 0x8DA5CB5B EQ PUSH2 0x1DC JUMPI DUP1 PUSH4 0xAB2A79F9 EQ PUSH2 0x1ED JUMPI DUP1 PUSH4 0xBCB39621 EQ PUSH2 0x1F5 JUMPI DUP1 PUSH4 0xCBD3F962 EQ PUSH2 0x1FE JUMPI DUP1 PUSH4 0xD3B30B75 EQ PUSH2 0x213 JUMPI PUSH1 0x0 DUP1 REVERT JUMPDEST DUP1 PUSH4 0x54C237B7 GT PUSH2 0xF4 JUMPI DUP1 PUSH4 0x54C237B7 EQ PUSH2 0x18A JUMPI DUP1 PUSH4 0x715018A6 EQ PUSH2 0x1AF JUMPI DUP1 PUSH4 0x7971999A EQ PUSH2 0x1B7 JUMPI DUP1 PUSH4 0x8104AE4D EQ PUSH2 0x1C0 JUMPI DUP1 PUSH4 0x8D667564 EQ PUSH2 0x1C9 JUMPI PUSH1 0x0 DUP1 REVERT JUMPDEST DUP1 PUSH4 0x102DF25 EQ PUSH2 0x126 JUMPI DUP1 PUSH4 0x72EA61C EQ PUSH2 0x156 JUMPI DUP1 PUSH4 0x218BD577 EQ PUSH2 0x16D JUMPI DUP1 PUSH4 0x33F707D1 EQ PUSH2 0x177 JUMPI JUMPDEST PUSH1 0x0 DUP1 REVERT JUMPDEST PUSH1 0x2 SLOAD PUSH2 0x139 SWAP1 PUSH1 0x1 PUSH1 0x1 PUSH1 0xA0 SHL SUB AND DUP2 JUMP JUMPDEST PUSH1 0x40 MLOAD PUSH1 0x1 PUSH1 0x1 PUSH1 0xA0 SHL SUB SWAP1 SWAP2 AND DUP2 MSTORE PUSH1 0x20 ADD JUMPDEST PUSH1 0x40 MLOAD DUP1 SWAP2 SUB SWAP1 RETURN JUMPDEST PUSH2 0x15F PUSH1 0x3 SLOAD DUP2 JUMP JUMPDEST PUSH1 0x40 MLOAD SWAP1 DUP2 MSTORE PUSH1 0x20 ADD PUSH2 0x14D JUMP JUMPDEST PUSH2 0x175 PUSH2 0x271 JUMP JUMPDEST STOP JUMPDEST PUSH2 0x175 PUSH2 0x185 CALLDATASIZE PUSH1 0x4 PUSH2 0x12C6 JUMP JUMPDEST PUSH2 0x355 JUMP JUMPDEST PUSH2 0x19D PUSH2 0x198 CALLDATASIZE PUSH1 0x4 PUSH2 0x12C6 JUMP JUMPDEST PUSH2 0x43B JUMP JUMPDEST PUSH1 0x40 MLOAD PUSH1 0xFF SWAP1 SWAP2 AND DUP2 MSTORE PUSH1 0x20 ADD PUSH2 0x14D JUMP JUMPDEST PUSH2 0x175 PUSH2 0x465 JUMP JUMPDEST PUSH2 0x15F PUSH1 0x5 SLOAD DUP2 JUMP JUMPDEST PUSH2 0x15F PUSH1 0x6 SLOAD DUP2 JUMP JUMPDEST PUSH2 0x175 PUSH2 0x1D7 CALLDATASIZE PUSH1 0x4 PUSH2 0x12F6 JUMP JUMPDEST PUSH2 0x477 JUMP JUMPDEST PUSH1 0x0 SLOAD PUSH1 0x1 PUSH1 0x1 PUSH1 0xA0 SHL SUB AND PUSH2 0x139 JUMP JUMPDEST PUSH2 0x15F PUSH2 0x5CB JUMP JUMPDEST PUSH2 0x15F PUSH1 0x7 SLOAD DUP2 JUMP JUMPDEST PUSH2 0x206 PUSH2 0x5E3 JUMP JUMPDEST PUSH1 0x40 MLOAD PUSH2 0x14D SWAP2 SWAP1 PUSH2 0x133F JUMP JUMPDEST PUSH1 0x7 SLOAD PUSH2 0x15F JUMP JUMPDEST PUSH2 0x175 PUSH2 0x229 CALLDATASIZE PUSH1 0x4 PUSH2 0x12F6 JUMP JUMPDEST PUSH2 0x63B JUMP JUMPDEST PUSH2 0x15F PUSH3 0x93A80 DUP2 JUMP JUMPDEST PUSH2 0x175 PUSH2 0x246 CALLDATASIZE PUSH1 0x4 PUSH2 0x12C6 JUMP JUMPDEST PUSH2 0x83F JUMP JUMPDEST PUSH2 0x175 PUSH2 0x259 CALLDATASIZE PUSH1 0x4 PUSH2 0x1369 JUMP JUMPDEST PUSH2 0x8E8 JUMP JUMPDEST PUSH2 0x175 PUSH2 0x26C CALLDATASIZE PUSH1 0x4 PUSH2 0x12F6 JUMP JUMPDEST PUSH2 0x95E JUMP JUMPDEST PUSH2 0x279 PUSH2 0xDEF JUMP JUMPDEST PUSH3 0x93A80 PUSH1 0x6 SLOAD PUSH2 0x28A SWAP2 SWAP1 PUSH2 0x139A JUMP JUMPDEST TIMESTAMP LT PUSH2 0x2D5 JUMPI PUSH1 0x0 PUSH3 0x93A80 PUSH1 0x6 SLOAD TIMESTAMP PUSH2 0x2A4 SWAP2 SWAP1 PUSH2 0x13AD JUMP JUMPDEST PUSH2 0x2AE SWAP2 SWAP1 PUSH2 0x13D6 JUMP JUMPDEST SWAP1 POP PUSH2 0x2BD PUSH3 0x93A80 DUP3 PUSH2 0x13EA JUMP JUMPDEST PUSH1 0x6 PUSH1 0x0 DUP3 DUP3 SLOAD PUSH2 0x2CE SWAP2 SWAP1 PUSH2 0x139A JUMP JUMPDEST SWAP1 SWAP2 SSTORE POP POP POP JUMPDEST PUSH1 0x3 SLOAD PUSH1 0x2 SLOAD PUSH2 0x2F4 SWAP2 PUSH1 0x1 PUSH1 0x1 PUSH1 0xA0 SHL SUB SWAP1 SWAP2 AND SWAP1 CALLER SWAP1 ADDRESS SWAP1 PUSH2 0xE48 JUMP JUMPDEST PUSH1 0x3 SLOAD PUSH1 0x5 PUSH1 0x0 DUP3 DUP3 SLOAD PUSH2 0x308 SWAP2 SWAP1 PUSH2 0x139A JUMP JUMPDEST SWAP1 SWAP2 SSTORE POP POP PUSH1 0x3 SLOAD PUSH1 0x40 DUP1 MLOAD SWAP2 DUP3 MSTORE TIMESTAMP PUSH1 0x20 DUP4 ADD MSTORE CALLER SWAP2 PUSH32 0x9A1A3C45C9A593FE515B398AAC3639ED6AC33D78B8C7EEB8F81241E8ECF65EE9 SWAP2 ADD PUSH1 0x40 MLOAD DUP1 SWAP2 SUB SWAP1 LOG2 PUSH2 0x353 PUSH1 0x1 DUP1 SSTORE JUMP JUMPDEST JUMP JUMPDEST PUSH2 0x35D PUSH2 0xEB9 JUMP JUMPDEST PUSH2 0x365 PUSH2 0xDEF JUMP JUMPDEST PUSH1 0x5 SLOAD DUP2 GT ISZERO PUSH2 0x3BC JUMPI PUSH1 0x40 MLOAD PUSH3 0x461BCD PUSH1 0xE5 SHL DUP2 MSTORE PUSH1 0x20 PUSH1 0x4 DUP3 ADD MSTORE PUSH1 0x1E PUSH1 0x24 DUP3 ADD MSTORE PUSH32 0x416D6F756E74206578636565647320617661696C61626C652066756E64730000 PUSH1 0x44 DUP3 ADD MSTORE PUSH1 0x64 ADD JUMPDEST PUSH1 0x40 MLOAD DUP1 SWAP2 SUB SWAP1 REVERT JUMPDEST DUP1 PUSH1 0x5 PUSH1 0x0 DUP3 DUP3 SLOAD PUSH2 0x3CE SWAP2 SWAP1 PUSH2 0x13AD JUMP JUMPDEST SWAP1 SWAP2 SSTORE POP POP PUSH1 0x0 SLOAD PUSH2 0x3F7 SWAP1 PUSH1 0x1 PUSH1 0x1 PUSH1 0xA0 SHL SUB AND JUMPDEST PUSH1 0x2 SLOAD PUSH1 0x1 PUSH1 0x1 PUSH1 0xA0 SHL SUB AND SWAP1 DUP4 PUSH2 0xF13 JUMP JUMPDEST PUSH1 0x40 DUP1 MLOAD DUP3 DUP2 MSTORE TIMESTAMP PUSH1 0x20 DUP3 ADD MSTORE PUSH32 0x1DCB27F9812D159CC6EA3F1338EC78646F39B830096254199C14E2228950C1C8 SWAP2 ADD PUSH1 0x40 MLOAD DUP1 SWAP2 SUB SWAP1 LOG1 PUSH2 0x438 PUSH1 0x1 DUP1 SSTORE JUMP JUMPDEST POP JUMP JUMPDEST PUSH1 0x4 DUP2 PUSH1 0x5 DUP2 LT PUSH2 0x44B JUMPI PUSH1 0x0 DUP1 REVERT JUMPDEST PUSH1 0x20 SWAP2 DUP3 DUP3 DIV ADD SWAP2 SWAP1 MOD SWAP2 POP SLOAD SWAP1 PUSH2 0x100 EXP SWAP1 DIV PUSH1 0xFF AND DUP2 JUMP JUMPDEST PUSH2 0x46D PUSH2 0xEB9 JUMP JUMPDEST PUSH2 0x353 PUSH1 0x0 PUSH2 0xF48 JUMP JUMPDEST PUSH2 0x47F PUSH2 0xEB9 JUMP JUMPDEST PUSH1 0x0 DUP1 JUMPDEST PUSH1 0x5 DUP2 PUSH1 0xFF AND LT ISZERO PUSH2 0x4D8 JUMPI DUP3 DUP2 PUSH1 0xFF AND PUSH1 0x5 DUP2 LT PUSH2 0x4A4 JUMPI PUSH2 0x4A4 PUSH2 0x1401 JUMP JUMPDEST PUSH1 0x20 MUL ADD PUSH1 0x20 DUP2 ADD SWAP1 PUSH2 0x4B7 SWAP2 SWAP1 PUSH2 0x1428 JUMP JUMPDEST PUSH2 0x4C4 SWAP1 PUSH1 0xFF AND DUP4 PUSH2 0x1443 JUMP JUMPDEST SWAP2 POP DUP1 PUSH2 0x4D0 DUP2 PUSH2 0x1465 JUMP JUMPDEST SWAP2 POP POP PUSH2 0x483 JUMP JUMPDEST POP DUP1 PUSH2 0xFFFF AND PUSH1 0x64 EQ PUSH2 0x52D JUMPI PUSH1 0x40 MLOAD PUSH3 0x461BCD PUSH1 0xE5 SHL DUP2 MSTORE PUSH1 0x20 PUSH1 0x4 DUP3 ADD MSTORE PUSH1 0x1E PUSH1 0x24 DUP3 ADD MSTORE PUSH32 0x50657263656E7461676573206D7573742061646420757020746F203130300000 PUSH1 0x44 DUP3 ADD MSTORE PUSH1 0x64 ADD PUSH2 0x3B3 JUMP JUMPDEST PUSH1 0x40 DUP1 MLOAD PUSH1 0xA0 DUP2 ADD SWAP2 DUP3 SWAP1 MSTORE PUSH1 0x0 SWAP2 PUSH1 0x4 SWAP1 PUSH1 0x5 SWAP1 DUP3 DUP6 DUP6 JUMPDEST DUP3 SLOAD PUSH2 0x100 DUP4 SWAP1 EXP SWAP1 DIV PUSH1 0xFF AND DUP2 MSTORE PUSH1 0x20 PUSH1 0x1 SWAP3 DUP4 ADD DUP2 DUP2 DIV SWAP5 DUP6 ADD SWAP5 SWAP1 SWAP4 SUB SWAP1 SWAP3 MUL SWAP2 ADD DUP1 DUP5 GT PUSH2 0x546 JUMPI SWAP1 POP POP POP POP POP POP SWAP1 POP DUP3 PUSH1 0x4 SWAP1 PUSH1 0x5 PUSH2 0x58C SWAP3 SWAP2 SWAP1 PUSH2 0x11FD JUMP JUMPDEST POP PUSH32 0xD8398B26CFF3564D354793D25B095BD15773387CDF28C90D94A1AD524BDAEB7B DUP2 DUP5 PUSH1 0x40 MLOAD PUSH2 0x5BE SWAP3 SWAP2 SWAP1 PUSH2 0x1484 JUMP JUMPDEST PUSH1 0x40 MLOAD DUP1 SWAP2 SUB SWAP1 LOG1 POP POP POP JUMP JUMPDEST PUSH1 0x0 PUSH3 0x93A80 PUSH1 0x6 SLOAD PUSH2 0x5DE SWAP2 SWAP1 PUSH2 0x139A JUMP JUMPDEST SWAP1 POP SWAP1 JUMP JUMPDEST PUSH2 0x5EB PUSH2 0x1293 JUMP JUMPDEST PUSH1 0x40 DUP1 MLOAD PUSH1 0xA0 DUP2 ADD SWAP2 DUP3 SWAP1 MSTORE SWAP1 PUSH1 0x4 SWAP1 PUSH1 0x5 SWAP1 DUP3 PUSH1 0x0 DUP6 JUMPDEST DUP3 SLOAD PUSH2 0x100 DUP4 SWAP1 EXP SWAP1 DIV PUSH1 0xFF AND DUP2 MSTORE PUSH1 0x20 PUSH1 0x1 SWAP3 DUP4 ADD DUP2 DUP2 DIV SWAP5 DUP6 ADD SWAP5 SWAP1 SWAP4 SUB SWAP1 SWAP3 MUL SWAP2 ADD DUP1 DUP5 GT PUSH2 0x603 JUMPI SWAP1 POP POP POP POP POP POP SWAP1 POP SWAP1 JUMP JUMPDEST PUSH2 0x643 PUSH2 0xEB9 JUMP JUMPDEST PUSH2 0x64B PUSH2 0xDEF JUMP JUMPDEST PUSH1 0x0 PUSH1 0x5 SLOAD GT PUSH2 0x697 JUMPI PUSH1 0x40 MLOAD PUSH3 0x461BCD PUSH1 0xE5 SHL DUP2 MSTORE PUSH1 0x20 PUSH1 0x4 DUP3 ADD MSTORE PUSH1 0x17 PUSH1 0x24 DUP3 ADD MSTORE PUSH23 0x4E6F207072697A657320746F2064697374726962757465 PUSH1 0x48 SHL PUSH1 0x44 DUP3 ADD MSTORE PUSH1 0x64 ADD PUSH2 0x3B3 JUMP JUMPDEST PUSH1 0x0 PUSH2 0x6A1 PUSH2 0x1293 JUMP JUMPDEST PUSH1 0x0 JUMPDEST PUSH1 0x5 DUP2 PUSH1 0xFF AND LT ISZERO PUSH2 0x7E0 JUMPI PUSH1 0x0 DUP5 PUSH1 0xFF DUP4 AND PUSH1 0x5 DUP2 LT PUSH2 0x6C7 JUMPI PUSH2 0x6C7 PUSH2 0x1401 JUMP JUMPDEST PUSH1 0x20 MUL ADD PUSH1 0x20 DUP2 ADD SWAP1 PUSH2 0x6DA SWAP2 SWAP1 PUSH2 0x1369 JUMP JUMPDEST PUSH1 0x1 PUSH1 0x1 PUSH1 0xA0 SHL SUB AND SUB PUSH2 0x729 JUMPI PUSH1 0x40 MLOAD PUSH3 0x461BCD PUSH1 0xE5 SHL DUP2 MSTORE PUSH1 0x20 PUSH1 0x4 DUP3 ADD MSTORE PUSH1 0x16 PUSH1 0x24 DUP3 ADD MSTORE PUSH22 0x496E76616C69642077696E6E65722061646472657373 PUSH1 0x50 SHL PUSH1 0x44 DUP3 ADD MSTORE PUSH1 0x64 ADD PUSH2 0x3B3 JUMP JUMPDEST PUSH1 0x0 PUSH1 0x64 PUSH1 0x4 DUP4 PUSH1 0xFF AND PUSH1 0x5 DUP2 LT PUSH2 0x743 JUMPI PUSH2 0x743 PUSH2 0x1401 JUMP JUMPDEST PUSH1 0x20 SWAP2 DUP3 DUP3 DIV ADD SWAP2 SWAP1 MOD SWAP1 SLOAD SWAP1 PUSH2 0x100 EXP SWAP1 DIV PUSH1 0xFF AND PUSH1 0xFF AND PUSH1 0x5 SLOAD PUSH2 0x769 SWAP2 SWAP1 PUSH2 0x13EA JUMP JUMPDEST PUSH2 0x773 SWAP2 SWAP1 PUSH2 0x13D6 JUMP JUMPDEST SWAP1 POP DUP1 DUP4 DUP4 PUSH1 0xFF AND PUSH1 0x5 DUP2 LT PUSH2 0x78B JUMPI PUSH2 0x78B PUSH2 0x1401 JUMP JUMPDEST PUSH1 0x20 MUL ADD MSTORE PUSH2 0x79A DUP2 DUP6 PUSH2 0x139A JUMP JUMPDEST SWAP4 POP DUP1 ISZERO PUSH2 0x7CD JUMPI PUSH2 0x7CD DUP6 DUP4 PUSH1 0xFF AND PUSH1 0x5 DUP2 LT PUSH2 0x7BA JUMPI PUSH2 0x7BA PUSH2 0x1401 JUMP JUMPDEST PUSH1 0x20 MUL ADD PUSH1 0x20 DUP2 ADD SWAP1 PUSH2 0x3E4 SWAP2 SWAP1 PUSH2 0x1369 JUMP JUMPDEST POP DUP1 PUSH2 0x7D8 DUP2 PUSH2 0x1465 JUMP JUMPDEST SWAP2 POP POP PUSH2 0x6A4 JUMP JUMPDEST POP DUP2 PUSH1 0x5 PUSH1 0x0 DUP3 DUP3 SLOAD PUSH2 0x7F3 SWAP2 SWAP1 PUSH2 0x13AD JUMP JUMPDEST SWAP1 SWAP2 SSTORE POP POP PUSH1 0x40 MLOAD PUSH32 0xD93AB995EE7186DFC23E3168E2C5E45CDE1983AE0012C996CE229EF657772212 SWAP1 PUSH2 0x82C SWAP1 DUP6 SWAP1 DUP5 SWAP1 DUP7 SWAP1 PUSH2 0x14CF JUMP JUMPDEST PUSH1 0x40 MLOAD DUP1 SWAP2 SUB SWAP1 LOG1 POP POP PUSH2 0x438 PUSH1 0x1 DUP1 SSTORE JUMP JUMPDEST PUSH2 0x847 PUSH2 0xEB9 JUMP JUMPDEST PUSH1 0x0 DUP2 GT PUSH2 0x8A3 JUMPI PUSH1 0x40 MLOAD PUSH3 0x461BCD PUSH1 0xE5 SHL DUP2 MSTORE PUSH1 0x20 PUSH1 0x4 DUP3 ADD MSTORE PUSH1 0x23 PUSH1 0x24 DUP3 ADD MSTORE PUSH32 0x456E74727920666565206D7573742062652067726561746572207468616E207A PUSH1 0x44 DUP3 ADD MSTORE PUSH3 0x65726F PUSH1 0xE8 SHL PUSH1 0x64 DUP3 ADD MSTORE PUSH1 0x84 ADD PUSH2 0x3B3 JUMP JUMPDEST PUSH1 0x3 DUP1 SLOAD SWAP1 DUP3 SWAP1 SSTORE PUSH1 0x40 DUP1 MLOAD DUP3 DUP2 MSTORE PUSH1 0x20 DUP2 ADD DUP5 SWAP1 MSTORE PUSH32 0x6A75D918A59DA9597A749B7C707F23CFA76552074B43C68A24A21DB1C45841F1 SWAP2 ADD PUSH1 0x40 MLOAD DUP1 SWAP2 SUB SWAP1 LOG1 POP POP JUMP JUMPDEST PUSH2 0x8F0 PUSH2 0xEB9 JUMP JUMPDEST PUSH1 0x1 PUSH1 0x1 PUSH1 0xA0 SHL SUB DUP2 AND PUSH2 0x955 JUMPI PUSH1 0x40 MLOAD PUSH3 0x461BCD PUSH1 0xE5 SHL DUP2 MSTORE PUSH1 0x20 PUSH1 0x4 DUP3 ADD MSTORE PUSH1 0x26 PUSH1 0x24 DUP3 ADD MSTORE PUSH32 0x4F776E61626C653A206E6577206F776E657220697320746865207A65726F2061 PUSH1 0x44 DUP3 ADD MSTORE PUSH6 0x646472657373 PUSH1 0xD0 SHL PUSH1 0x64 DUP3 ADD MSTORE PUSH1 0x84 ADD PUSH2 0x3B3 JUMP JUMPDEST PUSH2 0x438 DUP2 PUSH2 0xF48 JUMP JUMPDEST PUSH2 0x966 PUSH2 0xEB9 JUMP JUMPDEST PUSH2 0x96E PUSH2 0xDEF JUMP JUMPDEST PUSH1 0x0 PUSH1 0x5 SLOAD GT PUSH2 0x9BA JUMPI PUSH1 0x40 MLOAD PUSH3 0x461BCD PUSH1 0xE5 SHL DUP2 MSTORE PUSH1 0x20 PUSH1 0x4 DUP3 ADD MSTORE PUSH1 0x17 PUSH1 0x24 DUP3 ADD MSTORE PUSH23 0x4E6F207072697A657320746F2064697374726962757465 PUSH1 0x48 SHL PUSH1 0x44 DUP3 ADD MSTORE PUSH1 0x64 ADD PUSH2 0x3B3 JUMP JUMPDEST PUSH1 0x0 JUMPDEST PUSH1 0x5 DUP2 PUSH1 0xFF AND LT ISZERO PUSH2 0xB32 JUMPI PUSH1 0x0 DUP3 PUSH1 0xFF DUP4 AND PUSH1 0x5 DUP2 LT PUSH2 0x9E0 JUMPI PUSH2 0x9E0 PUSH2 0x1401 JUMP JUMPDEST PUSH1 0x20 MUL ADD PUSH1 0x20 DUP2 ADD SWAP1 PUSH2 0x9F3 SWAP2 SWAP1 PUSH2 0x1369 JUMP JUMPDEST PUSH1 0x1 PUSH1 0x1 PUSH1 0xA0 SHL SUB AND SUB PUSH2 0xA42 JUMPI PUSH1 0x40 MLOAD PUSH3 0x461BCD PUSH1 0xE5 SHL DUP2 MSTORE PUSH1 0x20 PUSH1 0x4 DUP3 ADD MSTORE PUSH1 0x16 PUSH1 0x24 DUP3 ADD MSTORE PUSH22 0x496E76616C69642077696E6E65722061646472657373 PUSH1 0x50 SHL PUSH1 0x44 DUP3 ADD MSTORE PUSH1 0x64 ADD PUSH2 0x3B3 JUMP JUMPDEST PUSH1 0x0 PUSH2 0xA4F DUP3 PUSH1 0x1 PUSH2 0x1545 JUMP JUMPDEST SWAP1 POP JUMPDEST PUSH1 0x5 DUP2 PUSH1 0xFF AND LT ISZERO PUSH2 0xB1F JUMPI DUP3 DUP2 PUSH1 0xFF AND PUSH1 0x5 DUP2 LT PUSH2 0xA73 JUMPI PUSH2 0xA73 PUSH2 0x1401 JUMP JUMPDEST PUSH1 0x20 MUL ADD PUSH1 0x20 DUP2 ADD SWAP1 PUSH2 0xA86 SWAP2 SWAP1 PUSH2 0x1369 JUMP JUMPDEST PUSH1 0x1 PUSH1 0x1 PUSH1 0xA0 SHL SUB AND DUP4 DUP4 PUSH1 0xFF AND PUSH1 0x5 DUP2 LT PUSH2 0xAA4 JUMPI PUSH2 0xAA4 PUSH2 0x1401 JUMP JUMPDEST PUSH1 0x20 MUL ADD PUSH1 0x20 DUP2 ADD SWAP1 PUSH2 0xAB7 SWAP2 SWAP1 PUSH2 0x1369 JUMP JUMPDEST PUSH1 0x1 PUSH1 0x1 PUSH1 0xA0 SHL SUB AND SUB PUSH2 0xB0D JUMPI PUSH1 0x40 MLOAD PUSH3 0x461BCD PUSH1 0xE5 SHL DUP2 MSTORE PUSH1 0x20 PUSH1 0x4 DUP3 ADD MSTORE PUSH1 0x18 PUSH1 0x24 DUP3 ADD MSTORE PUSH32 0x4475706C69636174652077696E6E657220616464726573730000000000000000 PUSH1 0x44 DUP3 ADD MSTORE PUSH1 0x64 ADD PUSH2 0x3B3 JUMP JUMPDEST DUP1 PUSH2 0xB17 DUP2 PUSH2 0x1465 JUMP JUMPDEST SWAP2 POP POP PUSH2 0xA52 JUMP JUMPDEST POP DUP1 PUSH2 0xB2A DUP2 PUSH2 0x1465 JUMP JUMPDEST SWAP2 POP POP PUSH2 0x9BD JUMP JUMPDEST POP PUSH1 0x5 SLOAD PUSH2 0xB3E PUSH2 0x1293 JUMP JUMPDEST PUSH1 0x0 DUP1 JUMPDEST PUSH1 0x4 DUP2 PUSH1 0xFF AND LT ISZERO PUSH2 0xBE1 JUMPI PUSH1 0x64 PUSH1 0x4 DUP3 PUSH1 0xFF AND PUSH1 0x5 DUP2 LT PUSH2 0xB66 JUMPI PUSH2 0xB66 PUSH2 0x1401 JUMP JUMPDEST PUSH1 0x20 DUP2 DIV SWAP2 SWAP1 SWAP2 ADD SLOAD PUSH2 0xB85 SWAP2 PUSH1 0x1F AND PUSH2 0x100 EXP SWAP1 DIV PUSH1 0xFF AND DUP7 PUSH2 0x13EA JUMP JUMPDEST PUSH2 0xB8F SWAP2 SWAP1 PUSH2 0x13D6 JUMP JUMPDEST DUP4 DUP3 PUSH1 0xFF AND PUSH1 0x5 DUP2 LT PUSH2 0xBA4 JUMPI PUSH2 0xBA4 PUSH2 0x1401 JUMP JUMPDEST PUSH1 0x20 MUL ADD MSTORE DUP3 PUSH1 0xFF DUP3 AND PUSH1 0x5 DUP2 LT PUSH2 0xBBE JUMPI PUSH2 0xBBE PUSH2 0x1401 JUMP JUMPDEST PUSH1 0x20 MUL ADD MLOAD PUSH2 0xBCD SWAP1 DUP4 PUSH2 0x139A JUMP JUMPDEST SWAP2 POP DUP1 PUSH2 0xBD9 DUP2 PUSH2 0x1465 JUMP JUMPDEST SWAP2 POP POP PUSH2 0xB42 JUMP JUMPDEST POP PUSH2 0xBEC DUP2 DUP5 PUSH2 0x13AD JUMP JUMPDEST PUSH1 0x80 DUP4 ADD MSTORE PUSH1 0x0 JUMPDEST PUSH1 0x5 DUP2 PUSH1 0xFF AND LT ISZERO PUSH2 0xD27 JUMPI PUSH1 0x0 DUP4 DUP3 PUSH1 0xFF AND PUSH1 0x5 DUP2 LT PUSH2 0xC17 JUMPI PUSH2 0xC17 PUSH2 0x1401 JUMP JUMPDEST PUSH1 0x20 MUL ADD MLOAD GT ISZERO PUSH2 0xD15 JUMPI PUSH2 0xC7A DUP6 DUP3 PUSH1 0xFF AND PUSH1 0x5 DUP2 LT PUSH2 0xC3A JUMPI PUSH2 0xC3A PUSH2 0x1401 JUMP JUMPDEST PUSH1 0x20 MUL ADD PUSH1 0x20 DUP2 ADD SWAP1 PUSH2 0xC4D SWAP2 SWAP1 PUSH2 0x1369 JUMP JUMPDEST DUP5 DUP4 PUSH1 0xFF AND PUSH1 0x5 DUP2 LT PUSH2 0xC62 JUMPI PUSH2 0xC62 PUSH2 0x1401 JUMP JUMPDEST PUSH1 0x20 MUL ADD MLOAD PUSH1 0x2 SLOAD PUSH1 0x1 PUSH1 0x1 PUSH1 0xA0 SHL SUB AND SWAP2 SWAP1 PUSH2 0xF13 JUMP JUMPDEST DUP5 DUP2 PUSH1 0xFF AND PUSH1 0x5 DUP2 LT PUSH2 0xC8F JUMPI PUSH2 0xC8F PUSH2 0x1401 JUMP JUMPDEST PUSH1 0x20 MUL ADD PUSH1 0x20 DUP2 ADD SWAP1 PUSH2 0xCA2 SWAP2 SWAP1 PUSH2 0x1369 JUMP JUMPDEST PUSH1 0x1 PUSH1 0x1 PUSH1 0xA0 SHL SUB AND PUSH32 0x975B964C87063CC8A663BDA95ACAFCC123CBD152264733E49DE21A70E9C1BB22 DUP5 DUP4 PUSH1 0xFF AND PUSH1 0x5 DUP2 LT PUSH2 0xCE1 JUMPI PUSH2 0xCE1 PUSH2 0x1401 JUMP JUMPDEST PUSH1 0x20 MUL ADD MLOAD PUSH2 0xCF1 DUP5 PUSH1 0x1 PUSH2 0x1545 JUMP JUMPDEST PUSH1 0x7 SLOAD PUSH1 0x40 DUP1 MLOAD SWAP4 DUP5 MSTORE PUSH1 0xFF SWAP1 SWAP3 AND PUSH1 0x20 DUP5 ADD MSTORE SWAP1 DUP3 ADD MSTORE PUSH1 0x60 ADD PUSH1 0x40 MLOAD DUP1 SWAP2 SUB SWAP1 LOG2 JUMPDEST DUP1 PUSH2 0xD1F DUP2 PUSH2 0x1465 JUMP JUMPDEST SWAP2 POP POP PUSH2 0xBF4 JUMP JUMPDEST POP PUSH1 0x5 DUP1 SLOAD PUSH1 0x0 SWAP2 DUP3 SWAP1 SSTORE PUSH1 0x7 DUP1 SLOAD SWAP2 SWAP3 PUSH1 0x1 SWAP3 PUSH2 0xD46 SWAP1 DUP5 SWAP1 PUSH2 0x139A JUMP JUMPDEST SWAP1 SWAP2 SSTORE POP POP TIMESTAMP PUSH1 0x6 DUP2 SWAP1 SSTORE PUSH1 0x0 SWAP1 PUSH1 0x7 SWAP1 PUSH2 0xD65 SWAP1 PUSH3 0x15180 SWAP1 PUSH2 0x13D6 JUMP JUMPDEST PUSH2 0xD70 SWAP1 PUSH1 0x4 PUSH2 0x139A JUMP JUMPDEST PUSH2 0xD7A SWAP2 SWAP1 PUSH2 0x155E JUMP JUMPDEST SWAP1 POP PUSH2 0xD89 DUP2 PUSH3 0x15180 PUSH2 0x13EA JUMP JUMPDEST PUSH1 0x6 SLOAD PUSH2 0xD96 SWAP2 SWAP1 PUSH2 0x13AD JUMP JUMPDEST PUSH1 0x6 SSTORE PUSH1 0x7 SLOAD PUSH32 0xD84108459AE28F4111F3C851DEE576040E08F18D76D1DC82F0094ABE275B1152 SWAP1 PUSH2 0xDCA SWAP1 PUSH1 0x1 SWAP1 PUSH2 0x13AD JUMP JUMPDEST PUSH1 0x40 DUP1 MLOAD SWAP2 DUP3 MSTORE PUSH1 0x20 DUP3 ADD DUP6 SWAP1 MSTORE ADD PUSH1 0x40 MLOAD DUP1 SWAP2 SUB SWAP1 LOG1 POP POP POP POP POP PUSH2 0x438 PUSH1 0x1 DUP1 SSTORE JUMP JUMPDEST PUSH1 0x2 PUSH1 0x1 SLOAD SUB PUSH2 0xE41 JUMPI PUSH1 0x40 MLOAD PUSH3 0x461BCD PUSH1 0xE5 SHL DUP2 MSTORE PUSH1 0x20 PUSH1 0x4 DUP3 ADD MSTORE PUSH1 0x1F PUSH1 0x24 DUP3 ADD MSTORE PUSH32 0x5265656E7472616E637947756172643A207265656E7472616E742063616C6C00 PUSH1 0x44 DUP3 ADD MSTORE PUSH1 0x64 ADD PUSH2 0x3B3 JUMP JUMPDEST PUSH1 0x2 PUSH1 0x1 SSTORE JUMP JUMPDEST PUSH1 0x40 MLOAD PUSH1 0x1 PUSH1 0x1 PUSH1 0xA0 SHL SUB DUP1 DUP6 AND PUSH1 0x24 DUP4 ADD MSTORE DUP4 AND PUSH1 0x44 DUP3 ADD MSTORE PUSH1 0x64 DUP2 ADD DUP3 SWAP1 MSTORE PUSH2 0xEB3 SWAP1 DUP6 SWAP1 PUSH4 0x23B872DD PUSH1 0xE0 SHL SWAP1 PUSH1 0x84 ADD JUMPDEST PUSH1 0x40 DUP1 MLOAD PUSH1 0x1F NOT DUP2 DUP5 SUB ADD DUP2 MSTORE SWAP2 SWAP1 MSTORE PUSH1 0x20 DUP2 ADD DUP1 MLOAD PUSH1 0x1 PUSH1 0x1 PUSH1 0xE0 SHL SUB AND PUSH1 0x1 PUSH1 0x1 PUSH1 0xE0 SHL SUB NOT SWAP1 SWAP4 AND SWAP3 SWAP1 SWAP3 OR SWAP1 SWAP2 MSTORE PUSH2 0xF98 JUMP JUMPDEST POP POP POP POP JUMP JUMPDEST PUSH1 0x0 SLOAD PUSH1 0x1 PUSH1 0x1 PUSH1 0xA0 SHL SUB AND CALLER EQ PUSH2 0x353 JUMPI PUSH1 0x40 MLOAD PUSH3 0x461BCD PUSH1 0xE5 SHL DUP2 MSTORE PUSH1 0x20 PUSH1 0x4 DUP3 ADD DUP2 SWAP1 MSTORE PUSH1 0x24 DUP3 ADD MSTORE PUSH32 0x4F776E61626C653A2063616C6C6572206973206E6F7420746865206F776E6572 PUSH1 0x44 DUP3 ADD MSTORE PUSH1 0x64 ADD PUSH2 0x3B3 JUMP JUMPDEST PUSH1 0x40 MLOAD PUSH1 0x1 PUSH1 0x1 PUSH1 0xA0 SHL SUB DUP4 AND PUSH1 0x24 DUP3 ADD MSTORE PUSH1 0x44 DUP2 ADD DUP3 SWAP1 MSTORE PUSH2 0xF43 SWAP1 DUP5 SWAP1 PUSH4 0xA9059CBB PUSH1 0xE0 SHL SWAP1 PUSH1 0x64 ADD PUSH2 0xE7C JUMP JUMPDEST POP POP POP JUMP JUMPDEST PUSH1 0x0 DUP1 SLOAD PUSH1 0x1 PUSH1 0x1 PUSH1 0xA0 SHL SUB DUP4 DUP2 AND PUSH1 0x1 PUSH1 0x1 PUSH1 0xA0 SHL SUB NOT DUP4 AND DUP2 OR DUP5 SSTORE PUSH1 0x40 MLOAD SWAP2 SWAP1 SWAP3 AND SWAP3 DUP4 SWAP2 PUSH32 0x8BE0079C531659141344CD1FD0A4F28419497F9722A3DAAFE3B4186F6B6457E0 SWAP2 SWAP1 LOG3 POP POP JUMP JUMPDEST PUSH1 0x0 PUSH2 0xFED DUP3 PUSH1 0x40 MLOAD DUP1 PUSH1 0x40 ADD PUSH1 0x40 MSTORE DUP1 PUSH1 0x20 DUP2 MSTORE PUSH1 0x20 ADD PUSH32 0x5361666545524332303A206C6F772D6C6576656C2063616C6C206661696C6564 DUP2 MSTORE POP DUP6 PUSH1 0x1 PUSH1 0x1 PUSH1 0xA0 SHL SUB AND PUSH2 0x106D SWAP1 SWAP3 SWAP2 SWAP1 PUSH4 0xFFFFFFFF AND JUMP JUMPDEST SWAP1 POP DUP1 MLOAD PUSH1 0x0 EQ DUP1 PUSH2 0x100E JUMPI POP DUP1 DUP1 PUSH1 0x20 ADD SWAP1 MLOAD DUP2 ADD SWAP1 PUSH2 0x100E SWAP2 SWAP1 PUSH2 0x1572 JUMP JUMPDEST PUSH2 0xF43 JUMPI PUSH1 0x40 MLOAD PUSH3 0x461BCD PUSH1 0xE5 SHL DUP2 MSTORE PUSH1 0x20 PUSH1 0x4 DUP3 ADD MSTORE PUSH1 0x2A PUSH1 0x24 DUP3 ADD MSTORE PUSH32 0x5361666545524332303A204552433230206F7065726174696F6E20646964206E PUSH1 0x44 DUP3 ADD MSTORE PUSH10 0x1BDD081CDD58D8D95959 PUSH1 0xB2 SHL PUSH1 0x64 DUP3 ADD MSTORE PUSH1 0x84 ADD PUSH2 0x3B3 JUMP JUMPDEST PUSH1 0x60 PUSH2 0x107C DUP5 DUP5 PUSH1 0x0 DUP6 PUSH2 0x1084 JUMP JUMPDEST SWAP5 SWAP4 POP POP POP POP JUMP JUMPDEST PUSH1 0x60 DUP3 SELFBALANCE LT ISZERO PUSH2 0x10E5 JUMPI PUSH1 0x40 MLOAD PUSH3 0x461BCD PUSH1 0xE5 SHL DUP2 MSTORE PUSH1 0x20 PUSH1 0x4 DUP3 ADD MSTORE PUSH1 0x26 PUSH1 0x24 DUP3 ADD MSTORE PUSH32 0x416464726573733A20696E73756666696369656E742062616C616E636520666F PUSH1 0x44 DUP3 ADD MSTORE PUSH6 0x1C8818D85B1B PUSH1 0xD2 SHL PUSH1 0x64 DUP3 ADD MSTORE PUSH1 0x84 ADD PUSH2 0x3B3 JUMP JUMPDEST PUSH1 0x0 DUP1 DUP7 PUSH1 0x1 PUSH1 0x1 PUSH1 0xA0 SHL SUB AND DUP6 DUP8 PUSH1 0x40 MLOAD PUSH2 0x1101 SWAP2 SWAP1 PUSH2 0x15B8 JUMP JUMPDEST PUSH1 0x0 PUSH1 0x40 MLOAD DUP1 DUP4 SUB DUP2 DUP6 DUP8 GAS CALL SWAP3 POP POP POP RETURNDATASIZE DUP1 PUSH1 0x0 DUP2 EQ PUSH2 0x113E JUMPI PUSH1 0x40 MLOAD SWAP2 POP PUSH1 0x1F NOT PUSH1 0x3F RETURNDATASIZE ADD AND DUP3 ADD PUSH1 0x40 MSTORE RETURNDATASIZE DUP3 MSTORE RETURNDATASIZE PUSH1 0x0 PUSH1 0x20 DUP5 ADD RETURNDATACOPY PUSH2 0x1143 JUMP JUMPDEST PUSH1 0x60 SWAP2 POP JUMPDEST POP SWAP2 POP SWAP2 POP PUSH2 0x1154 DUP8 DUP4 DUP4 DUP8 PUSH2 0x115F JUMP JUMPDEST SWAP8 SWAP7 POP POP POP POP POP POP POP JUMP JUMPDEST PUSH1 0x60 DUP4 ISZERO PUSH2 0x11CE JUMPI DUP3 MLOAD PUSH1 0x0 SUB PUSH2 0x11C7 JUMPI PUSH1 0x1 PUSH1 0x1 PUSH1 0xA0 SHL SUB DUP6 AND EXTCODESIZE PUSH2 0x11C7 JUMPI PUSH1 0x40 MLOAD PUSH3 0x461BCD PUSH1 0xE5 SHL DUP2 MSTORE PUSH1 0x20 PUSH1 0x4 DUP3 ADD MSTORE PUSH1 0x1D PUSH1 0x24 DUP3 ADD MSTORE PUSH32 0x416464726573733A2063616C6C20746F206E6F6E2D636F6E7472616374000000 PUSH1 0x44 DUP3 ADD MSTORE PUSH1 0x64 ADD PUSH2 0x3B3 JUMP JUMPDEST POP DUP2 PUSH2 0x107C JUMP JUMPDEST PUSH2 0x107C DUP4 DUP4 DUP2 MLOAD ISZERO PUSH2 0x11E3 JUMPI DUP2 MLOAD DUP1 DUP4 PUSH1 0x20 ADD REVERT JUMPDEST DUP1 PUSH1 0x40 MLOAD PUSH3 0x461BCD PUSH1 0xE5 SHL DUP2 MSTORE PUSH1 0x4 ADD PUSH2 0x3B3 SWAP2 SWAP1 PUSH2 0x15D4 JUMP JUMPDEST PUSH1 0x1 DUP4 ADD SWAP2 DUP4 SWAP1 DUP3 ISZERO PUSH2 0x1283 JUMPI SWAP2 PUSH1 0x20 MUL DUP3 ADD PUSH1 0x0 JUMPDEST DUP4 DUP3 GT ISZERO PUSH2 0x1254 JUMPI DUP4 CALLDATALOAD PUSH1 0xFF AND DUP4 DUP3 PUSH2 0x100 EXP DUP2 SLOAD DUP2 PUSH1 0xFF MUL NOT AND SWAP1 DUP4 PUSH1 0xFF AND MUL OR SWAP1 SSTORE POP SWAP3 PUSH1 0x20 ADD SWAP3 PUSH1 0x1 ADD PUSH1 0x20 DUP2 PUSH1 0x0 ADD DIV SWAP3 DUP4 ADD SWAP3 PUSH1 0x1 SUB MUL PUSH2 0x1213 JUMP JUMPDEST DUP1 ISZERO PUSH2 0x1281 JUMPI DUP3 DUP2 PUSH2 0x100 EXP DUP2 SLOAD SWAP1 PUSH1 0xFF MUL NOT AND SWAP1 SSTORE PUSH1 0x1 ADD PUSH1 0x20 DUP2 PUSH1 0x0 ADD DIV SWAP3 DUP4 ADD SWAP3 PUSH1 0x1 SUB MUL PUSH2 0x1254 JUMP JUMPDEST POP JUMPDEST POP PUSH2 0x128F SWAP3 SWAP2 POP PUSH2 0x12B1 JUMP JUMPDEST POP SWAP1 JUMP JUMPDEST PUSH1 0x40 MLOAD DUP1 PUSH1 0xA0 ADD PUSH1 0x40 MSTORE DUP1 PUSH1 0x5 SWAP1 PUSH1 0x20 DUP3 MUL DUP1 CALLDATASIZE DUP4 CALLDATACOPY POP SWAP2 SWAP3 SWAP2 POP POP JUMP JUMPDEST JUMPDEST DUP1 DUP3 GT ISZERO PUSH2 0x128F JUMPI PUSH1 0x0 DUP2 SSTORE PUSH1 0x1 ADD PUSH2 0x12B2 JUMP JUMPDEST PUSH1 0x0 PUSH1 0x20 DUP3 DUP5 SUB SLT ISZERO PUSH2 0x12D8 JUMPI PUSH1 0x0 DUP1 REVERT JUMPDEST POP CALLDATALOAD SWAP2 SWAP1 POP JUMP JUMPDEST DUP1 PUSH1 0xA0 DUP2 ADD DUP4 LT ISZERO PUSH2 0x12F0 JUMPI PUSH1 0x0 DUP1 REVERT JUMPDEST SWAP3 SWAP2 POP POP JUMP JUMPDEST PUSH1 0x0 PUSH1 0xA0 DUP3 DUP5 SUB SLT ISZERO PUSH2 0x1308 JUMPI PUSH1 0x0 DUP1 REVERT JUMPDEST PUSH2 0x1312 DUP4 DUP4 PUSH2 0x12DF JUMP JUMPDEST SWAP4 SWAP3 POP POP POP JUMP JUMPDEST DUP1 PUSH1 0x0 JUMPDEST PUSH1 0x5 DUP2 LT ISZERO PUSH2 0xEB3 JUMPI DUP2 MLOAD PUSH1 0xFF AND DUP5 MSTORE PUSH1 0x20 SWAP4 DUP5 ADD SWAP4 SWAP1 SWAP2 ADD SWAP1 PUSH1 0x1 ADD PUSH2 0x131D JUMP JUMPDEST PUSH1 0xA0 DUP2 ADD PUSH2 0x12F0 DUP3 DUP5 PUSH2 0x1319 JUMP JUMPDEST DUP1 CALLDATALOAD PUSH1 0x1 PUSH1 0x1 PUSH1 0xA0 SHL SUB DUP2 AND DUP2 EQ PUSH2 0x1364 JUMPI PUSH1 0x0 DUP1 REVERT JUMPDEST SWAP2 SWAP1 POP JUMP JUMPDEST PUSH1 0x0 PUSH1 0x20 DUP3 DUP5 SUB SLT ISZERO PUSH2 0x137B JUMPI PUSH1 0x0 DUP1 REVERT JUMPDEST PUSH2 0x1312 DUP3 PUSH2 0x134D JUMP JUMPDEST PUSH4 0x4E487B71 PUSH1 0xE0 SHL PUSH1 0x0 MSTORE PUSH1 0x11 PUSH1 0x4 MSTORE PUSH1 0x24 PUSH1 0x0 REVERT JUMPDEST DUP1 DUP3 ADD DUP1 DUP3 GT ISZERO PUSH2 0x12F0 JUMPI PUSH2 0x12F0 PUSH2 0x1384 JUMP JUMPDEST DUP2 DUP2 SUB DUP2 DUP2 GT ISZERO PUSH2 0x12F0 JUMPI PUSH2 0x12F0 PUSH2 0x1384 JUMP JUMPDEST PUSH4 0x4E487B71 PUSH1 0xE0 SHL PUSH1 0x0 MSTORE PUSH1 0x12 PUSH1 0x4 MSTORE PUSH1 0x24 PUSH1 0x0 REVERT JUMPDEST PUSH1 0x0 DUP3 PUSH2 0x13E5 JUMPI PUSH2 0x13E5 PUSH2 0x13C0 JUMP JUMPDEST POP DIV SWAP1 JUMP JUMPDEST DUP1 DUP3 MUL DUP2 ISZERO DUP3 DUP3 DIV DUP5 EQ OR PUSH2 0x12F0 JUMPI PUSH2 0x12F0 PUSH2 0x1384 JUMP JUMPDEST PUSH4 0x4E487B71 PUSH1 0xE0 SHL PUSH1 0x0 MSTORE PUSH1 0x32 PUSH1 0x4 MSTORE PUSH1 0x24 PUSH1 0x0 REVERT JUMPDEST DUP1 CALLDATALOAD PUSH1 0xFF DUP2 AND DUP2 EQ PUSH2 0x1364 JUMPI PUSH1 0x0 DUP1 REVERT JUMPDEST PUSH1 0x0 PUSH1 0x20 DUP3 DUP5 SUB SLT ISZERO PUSH2 0x143A JUMPI PUSH1 0x0 DUP1 REVERT JUMPDEST PUSH2 0x1312 DUP3 PUSH2 0x1417 JUMP JUMPDEST PUSH2 0xFFFF DUP2 DUP2 AND DUP4 DUP3 AND ADD SWAP1 DUP1 DUP3 GT ISZERO PUSH2 0x145E JUMPI PUSH2 0x145E PUSH2 0x1384 JUMP JUMPDEST POP SWAP3 SWAP2 POP POP JUMP JUMPDEST PUSH1 0x0 PUSH1 0xFF DUP3 AND PUSH1 0xFF DUP2 SUB PUSH2 0x147B JUMPI PUSH2 0x147B PUSH2 0x1384 JUMP JUMPDEST PUSH1 0x1 ADD SWAP3 SWAP2 POP POP JUMP JUMPDEST PUSH2 0x140 DUP2 ADD PUSH2 0x1493 DUP3 DUP6 PUSH2 0x1319 JUMP JUMPDEST PUSH1 0xA0 DUP3 ADD DUP4 PUSH1 0x0 JUMPDEST PUSH1 0x5 DUP2 LT ISZERO PUSH2 0x14C5 JUMPI PUSH1 0xFF PUSH2 0x14AF DUP4 PUSH2 0x1417 JUMP JUMPDEST AND DUP4 MSTORE PUSH1 0x20 SWAP3 DUP4 ADD SWAP3 SWAP2 SWAP1 SWAP2 ADD SWAP1 PUSH1 0x1 ADD PUSH2 0x149B JUMP JUMPDEST POP POP POP SWAP4 SWAP3 POP POP POP JUMP JUMPDEST PUSH2 0x160 DUP2 ADD DUP2 DUP6 PUSH1 0x0 JUMPDEST PUSH1 0x5 DUP2 LT ISZERO PUSH2 0x1509 JUMPI PUSH1 0x1 PUSH1 0x1 PUSH1 0xA0 SHL SUB PUSH2 0x14F3 DUP4 PUSH2 0x134D JUMP JUMPDEST AND DUP4 MSTORE PUSH1 0x20 SWAP3 DUP4 ADD SWAP3 SWAP2 SWAP1 SWAP2 ADD SWAP1 PUSH1 0x1 ADD PUSH2 0x14D9 JUMP JUMPDEST POP POP POP PUSH1 0xA0 DUP3 ADD DUP5 PUSH1 0x0 JUMPDEST PUSH1 0x5 DUP2 LT ISZERO PUSH2 0x1533 JUMPI DUP2 MLOAD DUP4 MSTORE PUSH1 0x20 SWAP3 DUP4 ADD SWAP3 SWAP1 SWAP2 ADD SWAP1 PUSH1 0x1 ADD PUSH2 0x1514 JUMP JUMPDEST POP POP POP DUP3 PUSH2 0x140 DUP4 ADD MSTORE SWAP5 SWAP4 POP POP POP POP JUMP JUMPDEST PUSH1 0xFF DUP2 DUP2 AND DUP4 DUP3 AND ADD SWAP1 DUP2 GT ISZERO PUSH2 0x12F0 JUMPI PUSH2 0x12F0 PUSH2 0x1384 JUMP JUMPDEST PUSH1 0x0 DUP3 PUSH2 0x156D JUMPI PUSH2 0x156D PUSH2 0x13C0 JUMP JUMPDEST POP MOD SWAP1 JUMP JUMPDEST PUSH1 0x0 PUSH1 0x20 DUP3 DUP5 SUB SLT ISZERO PUSH2 0x1584 JUMPI PUSH1 0x0 DUP1 REVERT JUMPDEST DUP2 MLOAD DUP1 ISZERO ISZERO DUP2 EQ PUSH2 0x1312 JUMPI PUSH1 0x0 DUP1 REVERT JUMPDEST PUSH1 0x0 JUMPDEST DUP4 DUP2 LT ISZERO PUSH2 0x15AF JUMPI DUP2 DUP2 ADD MLOAD DUP4 DUP3 ADD MSTORE PUSH1 0x20 ADD PUSH2 0x1597 JUMP JUMPDEST POP POP PUSH1 0x0 SWAP2 ADD MSTORE JUMP JUMPDEST PUSH1 0x0 DUP3 MLOAD PUSH2 0x15CA DUP2 DUP5 PUSH1 0x20 DUP8 ADD PUSH2 0x1594 JUMP JUMPDEST SWAP2 SWAP1 SWAP2 ADD SWAP3 SWAP2 POP POP JUMP JUMPDEST PUSH1 0x20 DUP2 MSTORE PUSH1 0x0 DUP3 MLOAD DUP1 PUSH1 0x20 DUP5 ADD MSTORE PUSH2 0x15F3 DUP2 PUSH1 0x40 DUP6 ADD PUSH1 0x20 DUP8 ADD PUSH2 0x1594 JUMP JUMPDEST PUSH1 0x1F ADD PUSH1 0x1F NOT AND SWAP2 SWAP1 SWAP2 ADD PUSH1 0x40 ADD SWAP3 SWAP2 POP POP JUMP INVALID LOG2 PUSH5 0x6970667358 0x22 SLT KECCAK256 DUP3 SWAP4 DUP3 CALLVALUE LOG0 0x5C 0xCD 0xE7 0xB4 SWAP2 DUP14 0xE8 0x5D 0xF7 EXTCODECOPY 0x2E 0xF9 LT PUSH5 0xD2D908AF7A EXTCODEHASH PUSH19 0xF2ED7AA263AD64736F6C634300081300330000 "},"methodIdentifiers":{"SEASON_DURATION()":"dc185e35","currentSeason()":"bcb39621","distributePrizes(address[5])":"da8c7792","endSeason(address[5])":"fa5b1a7f","enterGame()":"218bd577","entryFee()":"072ea61c","getCurrentSeason()":"d3b30b75","getCurrentSeasonEndTime()":"ab2a79f9","getPrizeDistribution()":"cbd3f962","owner()":"8da5cb5b","ownerWithdraw(uint256)":"33f707d1","prizeDistribution(uint256)":"54c237b7","renounceOwnership()":"715018a6","seasonStartTime()":"8104ae4d","setDistribution(uint8[5])":"8d667564","setEntryFee(uint256)":"eb770d0c","supToken()":"0102df25","transferOwnership(address)":"f2fde38b","weeklyPrizePool()":"7971999a"}}}}}