{
  "_format": "hh-sol-artifact-1",
  "contractName": "TetriSeedGame",
  "sourceName": "contracts/TetriSeedGame.sol",
  "abi": [
    {
      "inputs": [],
      "stateMutability": "nonpayable",
      "type": "constructor"
    },
    {
      "anonymous": false,
      "inputs": [
        {
          "indexed": false,
          "internalType": "uint8[5]",
          "name": "oldDistribution",
          "type": "uint8[5]"
        },
        {
          "indexed": false,
          "internalType": "uint8[5]",
          "name": "newDistribution",
          "type": "uint8[5]"
        }
      ],
      "name": "DistributionUpdated",
      "type": "event"
    },
    {
      "anonymous": false,
      "inputs": [
        {
          "indexed": false,
          "internalType": "uint256",
          "name": "oldFee",
          "type": "uint256"
        },
        {
          "indexed": false,
          "internalType": "uint256",
          "name": "newFee",
          "type": "uint256"
        }
      ],
      "name": "EntryFeeUpdated",
      "type": "event"
    },
    {
      "anonymous": false,
      "inputs": [
        {
          "indexed": true,
          "internalType": "address",
          "name": "player",
          "type": "address"
        },
        {
          "indexed": false,
          "internalType": "uint256",
          "name": "amount",
          "type": "uint256"
        },
        {
          "indexed": false,
          "internalType": "uint256",
          "name": "timestamp",
          "type": "uint256"
        }
      ],
      "name": "EthDeposited",
      "type": "event"
    },
    {
      "anonymous": false,
      "inputs": [
        {
          "indexed": true,
          "internalType": "address",
          "name": "recipient",
          "type": "address"
        },
        {
          "indexed": false,
          "internalType": "uint256",
          "name": "amount",
          "type": "uint256"
        },
        {
          "indexed": false,
          "internalType": "uint256",
          "name": "timestamp",
          "type": "uint256"
        }
      ],
      "name": "EthWithdrawn",
      "type": "event"
    },
    {
      "anonymous": false,
      "inputs": [
        {
          "indexed": true,
          "internalType": "address",
          "name": "player",
          "type": "address"
        },
        {
          "indexed": false,
          "internalType": "uint256",
          "name": "fee",
          "type": "uint256"
        },
        {
          "indexed": false,
          "internalType": "uint256",
          "name": "timestamp",
          "type": "uint256"
        }
      ],
      "name": "GameEntered",
      "type": "event"
    },
    {
      "anonymous": false,
      "inputs": [
        {
          "indexed": false,
          "internalType": "uint256",
          "name": "amount",
          "type": "uint256"
        },
        {
          "indexed": false,
          "internalType": "uint256",
          "name": "timestamp",
          "type": "uint256"
        }
      ],
      "name": "OwnerWithdrawal",
      "type": "event"
    },
    {
      "anonymous": false,
      "inputs": [
        {
          "indexed": true,
          "internalType": "address",
          "name": "previousOwner",
          "type": "address"
        },
        {
          "indexed": true,
          "internalType": "address",
          "name": "newOwner",
          "type": "address"
        }
      ],
      "name": "OwnershipTransferred",
      "type": "event"
    },
    {
      "anonymous": false,
      "inputs": [
        {
          "indexed": true,
          "internalType": "address",
          "name": "winner",
          "type": "address"
        },
        {
          "indexed": false,
          "internalType": "uint256",
          "name": "amount",
          "type": "uint256"
        },
        {
          "indexed": false,
          "internalType": "uint8",
          "name": "rank",
          "type": "uint8"
        },
        {
          "indexed": true,
          "internalType": "uint256",
          "name": "season",
          "type": "uint256"
        }
      ],
      "name": "PrizeAwarded",
      "type": "event"
    },
    {
      "anonymous": false,
      "inputs": [
        {
          "indexed": false,
          "internalType": "address[5]",
          "name": "winners",
          "type": "address[5]"
        },
        {
          "indexed": false,
          "internalType": "uint256[5]",
          "name": "amounts",
          "type": "uint256[5]"
        },
        {
          "indexed": false,
          "internalType": "uint256",
          "name": "totalDistributed",
          "type": "uint256"
        }
      ],
      "name": "PrizesDistributed",
      "type": "event"
    },
    {
      "anonymous": false,
      "inputs": [
        {
          "indexed": true,
          "internalType": "uint256",
          "name": "season",
          "type": "uint256"
        },
        {
          "indexed": false,
          "internalType": "uint256",
          "name": "totalPrize",
          "type": "uint256"
        }
      ],
      "name": "SeasonEnded",
      "type": "event"
    },
    {
      "inputs": [],
      "name": "SEASON_DURATION",
      "outputs": [
        {
          "internalType": "uint256",
          "name": "",
          "type": "uint256"
        }
      ],
      "stateMutability": "view",
      "type": "function"
    },
    {
      "inputs": [],
      "name": "currentSeason",
      "outputs": [
        {
          "internalType": "uint256",
          "name": "",
          "type": "uint256"
        }
      ],
      "stateMutability": "view",
      "type": "function"
    },
    {
      "inputs": [],
      "name": "depositEth",
      "outputs": [],
      "stateMutability": "payable",
      "type": "function"
    },
    {
      "inputs": [
        {
          "internalType": "address[5]",
          "name": "winners",
          "type": "address[5]"
        }
      ],
      "name": "endSeason",
      "outputs": [],
      "stateMutability": "nonpayable",
      "type": "function"
    },
    {
      "inputs": [],
      "name": "enterGame",
      "outputs": [],
      "stateMutability": "payable",
      "type": "function"
    },
    {
      "inputs": [],
      "name": "entryFee",
      "outputs": [
        {
          "internalType": "uint256",
          "name": "",
          "type": "uint256"
        }
      ],
      "stateMutability": "view",
      "type": "function"
    },
    {
      "inputs": [],
      "name": "getCurrentSeasonEndTime",
      "outputs": [
        {
          "internalType": "uint256",
          "name": "",
          "type": "uint256"
        }
      ],
      "stateMutability": "view",
      "type": "function"
    },
    {
      "inputs": [],
      "name": "getPrizeDistribution",
      "outputs": [
        {
          "internalType": "uint8[5]",
          "name": "",
          "type": "uint8[5]"
        }
      ],
      "stateMutability": "view",
      "type": "function"
    },
    {
      "inputs": [],
      "name": "owner",
      "outputs": [
        {
          "internalType": "address",
          "name": "",
          "type": "address"
        }
      ],
      "stateMutability": "view",
      "type": "function"
    },
    {
      "inputs": [
        {
          "internalType": "uint256",
          "name": "amount",
          "type": "uint256"
        }
      ],
      "name": "ownerWithdraw",
      "outputs": [],
      "stateMutability": "nonpayable",
      "type": "function"
    },
    {
      "inputs": [
        {
          "internalType": "address",
          "name": "",
          "type": "address"
        }
      ],
      "name": "playerBalances",
      "outputs": [
        {
          "internalType": "uint256",
          "name": "",
          "type": "uint256"
        }
      ],
      "stateMutability": "view",
      "type": "function"
    },
    {
      "inputs": [
        {
          "internalType": "uint256",
          "name": "",
          "type": "uint256"
        }
      ],
      "name": "prizeDistribution",
      "outputs": [
        {
          "internalType": "uint8",
          "name": "",
          "type": "uint8"
        }
      ],
      "stateMutability": "view",
      "type": "function"
    },
    {
      "inputs": [],
      "name": "renounceOwnership",
      "outputs": [],
      "stateMutability": "nonpayable",
      "type": "function"
    },
    {
      "inputs": [],
      "name": "seasonStartTime",
      "outputs": [
        {
          "internalType": "uint256",
          "name": "",
          "type": "uint256"
        }
      ],
      "stateMutability": "view",
      "type": "function"
    },
    {
      "inputs": [
        {
          "internalType": "uint8[5]",
          "name": "newPercentages",
          "type": "uint8[5]"
        }
      ],
      "name": "setDistribution",
      "outputs": [],
      "stateMutability": "nonpayable",
      "type": "function"
    },
    {
      "inputs": [
        {
          "internalType": "uint256",
          "name": "newFee",
          "type": "uint256"
        }
      ],
      "name": "setEntryFee",
      "outputs": [],
      "stateMutability": "nonpayable",
      "type": "function"
    },
    {
      "inputs": [
        {
          "internalType": "address",
          "name": "newOwner",
          "type": "address"
        }
      ],
      "name": "transferOwnership",
      "outputs": [],
      "stateMutability": "nonpayable",
      "type": "function"
    },
    {
      "inputs": [],
      "name": "weeklyPrizePool",
      "outputs": [
        {
          "internalType": "uint256",
          "name": "",
          "type": "uint256"
        }
      ],
      "stateMutability": "view",
      "type": "function"
    },
    {
      "stateMutability": "payable",
      "type": "receive"
    }
  ],
  "bytecode": "0x60806040523480156200001157600080fd5b506200001d33620000c2565b60018055655af3107a40006002556040805160a08101825260328152601e6020820152600a9181019190915260056060820181905260808201819052620000679160039162000112565b5042600060076200007c6201518084620001ef565b6200008990600462000206565b62000095919062000222565b9050620000a6816201518062000239565b620000b2908362000253565b6005555050600160065562000269565b600080546001600160a01b038381166001600160a01b0319831681178455604051919092169283917f8be0079c531659141344cd1fd0a4f28419497f9722a3daafe3b4186f6b6457e09190a35050565b6001830191839082156200019a5791602002820160005b838211156200016957835183826101000a81548160ff021916908360ff160217905550926020019260010160208160000104928301926001030262000129565b8015620001985782816101000a81549060ff021916905560010160208160000104928301926001030262000169565b505b50620001a8929150620001ac565b5090565b5b80821115620001a85760008155600101620001ad565b634e487b7160e01b600052601260045260246000fd5b634e487b7160e01b600052601160045260246000fd5b600082620002015762000201620001c3565b500490565b808201808211156200021c576200021c620001d9565b92915050565b600082620002345762000234620001c3565b500690565b80820281158282048414176200021c576200021c620001d9565b818103818111156200021c576200021c620001d9565b61149880620002796000396000f3fe60806040526004361061010d5760003560e01c80638d66756411610095578063cbd3f96211610064578063cbd3f962146102e5578063dc185e3514610307578063eb770d0c1461031e578063f2fde38b1461033e578063fa5b1a7f1461035e57600080fd5b80638d667564146102725780638da5cb5b14610292578063ab2a79f9146102ba578063bcb39621146102cf57600080fd5b806354c237b7116100dc57806354c237b7146101d2578063715018a6146102045780637971999a146102195780637b38314c1461022f5780638104ae4d1461025c57600080fd5b8063072ea61c14610177578063218bd577146101a057806333f707d1146101aa578063439370b1146101ca57600080fd5b36610172573360009081526007602052604081208054349290610131908490611245565b90915550506040805134815242602082015233917f3f7db3ccdc06492eb9fcca5fe34fcee7f7ddcca331e5053cb3534067b9a53232910160405180910390a2005b600080fd5b34801561018357600080fd5b5061018d60025481565b6040519081526020015b60405180910390f35b6101a861037e565b005b3480156101b657600080fd5b506101a86101c536600461125e565b6105b9565b6101a8610757565b3480156101de57600080fd5b506101f26101ed36600461125e565b61080a565b60405160ff9091168152602001610197565b34801561021057600080fd5b506101a8610834565b34801561022557600080fd5b5061018d60045481565b34801561023b57600080fd5b5061018d61024a366004611277565b60076020526000908152604090205481565b34801561026857600080fd5b5061018d60055481565b34801561027e57600080fd5b506101a861028d3660046112b8565b610846565b34801561029e57600080fd5b506000546040516001600160a01b039091168152602001610197565b3480156102c657600080fd5b5061018d61099a565b3480156102db57600080fd5b5061018d60065481565b3480156102f157600080fd5b506102fa6109b2565b6040516101979190611300565b34801561031357600080fd5b5061018d62093a8081565b34801561032a57600080fd5b506101a861033936600461125e565b610a0a565b34801561034a57600080fd5b506101a8610359366004611277565b610ab3565b34801561036a57600080fd5b506101a86103793660046112b8565b610b29565b610386611063565b62093a806005546103979190611245565b42106103e257600062093a80600554426103b1919061130e565b6103bb9190611337565b90506103ca62093a808261134b565b600560008282546103db9190611245565b9091555050505b600254336000908152600760205260409020541061042757600254336000908152600760205260408120805490919061041c90849061130e565b9091555061051a9050565b6002543410156104765760405162461bcd60e51b8152602060048201526015602482015274125b9cdd59999a58da595b9d08115512081cd95b9d605a1b60448201526064015b60405180910390fd5b60025434111561051a576002546000903390610492903461130e565b604051600081818185875af1925050503d80600081146104ce576040519150601f19603f3d011682016040523d82523d6000602084013e6104d3565b606091505b50509050806105185760405162461bcd60e51b8152602060048201526011602482015270115512081c99599d5b990819985a5b1959607a1b604482015260640161046d565b505b6002546004600082825461052e9190611245565b90915550506002546040805191825242602083015233917f3f7db3ccdc06492eb9fcca5fe34fcee7f7ddcca331e5053cb3534067b9a53232910160405180910390a26002546040805191825242602083015233917f9a1a3c45c9a593fe515b398aac3639ed6ac33d78b8c7eeb8f81241e8ecf65ee991015b60405180910390a26105b760018055565b565b6105c16110bc565b6105c9611063565b60045481111561061b5760405162461bcd60e51b815260206004820152601e60248201527f416d6f756e74206578636565647320617661696c61626c652066756e64730000604482015260640161046d565b806004600082825461062d919061130e565b9091555050600080546040516001600160a01b039091169083908381818185875af1925050503d806000811461067f576040519150601f19603f3d011682016040523d82523d6000602084013e610684565b606091505b50509050806106cb5760405162461bcd60e51b8152602060048201526013602482015272115512081d1c985b9cd9995c8819985a5b1959606a1b604482015260640161046d565b600054604080518481524260208201526001600160a01b03909216917f7b4c04a6b3225fb798a519b1a97ce524a26a8b1e23aa2285e7a70768cab85f24910160405180910390a2604080518381524260208201527f1dcb27f9812d159cc6ea3f1338ec78646f39b830096254199c14e2228950c1c8910160405180910390a15061075460018055565b50565b61075f611063565b600034116107af5760405162461bcd60e51b815260206004820181905260248201527f416d6f756e74206d7573742062652067726561746572207468616e207a65726f604482015260640161046d565b33600090815260076020526040812080543492906107ce908490611245565b90915550506040805134815242602082015233917f3f7db3ccdc06492eb9fcca5fe34fcee7f7ddcca331e5053cb3534067b9a5323291016105a6565b6003816005811061081a57600080fd5b60209182820401919006915054906101000a900460ff1681565b61083c6110bc565b6105b76000611116565b61084e6110bc565b6000805b60058160ff1610156108a757828160ff166005811061087357610873611362565b602002016020810190610886919061138e565b6108939060ff16836113a9565b91508061089f816113cb565b915050610852565b508061ffff166064146108fc5760405162461bcd60e51b815260206004820152601e60248201527f50657263656e7461676573206d7573742061646420757020746f203130300000604482015260640161046d565b6040805160a08101918290526000916003906005908285855b825461010083900a900460ff168152602060019283018181049485019490930390920291018084116109155790505050505050905082600390600561095b929190611166565b507fd8398b26cff3564d354793d25b095bd15773387cdf28c90d94a1ad524bdaeb7b818460405161098d9291906113ea565b60405180910390a1505050565b600062093a806005546109ad9190611245565b905090565b6109ba6111fc565b6040805160a081019182905290600390600590826000855b825461010083900a900460ff168152602060019283018181049485019490930390920291018084116109d25790505050505050905090565b610a126110bc565b60008111610a6e5760405162461bcd60e51b815260206004820152602360248201527f456e74727920666565206d7573742062652067726561746572207468616e207a60448201526265726f60e81b606482015260840161046d565b600280549082905560408051828152602081018490527f6a75d918a59da9597a749b7c707f23cfa76552074b43c68a24a21db1c45841f1910160405180910390a15050565b610abb6110bc565b6001600160a01b038116610b205760405162461bcd60e51b815260206004820152602660248201527f4f776e61626c653a206e6577206f776e657220697320746865207a65726f206160448201526564647265737360d01b606482015260840161046d565b61075481611116565b610b316110bc565b610b39611063565b600060045411610b8b5760405162461bcd60e51b815260206004820152601760248201527f4e6f207072697a657320746f2064697374726962757465000000000000000000604482015260640161046d565b60005b60058160ff161015610d035760008260ff831660058110610bb157610bb1611362565b602002016020810190610bc49190611277565b6001600160a01b031603610c135760405162461bcd60e51b8152602060048201526016602482015275496e76616c69642077696e6e6572206164647265737360501b604482015260640161046d565b6000610c20826001611435565b90505b60058160ff161015610cf057828160ff1660058110610c4457610c44611362565b602002016020810190610c579190611277565b6001600160a01b0316838360ff1660058110610c7557610c75611362565b602002016020810190610c889190611277565b6001600160a01b031603610cde5760405162461bcd60e51b815260206004820152601860248201527f4475706c69636174652077696e6e657220616464726573730000000000000000604482015260640161046d565b80610ce8816113cb565b915050610c23565b5080610cfb816113cb565b915050610b8e565b50600454610d0f6111fc565b6000805b60048160ff161015610db257606460038260ff1660058110610d3757610d37611362565b602081049190910154610d5691601f166101000a900460ff168661134b565b610d609190611337565b838260ff1660058110610d7557610d75611362565b60200201528260ff821660058110610d8f57610d8f611362565b6020020151610d9e9083611245565b915080610daa816113cb565b915050610d13565b50610dbd818461130e565b608083015260005b60058160ff161015610fa1576000838260ff1660058110610de857610de8611362565b60200201511115610f8f57828160ff1660058110610e0857610e08611362565b602002015160076000878460ff1660058110610e2657610e26611362565b602002016020810190610e399190611277565b6001600160a01b03166001600160a01b031681526020019081526020016000206000828254610e689190611245565b9091555085905060ff821660058110610e8357610e83611362565b602002016020810190610e969190611277565b6001600160a01b03167f7b4c04a6b3225fb798a519b1a97ce524a26a8b1e23aa2285e7a70768cab85f24848360ff1660058110610ed557610ed5611362565b602002015142604051610ef2929190918252602082015260400190565b60405180910390a2600654858260ff1660058110610f1257610f12611362565b602002016020810190610f259190611277565b6001600160a01b03167f975b964c87063cc8a663bda95acafcc123cbd152264733e49de21a70e9c1bb22858460ff1660058110610f6457610f64611362565b6020020151610f74856001611435565b6040805192835260ff90911660208301520160405180910390a35b80610f99816113cb565b915050610dc5565b5060048054600091829055600680549192600192610fc0908490611245565b9091555050426005819055600090600790610fdf906201518090611337565b610fea906004611245565b610ff4919061144e565b9050611003816201518061134b565b600554611010919061130e565b6005556006546110229060019061130e565b6040518381527fd84108459ae28f4111f3c851dee576040e08f18d76d1dc82f0094abe275b11529060200160405180910390a2505050505061075460018055565b6002600154036110b55760405162461bcd60e51b815260206004820152601f60248201527f5265656e7472616e637947756172643a207265656e7472616e742063616c6c00604482015260640161046d565b6002600155565b6000546001600160a01b031633146105b75760405162461bcd60e51b815260206004820181905260248201527f4f776e61626c653a2063616c6c6572206973206e6f7420746865206f776e6572604482015260640161046d565b600080546001600160a01b038381166001600160a01b0319831681178455604051919092169283917f8be0079c531659141344cd1fd0a4f28419497f9722a3daafe3b4186f6b6457e09190a35050565b6001830191839082156111ec5791602002820160005b838211156111bd57833560ff1683826101000a81548160ff021916908360ff160217905550926020019260010160208160000104928301926001030261117c565b80156111ea5782816101000a81549060ff02191690556001016020816000010492830192600103026111bd565b505b506111f892915061121a565b5090565b6040518060a001604052806005906020820280368337509192915050565b5b808211156111f8576000815560010161121b565b634e487b7160e01b600052601160045260246000fd5b808201808211156112585761125861122f565b92915050565b60006020828403121561127057600080fd5b5035919050565b60006020828403121561128957600080fd5b81356001600160a01b03811681146112a057600080fd5b9392505050565b8060a0810183101561125857600080fd5b600060a082840312156112ca57600080fd5b6112a083836112a7565b8060005b60058110156112fa57815160ff168452602093840193909101906001016112d8565b50505050565b60a0810161125882846112d4565b818103818111156112585761125861122f565b634e487b7160e01b600052601260045260246000fd5b60008261134657611346611321565b500490565b80820281158282048414176112585761125861122f565b634e487b7160e01b600052603260045260246000fd5b803560ff8116811461138957600080fd5b919050565b6000602082840312156113a057600080fd5b6112a082611378565b61ffff8181168382160190808211156113c4576113c461122f565b5092915050565b600060ff821660ff81036113e1576113e161122f565b60010192915050565b61014081016113f982856112d4565b60a082018360005b600581101561142b5760ff61141583611378565b1683526020928301929190910190600101611401565b5050509392505050565b60ff81811683821601908111156112585761125861122f565b60008261145d5761145d611321565b50069056fea2646970667358221220914b4f0560606a9ff2f8f842aa198d80060b46f20973f51bca4e5a570c4f019364736f6c63430008130033",
  "linkReferences": {},
  "deployedLinkReferences": {}
}