{
  "_format": "hh-sol-artifact-1",
  "contractName": "TetriSeedGame",
  "sourceName": "contracts/TetriSeedGame.sol",
  "abi": [
    {
      "inputs": [
        {
          "internalType": "address",
          "name": "_tokenAddress",
          "type": "address"
        }
      ],
      "stateMutability": "nonpayable",
      "type": "constructor"
    },
    {
      "anonymous": false,
      "inputs": [
        {
          "indexed": false,
          "internalType": "uint8[5]",
          "name": "oldDistribution",
          "type": "uint8[5]"
        },
        {
          "indexed": false,
          "internalType": "uint8[5]",
          "name": "newDistribution",
          "type": "uint8[5]"
        }
      ],
      "name": "DistributionUpdated",
      "type": "event"
    },
    {
      "anonymous": false,
      "inputs": [
        {
          "indexed": false,
          "internalType": "uint256",
          "name": "oldFee",
          "type": "uint256"
        },
        {
          "indexed": false,
          "internalType": "uint256",
          "name": "newFee",
          "type": "uint256"
        }
      ],
      "name": "EntryFeeUpdated",
      "type": "event"
    },
    {
      "anonymous": false,
      "inputs": [
        {
          "indexed": true,
          "internalType": "address",
          "name": "player",
          "type": "address"
        },
        {
          "indexed": false,
          "internalType": "uint256",
          "name": "fee",
          "type": "uint256"
        },
        {
          "indexed": false,
          "internalType": "uint256",
          "name": "timestamp",
          "type": "uint256"
        }
      ],
      "name": "GameEntered",
      "type": "event"
    },
    {
      "anonymous": false,
      "inputs": [
        {
          "indexed": false,
          "internalType": "uint256",
          "name": "amount",
          "type": "uint256"
        },
        {
          "indexed": false,
          "internalType": "uint256",
          "name": "timestamp",
          "type": "uint256"
        }
      ],
      "name": "OwnerWithdrawal",
      "type": "event"
    },
    {
      "anonymous": false,
      "inputs": [
        {
          "indexed": true,
          "internalType": "address",
          "name": "previousOwner",
          "type": "address"
        },
        {
          "indexed": true,
          "internalType": "address",
          "name": "newOwner",
          "type": "address"
        }
      ],
      "name": "OwnershipTransferred",
      "type": "event"
    },
    {
      "anonymous": false,
      "inputs": [
        {
          "indexed": true,
          "internalType": "address",
          "name": "winner",
          "type": "address"
        },
        {
          "indexed": false,
          "internalType": "uint256",
          "name": "amount",
          "type": "uint256"
        },
        {
          "indexed": false,
          "internalType": "uint8",
          "name": "rank",
          "type": "uint8"
        },
        {
          "indexed": true,
          "internalType": "uint256",
          "name": "season",
          "type": "uint256"
        }
      ],
      "name": "PrizeAwarded",
      "type": "event"
    },
    {
      "anonymous": false,
      "inputs": [
        {
          "indexed": false,
          "internalType": "address[5]",
          "name": "winners",
          "type": "address[5]"
        },
        {
          "indexed": false,
          "internalType": "uint256[5]",
          "name": "amounts",
          "type": "uint256[5]"
        },
        {
          "indexed": false,
          "internalType": "uint256",
          "name": "totalDistributed",
          "type": "uint256"
        }
      ],
      "name": "PrizesDistributed",
      "type": "event"
    },
    {
      "anonymous": false,
      "inputs": [
        {
          "indexed": true,
          "internalType": "uint256",
          "name": "season",
          "type": "uint256"
        },
        {
          "indexed": false,
          "internalType": "uint256",
          "name": "totalPrize",
          "type": "uint256"
        }
      ],
      "name": "SeasonEnded",
      "type": "event"
    },
    {
      "anonymous": false,
      "inputs": [
        {
          "indexed": true,
          "internalType": "address",
          "name": "player",
          "type": "address"
        },
        {
          "indexed": false,
          "internalType": "uint256",
          "name": "amount",
          "type": "uint256"
        },
        {
          "indexed": false,
          "internalType": "uint256",
          "name": "timestamp",
          "type": "uint256"
        }
      ],
      "name": "TokensDeposited",
      "type": "event"
    },
    {
      "anonymous": false,
      "inputs": [
        {
          "indexed": true,
          "internalType": "address",
          "name": "recipient",
          "type": "address"
        },
        {
          "indexed": false,
          "internalType": "uint256",
          "name": "amount",
          "type": "uint256"
        },
        {
          "indexed": false,
          "internalType": "uint256",
          "name": "timestamp",
          "type": "uint256"
        }
      ],
      "name": "TokensWithdrawn",
      "type": "event"
    },
    {
      "inputs": [],
      "name": "SEASON_DURATION",
      "outputs": [
        {
          "internalType": "uint256",
          "name": "",
          "type": "uint256"
        }
      ],
      "stateMutability": "view",
      "type": "function"
    },
    {
      "inputs": [],
      "name": "currentSeason",
      "outputs": [
        {
          "internalType": "uint256",
          "name": "",
          "type": "uint256"
        }
      ],
      "stateMutability": "view",
      "type": "function"
    },
    {
      "inputs": [
        {
          "internalType": "uint256",
          "name": "amount",
          "type": "uint256"
        }
      ],
      "name": "depositTokens",
      "outputs": [],
      "stateMutability": "nonpayable",
      "type": "function"
    },
    {
      "inputs": [
        {
          "internalType": "address[5]",
          "name": "winners",
          "type": "address[5]"
        }
      ],
      "name": "distributePrizes",
      "outputs": [],
      "stateMutability": "nonpayable",
      "type": "function"
    },
    {
      "inputs": [
        {
          "internalType": "address[5]",
          "name": "winners",
          "type": "address[5]"
        }
      ],
      "name": "endSeason",
      "outputs": [],
      "stateMutability": "nonpayable",
      "type": "function"
    },
    {
      "inputs": [],
      "name": "enterGame",
      "outputs": [],
      "stateMutability": "nonpayable",
      "type": "function"
    },
    {
      "inputs": [],
      "name": "entryFee",
      "outputs": [
        {
          "internalType": "uint256",
          "name": "",
          "type": "uint256"
        }
      ],
      "stateMutability": "view",
      "type": "function"
    },
    {
      "inputs": [],
      "name": "getCurrentSeason",
      "outputs": [
        {
          "internalType": "uint256",
          "name": "",
          "type": "uint256"
        }
      ],
      "stateMutability": "view",
      "type": "function"
    },
    {
      "inputs": [],
      "name": "getCurrentSeasonEndTime",
      "outputs": [
        {
          "internalType": "uint256",
          "name": "",
          "type": "uint256"
        }
      ],
      "stateMutability": "view",
      "type": "function"
    },
    {
      "inputs": [
        {
          "internalType": "address",
          "name": "player",
          "type": "address"
        }
      ],
      "name": "getPlayerBalance",
      "outputs": [
        {
          "internalType": "uint256",
          "name": "",
          "type": "uint256"
        }
      ],
      "stateMutability": "view",
      "type": "function"
    },
    {
      "inputs": [],
      "name": "getPrizeDistribution",
      "outputs": [
        {
          "internalType": "uint8[5]",
          "name": "",
          "type": "uint8[5]"
        }
      ],
      "stateMutability": "view",
      "type": "function"
    },
    {
      "inputs": [],
      "name": "owner",
      "outputs": [
        {
          "internalType": "address",
          "name": "",
          "type": "address"
        }
      ],
      "stateMutability": "view",
      "type": "function"
    },
    {
      "inputs": [
        {
          "internalType": "uint256",
          "name": "amount",
          "type": "uint256"
        }
      ],
      "name": "ownerWithdraw",
      "outputs": [],
      "stateMutability": "nonpayable",
      "type": "function"
    },
    {
      "inputs": [
        {
          "internalType": "address",
          "name": "",
          "type": "address"
        }
      ],
      "name": "playerBalances",
      "outputs": [
        {
          "internalType": "uint256",
          "name": "",
          "type": "uint256"
        }
      ],
      "stateMutability": "view",
      "type": "function"
    },
    {
      "inputs": [
        {
          "internalType": "uint256",
          "name": "",
          "type": "uint256"
        }
      ],
      "name": "prizeDistribution",
      "outputs": [
        {
          "internalType": "uint8",
          "name": "",
          "type": "uint8"
        }
      ],
      "stateMutability": "view",
      "type": "function"
    },
    {
      "inputs": [],
      "name": "renounceOwnership",
      "outputs": [],
      "stateMutability": "nonpayable",
      "type": "function"
    },
    {
      "inputs": [],
      "name": "seasonStartTime",
      "outputs": [
        {
          "internalType": "uint256",
          "name": "",
          "type": "uint256"
        }
      ],
      "stateMutability": "view",
      "type": "function"
    },
    {
      "inputs": [
        {
          "internalType": "uint8[5]",
          "name": "newPercentages",
          "type": "uint8[5]"
        }
      ],
      "name": "setDistribution",
      "outputs": [],
      "stateMutability": "nonpayable",
      "type": "function"
    },
    {
      "inputs": [
        {
          "internalType": "uint256",
          "name": "newFee",
          "type": "uint256"
        }
      ],
      "name": "setEntryFee",
      "outputs": [],
      "stateMutability": "nonpayable",
      "type": "function"
    },
    {
      "inputs": [],
      "name": "supToken",
      "outputs": [
        {
          "internalType": "contract IERC20",
          "name": "",
          "type": "address"
        }
      ],
      "stateMutability": "view",
      "type": "function"
    },
    {
      "inputs": [
        {
          "internalType": "address",
          "name": "newOwner",
          "type": "address"
        }
      ],
      "name": "transferOwnership",
      "outputs": [],
      "stateMutability": "nonpayable",
      "type": "function"
    },
    {
      "inputs": [],
      "name": "weeklyPrizePool",
      "outputs": [
        {
          "internalType": "uint256",
          "name": "",
          "type": "uint256"
        }
      ],
      "stateMutability": "view",
      "type": "function"
    }
  ],
  "bytecode": "0x60806040523480156200001157600080fd5b5060405162001c9238038062001c92833981016040819052620000349162000203565b6200003f3362000102565b60018055600280546001600160a01b0319166001600160a01b038316179055670de0b6b3a76400006003556040805160a08101825260328152601e6020820152600a9181019190915260056060820181905260808201819052620000a69160049162000152565b504260006007620000bb620151808462000261565b620000c890600462000278565b620000d4919062000294565b9050620000e58162015180620002ab565b620000f19083620002c5565b6006555050600160075550620002db565b600080546001600160a01b038381166001600160a01b0319831681178455604051919092169283917f8be0079c531659141344cd1fd0a4f28419497f9722a3daafe3b4186f6b6457e09190a35050565b600183019183908215620001da5791602002820160005b83821115620001a957835183826101000a81548160ff021916908360ff160217905550926020019260010160208160000104928301926001030262000169565b8015620001d85782816101000a81549060ff0219169055600101602081600001049283019260010302620001a9565b505b50620001e8929150620001ec565b5090565b5b80821115620001e85760008155600101620001ed565b6000602082840312156200021657600080fd5b81516001600160a01b03811681146200022e57600080fd5b9392505050565b634e487b7160e01b600052601260045260246000fd5b634e487b7160e01b600052601160045260246000fd5b60008262000273576200027362000235565b500490565b808201808211156200028e576200028e6200024b565b92915050565b600082620002a657620002a662000235565b500690565b80820281158282048414176200028e576200028e6200024b565b818103818111156200028e576200028e6200024b565b6119a780620002eb6000396000f3fe608060405234801561001057600080fd5b50600436106101425760003560e01c8063ab2a79f9116100b8578063dc185e351161007c578063dc185e351461026f578063dd49756e14610279578063e2734c931461028c578063eb770d0c146102b5578063f2fde38b146102c8578063fa5b1a7f146102db57600080fd5b8063ab2a79f91461022e578063bcb3962114610236578063cbd3f9621461023f578063d3b30b7514610254578063da8c77921461025c57600080fd5b8063715018a61161010a578063715018a6146101d05780637971999a146101d85780637b38314c146101e15780638104ae4d146102015780638d6675641461020a5780638da5cb5b1461021d57600080fd5b80630102df2514610147578063072ea61c14610177578063218bd5771461018e57806333f707d11461019857806354c237b7146101ab575b600080fd5b60025461015a906001600160a01b031681565b6040516001600160a01b0390911681526020015b60405180910390f35b61018060035481565b60405190815260200161016e565b6101966102ee565b005b6101966101a6366004611630565b610454565b6101be6101b9366004611630565b610580565b60405160ff909116815260200161016e565b6101966105aa565b61018060055481565b6101806101ef366004611665565b60086020526000908152604090205481565b61018060065481565b61019661021836600461169e565b6105bc565b6000546001600160a01b031661015a565b610180610710565b61018060075481565b610247610728565b60405161016e91906116e0565b600754610180565b61019661026a36600461169e565b610780565b61018062093a8081565b610196610287366004611630565b610a2f565b61018061029a366004611665565b6001600160a01b031660009081526008602052604090205490565b6101966102c3366004611630565b610b06565b6101966102d6366004611665565b610baf565b6101966102e936600461169e565b610c25565b6102f6611159565b62093a806006546103079190611704565b421061035257600062093a80600654426103219190611717565b61032b9190611740565b905061033a62093a8082611754565b6006600082825461034b9190611704565b9091555050505b600354336000908152600860205260409020541061039757600354336000908152600860205260408120805490919061038c908490611717565b909155506103b69050565b6003546002546103b6916001600160a01b0390911690339030906111b2565b600354600560008282546103ca9190611704565b90915550506003546040805191825242602083015233917ffdfdcf596161b0e81e3161597d46888dcc88bd83b22dcfb341c76377ca3bbc9e910160405180910390a26003546040805191825242602083015233917f9a1a3c45c9a593fe515b398aac3639ed6ac33d78b8c7eeb8f81241e8ecf65ee9910160405180910390a261045260018055565b565b61045c611223565b610464611159565b6005548111156104bb5760405162461bcd60e51b815260206004820152601e60248201527f416d6f756e74206578636565647320617661696c61626c652066756e6473000060448201526064015b60405180910390fd5b80600560008282546104cd9190611717565b90915550506000546104f5906001600160a01b03166002546001600160a01b0316908361127d565b600054604080518381524260208201526001600160a01b03909216917fffe903c0abe6b2dbb2f3474ef43d7a3c1fca49e5a774453423ca8e1952aabffa910160405180910390a2604080518281524260208201527f1dcb27f9812d159cc6ea3f1338ec78646f39b830096254199c14e2228950c1c8910160405180910390a161057d60018055565b50565b6004816005811061059057600080fd5b60209182820401919006915054906101000a900460ff1681565b6105b2611223565b61045260006112b2565b6105c4611223565b6000805b60058160ff16101561061d57828160ff16600581106105e9576105e961176b565b6020020160208101906105fc9190611792565b6106099060ff16836117ad565b915080610615816117cf565b9150506105c8565b508061ffff166064146106725760405162461bcd60e51b815260206004820152601e60248201527f50657263656e7461676573206d7573742061646420757020746f20313030000060448201526064016104b2565b6040805160a08101918290526000916004906005908285855b825461010083900a900460ff1681526020600192830181810494850194909303909202910180841161068b579050505050505090508260049060056106d1929190611567565b507fd8398b26cff3564d354793d25b095bd15773387cdf28c90d94a1ad524bdaeb7b81846040516107039291906117ee565b60405180910390a1505050565b600062093a806006546107239190611704565b905090565b6107306115fd565b6040805160a081019182905290600490600590826000855b825461010083900a900460ff168152602060019283018181049485019490930390920291018084116107485790505050505050905090565b610788611223565b610790611159565b6000600554116107dc5760405162461bcd60e51b81526020600482015260176024820152764e6f207072697a657320746f206469737472696275746560481b60448201526064016104b2565b60006107e66115fd565b60005b60058160ff1610156109d05760008460ff83166005811061080c5761080c61176b565b60200201602081019061081f9190611665565b6001600160a01b03160361086e5760405162461bcd60e51b8152602060048201526016602482015275496e76616c69642077696e6e6572206164647265737360501b60448201526064016104b2565b6000606460048360ff16600581106108885761088861176b565b602091828204019190069054906101000a900460ff1660ff166005546108ae9190611754565b6108b89190611740565b905080838360ff16600581106108d0576108d061176b565b60200201526108df8185611704565b935080156109bd578060086000878560ff16600581106109015761090161176b565b6020020160208101906109149190611665565b6001600160a01b03166001600160a01b0316815260200190815260200160002060008282546109439190611704565b9091555085905060ff83166005811061095e5761095e61176b565b6020020160208101906109719190611665565b6001600160a01b03167fffe903c0abe6b2dbb2f3474ef43d7a3c1fca49e5a774453423ca8e1952aabffa82426040516109b4929190918252602082015260400190565b60405180910390a25b50806109c8816117cf565b9150506107e9565b5081600560008282546109e39190611717565b90915550506040517fd93ab995ee7186dfc23e3168e2c5e45cde1983ae0012c996ce229ef65777221290610a1c90859084908690611839565b60405180910390a1505061057d60018055565b610a37611159565b60008111610a875760405162461bcd60e51b815260206004820181905260248201527f416d6f756e74206d7573742062652067726561746572207468616e207a65726f60448201526064016104b2565b600254610a9f906001600160a01b03163330846111b2565b3360009081526008602052604081208054839290610abe908490611704565b90915550506040805182815242602082015233917ffdfdcf596161b0e81e3161597d46888dcc88bd83b22dcfb341c76377ca3bbc9e910160405180910390a261057d60018055565b610b0e611223565b60008111610b6a5760405162461bcd60e51b815260206004820152602360248201527f456e74727920666565206d7573742062652067726561746572207468616e207a60448201526265726f60e81b60648201526084016104b2565b600380549082905560408051828152602081018490527f6a75d918a59da9597a749b7c707f23cfa76552074b43c68a24a21db1c45841f1910160405180910390a15050565b610bb7611223565b6001600160a01b038116610c1c5760405162461bcd60e51b815260206004820152602660248201527f4f776e61626c653a206e6577206f776e657220697320746865207a65726f206160448201526564647265737360d01b60648201526084016104b2565b61057d816112b2565b610c2d611223565b610c35611159565b600060055411610c815760405162461bcd60e51b81526020600482015260176024820152764e6f207072697a657320746f206469737472696275746560481b60448201526064016104b2565b60005b60058160ff161015610df95760008260ff831660058110610ca757610ca761176b565b602002016020810190610cba9190611665565b6001600160a01b031603610d095760405162461bcd60e51b8152602060048201526016602482015275496e76616c69642077696e6e6572206164647265737360501b60448201526064016104b2565b6000610d168260016118af565b90505b60058160ff161015610de657828160ff1660058110610d3a57610d3a61176b565b602002016020810190610d4d9190611665565b6001600160a01b0316838360ff1660058110610d6b57610d6b61176b565b602002016020810190610d7e9190611665565b6001600160a01b031603610dd45760405162461bcd60e51b815260206004820152601860248201527f4475706c69636174652077696e6e65722061646472657373000000000000000060448201526064016104b2565b80610dde816117cf565b915050610d19565b5080610df1816117cf565b915050610c84565b50600554610e056115fd565b6000805b60048160ff161015610ea857606460048260ff1660058110610e2d57610e2d61176b565b602081049190910154610e4c91601f166101000a900460ff1686611754565b610e569190611740565b838260ff1660058110610e6b57610e6b61176b565b60200201528260ff821660058110610e8557610e8561176b565b6020020151610e949083611704565b915080610ea0816117cf565b915050610e09565b50610eb38184611717565b608083015260005b60058160ff161015611097576000838260ff1660058110610ede57610ede61176b565b6020020151111561108557828160ff1660058110610efe57610efe61176b565b602002015160086000878460ff1660058110610f1c57610f1c61176b565b602002016020810190610f2f9190611665565b6001600160a01b03166001600160a01b031681526020019081526020016000206000828254610f5e9190611704565b9091555085905060ff821660058110610f7957610f7961176b565b602002016020810190610f8c9190611665565b6001600160a01b03167fffe903c0abe6b2dbb2f3474ef43d7a3c1fca49e5a774453423ca8e1952aabffa848360ff1660058110610fcb57610fcb61176b565b602002015142604051610fe8929190918252602082015260400190565b60405180910390a2600754858260ff16600581106110085761100861176b565b60200201602081019061101b9190611665565b6001600160a01b03167f975b964c87063cc8a663bda95acafcc123cbd152264733e49de21a70e9c1bb22858460ff166005811061105a5761105a61176b565b602002015161106a8560016118af565b6040805192835260ff90911660208301520160405180910390a35b8061108f816117cf565b915050610ebb565b50600580546000918290556007805491926001926110b6908490611704565b90915550504260068190556000906007906110d5906201518090611740565b6110e0906004611704565b6110ea91906118c8565b90506110f98162015180611754565b6006546111069190611717565b60065560075461111890600190611717565b6040518381527fd84108459ae28f4111f3c851dee576040e08f18d76d1dc82f0094abe275b11529060200160405180910390a2505050505061057d60018055565b6002600154036111ab5760405162461bcd60e51b815260206004820152601f60248201527f5265656e7472616e637947756172643a207265656e7472616e742063616c6c0060448201526064016104b2565b6002600155565b6040516001600160a01b038085166024830152831660448201526064810182905261121d9085906323b872dd60e01b906084015b60408051601f198184030181529190526020810180516001600160e01b03166001600160e01b031990931692909217909152611302565b50505050565b6000546001600160a01b031633146104525760405162461bcd60e51b815260206004820181905260248201527f4f776e61626c653a2063616c6c6572206973206e6f7420746865206f776e657260448201526064016104b2565b6040516001600160a01b0383166024820152604481018290526112ad90849063a9059cbb60e01b906064016111e6565b505050565b600080546001600160a01b038381166001600160a01b0319831681178455604051919092169283917f8be0079c531659141344cd1fd0a4f28419497f9722a3daafe3b4186f6b6457e09190a35050565b6000611357826040518060400160405280602081526020017f5361666545524332303a206c6f772d6c6576656c2063616c6c206661696c6564815250856001600160a01b03166113d79092919063ffffffff16565b905080516000148061137857508080602001905181019061137891906118dc565b6112ad5760405162461bcd60e51b815260206004820152602a60248201527f5361666545524332303a204552433230206f7065726174696f6e20646964206e6044820152691bdd081cdd58d8d9595960b21b60648201526084016104b2565b60606113e684846000856113ee565b949350505050565b60608247101561144f5760405162461bcd60e51b815260206004820152602660248201527f416464726573733a20696e73756666696369656e742062616c616e636520666f6044820152651c8818d85b1b60d21b60648201526084016104b2565b600080866001600160a01b0316858760405161146b9190611922565b60006040518083038185875af1925050503d80600081146114a8576040519150601f19603f3d011682016040523d82523d6000602084013e6114ad565b606091505b50915091506114be878383876114c9565b979650505050505050565b60608315611538578251600003611531576001600160a01b0385163b6115315760405162461bcd60e51b815260206004820152601d60248201527f416464726573733a2063616c6c20746f206e6f6e2d636f6e747261637400000060448201526064016104b2565b50816113e6565b6113e6838381511561154d5781518083602001fd5b8060405162461bcd60e51b81526004016104b2919061193e565b6001830191839082156115ed5791602002820160005b838211156115be57833560ff1683826101000a81548160ff021916908360ff160217905550926020019260010160208160000104928301926001030261157d565b80156115eb5782816101000a81549060ff02191690556001016020816000010492830192600103026115be565b505b506115f992915061161b565b5090565b6040518060a001604052806005906020820280368337509192915050565b5b808211156115f9576000815560010161161c565b60006020828403121561164257600080fd5b5035919050565b80356001600160a01b038116811461166057600080fd5b919050565b60006020828403121561167757600080fd5b61168082611649565b9392505050565b8060a0810183101561169857600080fd5b92915050565b600060a082840312156116b057600080fd5b6116808383611687565b8060005b600581101561121d57815160ff168452602093840193909101906001016116be565b60a0810161169882846116ba565b634e487b7160e01b600052601160045260246000fd5b80820180821115611698576116986116ee565b81810381811115611698576116986116ee565b634e487b7160e01b600052601260045260246000fd5b60008261174f5761174f61172a565b500490565b8082028115828204841417611698576116986116ee565b634e487b7160e01b600052603260045260246000fd5b803560ff8116811461166057600080fd5b6000602082840312156117a457600080fd5b61168082611781565b61ffff8181168382160190808211156117c8576117c86116ee565b5092915050565b600060ff821660ff81036117e5576117e56116ee565b60010192915050565b61014081016117fd82856116ba565b60a082018360005b600581101561182f5760ff61181983611781565b1683526020928301929190910190600101611805565b5050509392505050565b6101608101818560005b6005811015611873576001600160a01b0361185d83611649565b1683526020928301929190910190600101611843565b50505060a082018460005b600581101561189d57815183526020928301929091019060010161187e565b50505082610140830152949350505050565b60ff8181168382160190811115611698576116986116ee565b6000826118d7576118d761172a565b500690565b6000602082840312156118ee57600080fd5b8151801515811461168057600080fd5b60005b83811015611919578181015183820152602001611901565b50506000910152565b600082516119348184602087016118fe565b9190910192915050565b602081526000825180602084015261195d8160408501602087016118fe565b601f01601f1916919091016040019291505056fea2646970667358221220247d0852f4e393174b470c9e7bd991011a300fe7870bc8b30e9a4ba7e982c8de64736f6c63430008130033",
  "linkReferences": {},
  "deployedLinkReferences": {}
}