{
  "_format": "hh-sol-artifact-1",
  "contractName": "ReentrancyAttacker",
  "sourceName": "contracts/ReentrancyAttacker.sol",
  "abi": [
    {
      "inputs": [
        {
          "internalType": "address",
          "name": "_token",
          "type": "address"
        },
        {
          "internalType": "address",
          "name": "_gameContract",
          "type": "address"
        }
      ],
      "stateMutability": "nonpayable",
      "type": "constructor"
    },
    {
      "anonymous": false,
      "inputs": [
        {
          "indexed": false,
          "internalType": "bool",
          "name": "success",
          "type": "bool"
        }
      ],
      "name": "AttackExecuted",
      "type": "event"
    },
    {
      "anonymous": false,
      "inputs": [
        {
          "indexed": false,
          "internalType": "uint256",
          "name": "count",
          "type": "uint256"
        }
      ],
      "name": "RecursiveCallAttempted",
      "type": "event"
    },
    {
      "anonymous": false,
      "inputs": [
        {
          "indexed": false,
          "internalType": "uint256",
          "name": "amount",
          "type": "uint256"
        }
      ],
      "name": "TokensReceived",
      "type": "event"
    },
    {
      "inputs": [
        {
          "internalType": "uint256",
          "name": "amount",
          "type": "uint256"
        }
      ],
      "name": "attack",
      "outputs": [],
      "stateMutability": "nonpayable",
      "type": "function"
    },
    {
      "inputs": [],
      "name": "attackCount",
      "outputs": [
        {
          "internalType": "uint256",
          "name": "",
          "type": "uint256"
        }
      ],
      "stateMutability": "view",
      "type": "function"
    },
    {
      "inputs": [],
      "name": "attacking",
      "outputs": [
        {
          "internalType": "bool",
          "name": "",
          "type": "bool"
        }
      ],
      "stateMutability": "view",
      "type": "function"
    },
    {
      "inputs": [
        {
          "internalType": "uint256",
          "name": "amount",
          "type": "uint256"
        }
      ],
      "name": "fundAttacker",
      "outputs": [],
      "stateMutability": "nonpayable",
      "type": "function"
    },
    {
      "inputs": [],
      "name": "gameContract",
      "outputs": [
        {
          "internalType": "contract ITetriSeedGame",
          "name": "",
          "type": "address"
        }
      ],
      "stateMutability": "view",
      "type": "function"
    },
    {
      "inputs": [],
      "name": "owner",
      "outputs": [
        {
          "internalType": "address",
          "name": "",
          "type": "address"
        }
      ],
      "stateMutability": "view",
      "type": "function"
    },
    {
      "inputs": [],
      "name": "token",
      "outputs": [
        {
          "internalType": "contract IERC20",
          "name": "",
          "type": "address"
        }
      ],
      "stateMutability": "view",
      "type": "function"
    },
    {
      "inputs": [],
      "name": "withdrawTokens",
      "outputs": [],
      "stateMutability": "nonpayable",
      "type": "function"
    },
    {
      "stateMutability": "payable",
      "type": "receive"
    }
  ],
  "bytecode": "0x608060405234801561001057600080fd5b50604051610ab3380380610ab383398101604081905261002f9161009c565b600080546001600160a01b03199081166001600160a01b03948516178255600180549091169290931691909117909155600280546001600160a81b0319163360ff60a01b19161790556003556100cf565b80516001600160a01b038116811461009757600080fd5b919050565b600080604083850312156100af57600080fd5b6100b883610080565b91506100c660208401610080565b90509250929050565b6109d5806100de6000396000f3fe60806040526004361061007f5760003560e01c80638d8f2adb1161004e5780638d8f2adb146101ea5780638da5cb5b146101ff578063d3f3300914610237578063fc0c546a1461025757600080fd5b80633c0bbcd914610150578063407c28211461018657806364dd891a146101aa578063699151e6146101ca57600080fd5b3661014b57600254600160a01b900460ff1615610149577fc85f5e393c40c7a10e1348c83b620bada0d8ed544935cadc756ed034c44c91856003600081546100c6906108aa565b918290555060405190815260200160405180910390a160038054101561014957600160009054906101000a90046001600160a01b03166001600160a01b031663218bd5776040518163ffffffff1660e01b8152600401600060405180830381600087803b15801561013657600080fd5b505af1925050508015610147575060015b505b005b600080fd5b34801561015c57600080fd5b5060025461017190600160a01b900460ff1681565b60405190151581526020015b60405180910390f35b34801561019257600080fd5b5061019c60035481565b60405190815260200161017d565b3480156101b657600080fd5b506101496101c53660046108d1565b610277565b3480156101d657600080fd5b506101496101e53660046108d1565b6104f8565b3480156101f657600080fd5b50610149610513565b34801561020b57600080fd5b5060025461021f906001600160a01b031681565b6040516001600160a01b03909116815260200161017d565b34801561024357600080fd5b5060015461021f906001600160a01b031681565b34801561026357600080fd5b5060005461021f906001600160a01b031681565b6000546040516370a0823160e01b815230600482015282916001600160a01b0316906370a0823190602401602060405180830381865afa1580156102bf573d6000803e3d6000fd5b505050506040513d601f19601f820116820180604052508101906102e391906108ea565b101561032a5760405162461bcd60e51b81526020600482015260116024820152704e6f7420656e6f75676820746f6b656e7360781b60448201526064015b60405180910390fd5b60005460015460405163095ea7b360e01b81526001600160a01b0391821660048201526024810184905291169063095ea7b3906044016020604051808303816000875af115801561037f573d6000803e3d6000fd5b505050506040513d601f19601f820116820180604052508101906103a39190610903565b506002805460ff60a01b1916600160a01b1790556000600355600154604051636ea4bab760e11b8152600481018390526001600160a01b039091169063dd49756e90602401600060405180830381600087803b15801561040257600080fd5b505af1158015610416573d6000803e3d6000fd5b50505050600160009054906101000a90046001600160a01b03166001600160a01b031663218bd5776040518163ffffffff1660e01b8152600401600060405180830381600087803b15801561046a57600080fd5b505af192505050801561047b575060015b6104b457604051600081527f2170d2a262726efbde60958ad98eff9c4f3ca4920d2ce44f5b6481128bd0b49d9060200160405180910390a15b6002805460ff60a01b19169055604051600181527f2170d2a262726efbde60958ad98eff9c4f3ca4920d2ce44f5b6481128bd0b49d9060200160405180910390a150565b600054610510906001600160a01b031633308461059f565b50565b600080546040516370a0823160e01b81523060048201526001600160a01b03909116906370a0823190602401602060405180830381865afa15801561055c573d6000803e3d6000fd5b505050506040513d601f19601f8201168201806040525081019061058091906108ea565b9050801561051057600054610510906001600160a01b03163383610610565b6040516001600160a01b038085166024830152831660448201526064810182905261060a9085906323b872dd60e01b906084015b60408051601f198184030181529190526020810180516001600160e01b03166001600160e01b031990931692909217909152610645565b50505050565b6040516001600160a01b03831660248201526044810182905261064090849063a9059cbb60e01b906064016105d3565b505050565b600061069a826040518060400160405280602081526020017f5361666545524332303a206c6f772d6c6576656c2063616c6c206661696c6564815250856001600160a01b031661071a9092919063ffffffff16565b90508051600014806106bb5750808060200190518101906106bb9190610903565b6106405760405162461bcd60e51b815260206004820152602a60248201527f5361666545524332303a204552433230206f7065726174696f6e20646964206e6044820152691bdd081cdd58d8d9595960b21b6064820152608401610321565b60606107298484600085610731565b949350505050565b6060824710156107925760405162461bcd60e51b815260206004820152602660248201527f416464726573733a20696e73756666696369656e742062616c616e636520666f6044820152651c8818d85b1b60d21b6064820152608401610321565b600080866001600160a01b031685876040516107ae9190610950565b60006040518083038185875af1925050503d80600081146107eb576040519150601f19603f3d011682016040523d82523d6000602084013e6107f0565b606091505b50915091506108018783838761080c565b979650505050505050565b6060831561087b578251600003610874576001600160a01b0385163b6108745760405162461bcd60e51b815260206004820152601d60248201527f416464726573733a2063616c6c20746f206e6f6e2d636f6e74726163740000006044820152606401610321565b5081610729565b61072983838151156108905781518083602001fd5b8060405162461bcd60e51b8152600401610321919061096c565b6000600182016108ca57634e487b7160e01b600052601160045260246000fd5b5060010190565b6000602082840312156108e357600080fd5b5035919050565b6000602082840312156108fc57600080fd5b5051919050565b60006020828403121561091557600080fd5b8151801515811461092557600080fd5b9392505050565b60005b8381101561094757818101518382015260200161092f565b50506000910152565b6000825161096281846020870161092c565b9190910192915050565b602081526000825180602084015261098b81604085016020870161092c565b601f01601f1916919091016040019291505056fea26469706673582212207ee763b116a527482acaf1fc7baf23688c87439d3d1ac81a875398de952f08f064736f6c63430008130033",
  "linkReferences": {},
  "deployedLinkReferences": {}
}